{"project/test/mocks/MockCCIPRouter.sol":{"MockCCIPRouter":{"abi":[{"anonymous":false,"inputs":[{"indexed":true,"internalType":"bytes32","name":"messageId","type":"bytes32"},{"indexed":false,"internalType":"uint64","name":"destinationChainSelector","type":"uint64"},{"indexed":false,"internalType":"bytes","name":"receiver","type":"bytes"},{"indexed":false,"internalType":"bytes","name":"data","type":"bytes"}],"name":"MessageSent","type":"event"},{"inputs":[{"internalType":"uint64","name":"destinationChainSelector","type":"uint64"},{"components":[{"internalType":"bytes","name":"receiver","type":"bytes"},{"internalType":"bytes","name":"data","type":"bytes"},{"components":[{"internalType":"address","name":"token","type":"address"},{"internalType":"uint256","name":"amount","type":"uint256"}],"internalType":"struct Client.EVMTokenAmount[]","name":"tokenAmounts","type":"tuple[]"},{"internalType":"address","name":"feeToken","type":"address"},{"internalType":"bytes","name":"extraArgs","type":"bytes"}],"internalType":"struct Client.EVM2AnyMessage","name":"message","type":"tuple"}],"name":"ccipSend","outputs":[{"internalType":"bytes32","name":"","type":"bytes32"}],"stateMutability":"payable","type":"function"},{"inputs":[{"internalType":"address","name":"receiver","type":"address"},{"components":[{"internalType":"bytes32","name":"messageId","type":"bytes32"},{"internalType":"uint64","name":"sourceChainSelector","type":"uint64"},{"internalType":"bytes","name":"sender","type":"bytes"},{"internalType":"bytes","name":"data","type":"bytes"},{"components":[{"internalType":"address","name":"token","type":"address"},{"internalType":"uint256","name":"amount","type":"uint256"}],"internalType":"struct Client.EVMTokenAmount[]","name":"destTokenAmounts","type":"tuple[]"}],"internalType":"struct Client.Any2EVMMessage","name":"message","type":"tuple"}],"name":"deliverMessage","outputs":[],"stateMutability":"nonpayable","type":"function"},{"inputs":[],"name":"fee","outputs":[{"internalType":"uint256","name":"","type":"uint256"}],"stateMutability":"view","type":"function"},{"inputs":[{"internalType":"uint64","name":"destinationChainSelector","type":"uint64"},{"components":[{"internalType":"bytes","name":"receiver","type":"bytes"},{"internalType":"bytes","name":"data","type":"bytes"},{"components":[{"internalType":"address","name":"token","type":"address"},{"internalType":"uint256","name":"amount","type":"uint256"}],"internalType":"struct Client.EVMTokenAmount[]","name":"tokenAmounts","type":"tuple[]"},{"internalType":"address","name":"feeToken","type":"address"},{"internalType":"bytes","name":"extraArgs","type":"bytes"}],"internalType":"struct Client.EVM2AnyMessage","name":"message","type":"tuple"}],"name":"getFee","outputs":[{"internalType":"uint256","name":"","type":"uint256"}],"stateMutability":"view","type":"function"},{"inputs":[{"internalType":"bytes32","name":"","type":"bytes32"}],"name":"processedMessages","outputs":[{"internalType":"bool","name":"","type":"bool"}],"stateMutability":"view","type":"function"}],"evm":{"bytecode":{"linkReferences":{},"object":"6080604052662386f26fc1000060015534801561001a575f80fd5b5061066a806100285f395ff3fe608060405260043610610049575f3560e01c806320487ded1461004d5780636521c1e01461008257806388ba16ab146100a357806396f4e9f9146100e1578063ddca3f43146100f4575b5f80fd5b348015610058575f80fd5b5061006f61006736600461031a565b505060015490565b6040519081526020015b60405180910390f35b34801561008d575f80fd5b506100a161009c36600461037b565b610109565b005b3480156100ae575f80fd5b506100d16100bd366004610395565b5f6020819052908152604090205460ff1681565b6040519015158152602001610079565b61006f6100ef36600461031a565b6101ea565b3480156100ff575f80fd5b5061006f60015481565b5f826001600160a01b031682604051602401610125919061046c565b60408051601f198184030181529181526020820180516001600160e01b03166385572ffb60e01b1790525161015a9190610543565b5f604051808303815f865af19150503d805f8114610193576040519150601f19603f3d011682016040523d82523d5f602084013e610198565b606091505b50509050806101e55760405162461bcd60e51b815260206004820152601460248201527310d0d2540819195b1a5d995c9e4819985a5b195960621b60448201526064015b60405180910390fd5b505050565b5f6001543410156102305760405162461bcd60e51b815260206004820152601060248201526f496e73756666696369656e742066656560801b60448201526064016101dc565b5f8361023c848061056f565b610249602087018761056f565b4260405160200161025f969594939291906105b2565b60408051601f1981840301815291815281516020928301205f818152928390529120805460ff191660011790559050807fdc1a8fd80399fd11ac209f2989b373b9b70d8757d959d9da86be174269863689856102bb868061056f565b6102c8602089018961056f565b6040516102d99594939291906105f2565b60405180910390a29392505050565b803567ffffffffffffffff811681146102ff575f80fd5b919050565b5f60a08284031215610314575f80fd5b50919050565b5f806040838503121561032b575f80fd5b610334836102e8565b9150602083013567ffffffffffffffff81111561034f575f80fd5b61035b85828601610304565b9150509250929050565b80356001600160a01b03811681146102ff575f80fd5b5f806040838503121561038c575f80fd5b61033483610365565b5f602082840312156103a5575f80fd5b5035919050565b5f808335601e198436030181126103c1575f80fd5b830160208101925035905067ffffffffffffffff8111156103e0575f80fd5b8036038213156103ee575f80fd5b9250929050565b81835281816020850137505f828201602090810191909152601f909101601f19169091010190565b8183525f60208085019450825f5b85811015610461576001600160a01b0361044483610365565b16875281830135838801526040968701969091019060010161042b565b509495945050505050565b60208152813560208201525f610484602084016102e8565b67ffffffffffffffff80821660408501526104a260408601866103ac565b925060a060608601526104b960c0860184836103f5565b9250506104c960608601866103ac565b601f19808786030160808801526104e18583856103f5565b945060808801359250601e198836030183126104fb575f80fd5b60209288019283019235915083821115610513575f80fd5b8160061b3603831315610524575f80fd5b8685030160a087015261053884828461041d565b979650505050505050565b5f82515f5b818110156105625760208186018101518583015201610548565b505f920191825250919050565b5f808335601e19843603018112610584575f80fd5b83018035915067ffffffffffffffff82111561059e575f80fd5b6020019150368190038213156103ee575f80fd5b60c087901b6001600160c01b0319168152848660088301375f858201600881015f8152858782375060089401938401929092525050602801949350505050565b67ffffffffffffffff86168152606060208201525f6106156060830186886103f5565b82810360408401526106288185876103f5565b9897505050505050505056fea26469706673582212207809d91d82b6234bef33c8e9bcaea0d9989ec57be7c6074307064f388619078b64736f6c63430008180033","opcodes":"PUSH1 0x80 PUSH1 0x40 MSTORE PUSH7 0x2386F26FC10000 PUSH1 0x1 SSTORE CALLVALUE DUP1 ISZERO PUSH2 0x1A JUMPI PUSH0 DUP1 REVERT JUMPDEST POP PUSH2 0x66A DUP1 PUSH2 0x28 PUSH0 CODECOPY PUSH0 RETURN INVALID PUSH1 0x80 PUSH1 0x40 MSTORE PUSH1 0x4 CALLDATASIZE LT PUSH2 0x49 JUMPI PUSH0 CALLDATALOAD PUSH1 0xE0 SHR DUP1 PUSH4 0x20487DED EQ PUSH2 0x4D JUMPI DUP1 PUSH4 0x6521C1E0 EQ PUSH2 0x82 JUMPI DUP1 PUSH4 0x88BA16AB EQ PUSH2 0xA3 JUMPI DUP1 PUSH4 0x96F4E9F9 EQ PUSH2 0xE1 JUMPI DUP1 PUSH4 0xDDCA3F43 EQ PUSH2 0xF4 JUMPI JUMPDEST PUSH0 DUP1 REVERT JUMPDEST CALLVALUE DUP1 ISZERO PUSH2 0x58 JUMPI PUSH0 DUP1 REVERT JUMPDEST POP PUSH2 0x6F PUSH2 0x67 CALLDATASIZE PUSH1 0x4 PUSH2 0x31A JUMP JUMPDEST POP POP PUSH1 0x1 SLOAD SWAP1 JUMP JUMPDEST PUSH1 0x40 MLOAD SWAP1 DUP2 MSTORE PUSH1 0x20 ADD JUMPDEST PUSH1 0x40 MLOAD DUP1 SWAP2 SUB SWAP1 RETURN JUMPDEST CALLVALUE DUP1 ISZERO PUSH2 0x8D JUMPI PUSH0 DUP1 REVERT JUMPDEST POP PUSH2 0xA1 PUSH2 0x9C CALLDATASIZE PUSH1 0x4 PUSH2 0x37B JUMP JUMPDEST PUSH2 0x109 JUMP JUMPDEST STOP JUMPDEST CALLVALUE DUP1 ISZERO PUSH2 0xAE JUMPI PUSH0 DUP1 REVERT JUMPDEST POP PUSH2 0xD1 PUSH2 0xBD CALLDATASIZE PUSH1 0x4 PUSH2 0x395 JUMP JUMPDEST PUSH0 PUSH1 0x20 DUP2 SWAP1 MSTORE SWAP1 DUP2 MSTORE PUSH1 0x40 SWAP1 KECCAK256 SLOAD PUSH1 0xFF AND DUP2 JUMP JUMPDEST PUSH1 0x40 MLOAD SWAP1 ISZERO ISZERO DUP2 MSTORE PUSH1 0x20 ADD PUSH2 0x79 JUMP JUMPDEST PUSH2 0x6F PUSH2 0xEF CALLDATASIZE PUSH1 0x4 PUSH2 0x31A JUMP JUMPDEST PUSH2 0x1EA JUMP JUMPDEST CALLVALUE DUP1 ISZERO PUSH2 0xFF JUMPI PUSH0 DUP1 REVERT JUMPDEST POP PUSH2 0x6F PUSH1 0x1 SLOAD DUP2 JUMP JUMPDEST PUSH0 DUP3 PUSH1 0x1 PUSH1 0x1 PUSH1 0xA0 SHL SUB AND DUP3 PUSH1 0x40 MLOAD PUSH1 0x24 ADD PUSH2 0x125 SWAP2 SWAP1 PUSH2 0x46C JUMP JUMPDEST PUSH1 0x40 DUP1 MLOAD PUSH1 0x1F NOT DUP2 DUP5 SUB ADD DUP2 MSTORE SWAP2 DUP2 MSTORE PUSH1 0x20 DUP3 ADD DUP1 MLOAD PUSH1 0x1 PUSH1 0x1 PUSH1 0xE0 SHL SUB AND PUSH4 0x85572FFB PUSH1 0xE0 SHL OR SWAP1 MSTORE MLOAD PUSH2 0x15A SWAP2 SWAP1 PUSH2 0x543 JUMP JUMPDEST PUSH0 PUSH1 0x40 MLOAD DUP1 DUP4 SUB DUP2 PUSH0 DUP7 GAS CALL SWAP2 POP POP RETURNDATASIZE DUP1 PUSH0 DUP2 EQ PUSH2 0x193 JUMPI PUSH1 0x40 MLOAD SWAP2 POP PUSH1 0x1F NOT PUSH1 0x3F RETURNDATASIZE ADD AND DUP3 ADD PUSH1 0x40 MSTORE RETURNDATASIZE DUP3 MSTORE RETURNDATASIZE PUSH0 PUSH1 0x20 DUP5 ADD RETURNDATACOPY PUSH2 0x198 JUMP JUMPDEST PUSH1 0x60 SWAP2 POP JUMPDEST POP POP SWAP1 POP DUP1 PUSH2 0x1E5 JUMPI PUSH1 0x40 MLOAD PUSH3 0x461BCD PUSH1 0xE5 SHL DUP2 MSTORE PUSH1 0x20 PUSH1 0x4 DUP3 ADD MSTORE PUSH1 0x14 PUSH1 0x24 DUP3 ADD MSTORE PUSH20 0x10D0D2540819195B1A5D995C9E4819985A5B1959 PUSH1 0x62 SHL PUSH1 0x44 DUP3 ADD MSTORE PUSH1 0x64 ADD JUMPDEST PUSH1 0x40 MLOAD DUP1 SWAP2 SUB SWAP1 REVERT JUMPDEST POP POP POP JUMP JUMPDEST PUSH0 PUSH1 0x1 SLOAD CALLVALUE LT ISZERO PUSH2 0x230 JUMPI PUSH1 0x40 MLOAD PUSH3 0x461BCD PUSH1 0xE5 SHL DUP2 MSTORE PUSH1 0x20 PUSH1 0x4 DUP3 ADD MSTORE PUSH1 0x10 PUSH1 0x24 DUP3 ADD MSTORE PUSH16 0x496E73756666696369656E7420666565 PUSH1 0x80 SHL PUSH1 0x44 DUP3 ADD MSTORE PUSH1 0x64 ADD PUSH2 0x1DC JUMP JUMPDEST PUSH0 DUP4 PUSH2 0x23C DUP5 DUP1 PUSH2 0x56F JUMP JUMPDEST PUSH2 0x249 PUSH1 0x20 DUP8 ADD DUP8 PUSH2 0x56F JUMP JUMPDEST TIMESTAMP PUSH1 0x40 MLOAD PUSH1 0x20 ADD PUSH2 0x25F SWAP7 SWAP6 SWAP5 SWAP4 SWAP3 SWAP2 SWAP1 PUSH2 0x5B2 JUMP JUMPDEST PUSH1 0x40 DUP1 MLOAD PUSH1 0x1F NOT DUP2 DUP5 SUB ADD DUP2 MSTORE SWAP2 DUP2 MSTORE DUP2 MLOAD PUSH1 0x20 SWAP3 DUP4 ADD KECCAK256 PUSH0 DUP2 DUP2 MSTORE SWAP3 DUP4 SWAP1 MSTORE SWAP2 KECCAK256 DUP1 SLOAD PUSH1 0xFF NOT AND PUSH1 0x1 OR SWAP1 SSTORE SWAP1 POP DUP1 PUSH32 0xDC1A8FD80399FD11AC209F2989B373B9B70D8757D959D9DA86BE174269863689 DUP6 PUSH2 0x2BB DUP7 DUP1 PUSH2 0x56F JUMP JUMPDEST PUSH2 0x2C8 PUSH1 0x20 DUP10 ADD DUP10 PUSH2 0x56F JUMP JUMPDEST PUSH1 0x40 MLOAD PUSH2 0x2D9 SWAP6 SWAP5 SWAP4 SWAP3 SWAP2 SWAP1 PUSH2 0x5F2 JUMP JUMPDEST PUSH1 0x40 MLOAD DUP1 SWAP2 SUB SWAP1 LOG2 SWAP4 SWAP3 POP POP POP JUMP JUMPDEST DUP1 CALLDATALOAD PUSH8 0xFFFFFFFFFFFFFFFF DUP2 AND DUP2 EQ PUSH2 0x2FF JUMPI PUSH0 DUP1 REVERT JUMPDEST SWAP2 SWAP1 POP JUMP JUMPDEST PUSH0 PUSH1 0xA0 DUP3 DUP5 SUB SLT ISZERO PUSH2 0x314 JUMPI PUSH0 DUP1 REVERT JUMPDEST POP SWAP2 SWAP1 POP JUMP JUMPDEST PUSH0 DUP1 PUSH1 0x40 DUP4 DUP6 SUB SLT ISZERO PUSH2 0x32B JUMPI PUSH0 DUP1 REVERT JUMPDEST PUSH2 0x334 DUP4 PUSH2 0x2E8 JUMP JUMPDEST SWAP2 POP PUSH1 0x20 DUP4 ADD CALLDATALOAD PUSH8 0xFFFFFFFFFFFFFFFF DUP2 GT ISZERO PUSH2 0x34F JUMPI PUSH0 DUP1 REVERT JUMPDEST PUSH2 0x35B DUP6 DUP3 DUP7 ADD PUSH2 0x304 JUMP JUMPDEST SWAP2 POP POP SWAP3 POP SWAP3 SWAP1 POP JUMP JUMPDEST DUP1 CALLDATALOAD PUSH1 0x1 PUSH1 0x1 PUSH1 0xA0 SHL SUB DUP2 AND DUP2 EQ PUSH2 0x2FF JUMPI PUSH0 DUP1 REVERT JUMPDEST PUSH0 DUP1 PUSH1 0x40 DUP4 DUP6 SUB SLT ISZERO PUSH2 0x38C JUMPI PUSH0 DUP1 REVERT JUMPDEST PUSH2 0x334 DUP4 PUSH2 0x365 JUMP JUMPDEST PUSH0 PUSH1 0x20 DUP3 DUP5 SUB SLT ISZERO PUSH2 0x3A5 JUMPI PUSH0 DUP1 REVERT JUMPDEST POP CALLDATALOAD SWAP2 SWAP1 POP JUMP JUMPDEST PUSH0 DUP1 DUP4 CALLDATALOAD PUSH1 0x1E NOT DUP5 CALLDATASIZE SUB ADD DUP2 SLT PUSH2 0x3C1 JUMPI PUSH0 DUP1 REVERT JUMPDEST DUP4 ADD PUSH1 0x20 DUP2 ADD SWAP3 POP CALLDATALOAD SWAP1 POP PUSH8 0xFFFFFFFFFFFFFFFF DUP2 GT ISZERO PUSH2 0x3E0 JUMPI PUSH0 DUP1 REVERT JUMPDEST DUP1 CALLDATASIZE SUB DUP3 SGT ISZERO PUSH2 0x3EE JUMPI PUSH0 DUP1 REVERT JUMPDEST SWAP3 POP SWAP3 SWAP1 POP JUMP JUMPDEST DUP2 DUP4 MSTORE DUP2 DUP2 PUSH1 0x20 DUP6 ADD CALLDATACOPY POP PUSH0 DUP3 DUP3 ADD PUSH1 0x20 SWAP1 DUP2 ADD SWAP2 SWAP1 SWAP2 MSTORE PUSH1 0x1F SWAP1 SWAP2 ADD PUSH1 0x1F NOT AND SWAP1 SWAP2 ADD ADD SWAP1 JUMP JUMPDEST DUP2 DUP4 MSTORE PUSH0 PUSH1 0x20 DUP1 DUP6 ADD SWAP5 POP DUP3 PUSH0 JUMPDEST DUP6 DUP2 LT ISZERO PUSH2 0x461 JUMPI PUSH1 0x1 PUSH1 0x1 PUSH1 0xA0 SHL SUB PUSH2 0x444 DUP4 PUSH2 0x365 JUMP JUMPDEST AND DUP8 MSTORE DUP2 DUP4 ADD CALLDATALOAD DUP4 DUP9 ADD MSTORE PUSH1 0x40 SWAP7 DUP8 ADD SWAP7 SWAP1 SWAP2 ADD SWAP1 PUSH1 0x1 ADD PUSH2 0x42B JUMP JUMPDEST POP SWAP5 SWAP6 SWAP5 POP POP POP POP POP JUMP JUMPDEST PUSH1 0x20 DUP2 MSTORE DUP2 CALLDATALOAD PUSH1 0x20 DUP3 ADD MSTORE PUSH0 PUSH2 0x484 PUSH1 0x20 DUP5 ADD PUSH2 0x2E8 JUMP JUMPDEST PUSH8 0xFFFFFFFFFFFFFFFF DUP1 DUP3 AND PUSH1 0x40 DUP6 ADD MSTORE PUSH2 0x4A2 PUSH1 0x40 DUP7 ADD DUP7 PUSH2 0x3AC JUMP JUMPDEST SWAP3 POP PUSH1 0xA0 PUSH1 0x60 DUP7 ADD MSTORE PUSH2 0x4B9 PUSH1 0xC0 DUP7 ADD DUP5 DUP4 PUSH2 0x3F5 JUMP JUMPDEST SWAP3 POP POP PUSH2 0x4C9 PUSH1 0x60 DUP7 ADD DUP7 PUSH2 0x3AC JUMP JUMPDEST PUSH1 0x1F NOT DUP1 DUP8 DUP7 SUB ADD PUSH1 0x80 DUP9 ADD MSTORE PUSH2 0x4E1 DUP6 DUP4 DUP6 PUSH2 0x3F5 JUMP JUMPDEST SWAP5 POP PUSH1 0x80 DUP9 ADD CALLDATALOAD SWAP3 POP PUSH1 0x1E NOT DUP9 CALLDATASIZE SUB ADD DUP4 SLT PUSH2 0x4FB JUMPI PUSH0 DUP1 REVERT JUMPDEST PUSH1 0x20 SWAP3 DUP9 ADD SWAP3 DUP4 ADD SWAP3 CALLDATALOAD SWAP2 POP DUP4 DUP3 GT ISZERO PUSH2 0x513 JUMPI PUSH0 DUP1 REVERT JUMPDEST DUP2 PUSH1 0x6 SHL CALLDATASIZE SUB DUP4 SGT ISZERO PUSH2 0x524 JUMPI PUSH0 DUP1 REVERT JUMPDEST DUP7 DUP6 SUB ADD PUSH1 0xA0 DUP8 ADD MSTORE PUSH2 0x538 DUP5 DUP3 DUP5 PUSH2 0x41D JUMP JUMPDEST SWAP8 SWAP7 POP POP POP POP POP POP POP JUMP JUMPDEST PUSH0 DUP3 MLOAD PUSH0 JUMPDEST DUP2 DUP2 LT ISZERO PUSH2 0x562 JUMPI PUSH1 0x20 DUP2 DUP7 ADD DUP2 ADD MLOAD DUP6 DUP4 ADD MSTORE ADD PUSH2 0x548 JUMP JUMPDEST POP PUSH0 SWAP3 ADD SWAP2 DUP3 MSTORE POP SWAP2 SWAP1 POP JUMP JUMPDEST PUSH0 DUP1 DUP4 CALLDATALOAD PUSH1 0x1E NOT DUP5 CALLDATASIZE SUB ADD DUP2 SLT PUSH2 0x584 JUMPI PUSH0 DUP1 REVERT JUMPDEST DUP4 ADD DUP1 CALLDATALOAD SWAP2 POP PUSH8 0xFFFFFFFFFFFFFFFF DUP3 GT ISZERO PUSH2 0x59E JUMPI PUSH0 DUP1 REVERT JUMPDEST PUSH1 0x20 ADD SWAP2 POP CALLDATASIZE DUP2 SWAP1 SUB DUP3 SGT ISZERO PUSH2 0x3EE JUMPI PUSH0 DUP1 REVERT JUMPDEST PUSH1 0xC0 DUP8 SWAP1 SHL PUSH1 0x1 PUSH1 0x1 PUSH1 0xC0 SHL SUB NOT AND DUP2 MSTORE DUP5 DUP7 PUSH1 0x8 DUP4 ADD CALLDATACOPY PUSH0 DUP6 DUP3 ADD PUSH1 0x8 DUP2 ADD PUSH0 DUP2 MSTORE DUP6 DUP8 DUP3 CALLDATACOPY POP PUSH1 0x8 SWAP5 ADD SWAP4 DUP5 ADD SWAP3 SWAP1 SWAP3 MSTORE POP POP PUSH1 0x28 ADD SWAP5 SWAP4 POP POP POP POP JUMP JUMPDEST PUSH8 0xFFFFFFFFFFFFFFFF DUP7 AND DUP2 MSTORE PUSH1 0x60 PUSH1 0x20 DUP3 ADD MSTORE PUSH0 PUSH2 0x615 PUSH1 0x60 DUP4 ADD DUP7 DUP9 PUSH2 0x3F5 JUMP JUMPDEST DUP3 DUP2 SUB PUSH1 0x40 DUP5 ADD MSTORE PUSH2 0x628 DUP2 DUP6 DUP8 PUSH2 0x3F5 JUMP JUMPDEST SWAP9 SWAP8 POP POP POP POP POP POP POP POP JUMP INVALID LOG2 PUSH5 0x6970667358 0x22 SLT KECCAK256 PUSH25 0x9D91D82B6234BEF33C8E9BCAEA0D9989EC57BE7C607430706 0x4F CODESIZE DUP7 NOT SMOD DUP12 PUSH5 0x736F6C6343 STOP ADDMOD XOR STOP CALLER "},"methodIdentifiers":{"ccipSend(uint64,(bytes,bytes,(address,uint256)[],address,bytes))":"96f4e9f9","deliverMessage(address,(bytes32,uint64,bytes,bytes,(address,uint256)[]))":"6521c1e0","fee()":"ddca3f43","getFee(uint64,(bytes,bytes,(address,uint256)[],address,bytes))":"20487ded","processedMessages(bytes32)":"88ba16ab"}}}}}