{
  "_format": "hh-sol-artifact-1",
  "contractName": "LPVault",
  "sourceName": "contracts/LPVault.sol",
  "abi": [
    {
      "inputs": [
        {
          "internalType": "address",
          "name": "_pyusd",
          "type": "address"
        },
        {
          "internalType": "address",
          "name": "_ccipRouter",
          "type": "address"
        },
        {
          "internalType": "address",
          "name": "_owner",
          "type": "address"
        }
      ],
      "stateMutability": "nonpayable",
      "type": "constructor"
    },
    {
      "inputs": [],
      "name": "CooldownNotFinished",
      "type": "error"
    },
    {
      "inputs": [],
      "name": "InvalidDestinationChain",
      "type": "error"
    },
    {
      "inputs": [],
      "name": "InvalidReceiverAddress",
      "type": "error"
    },
    {
      "inputs": [],
      "name": "InvalidShares",
      "type": "error"
    },
    {
      "inputs": [
        {
          "internalType": "uint64",
          "name": "destinationChainSelector",
          "type": "uint64"
        }
      ],
      "name": "NoGasLimitOnDestinationChain",
      "type": "error"
    },
    {
      "inputs": [],
      "name": "NoPendingWithdraw",
      "type": "error"
    },
    {
      "inputs": [
        {
          "internalType": "uint64",
          "name": "destinationChainSelector",
          "type": "uint64"
        }
      ],
      "name": "NoReceiverOnDestinationChain",
      "type": "error"
    },
    {
      "inputs": [
        {
          "internalType": "uint256",
          "name": "currentBalance",
          "type": "uint256"
        },
        {
          "internalType": "uint256",
          "name": "calculatedFees",
          "type": "uint256"
        }
      ],
      "name": "NotEnoughBalance",
      "type": "error"
    },
    {
      "inputs": [
        {
          "internalType": "address",
          "name": "owner",
          "type": "address"
        }
      ],
      "name": "OwnableInvalidOwner",
      "type": "error"
    },
    {
      "inputs": [
        {
          "internalType": "address",
          "name": "account",
          "type": "address"
        }
      ],
      "name": "OwnableUnauthorizedAccount",
      "type": "error"
    },
    {
      "inputs": [],
      "name": "ReentrancyGuardReentrantCall",
      "type": "error"
    },
    {
      "inputs": [
        {
          "internalType": "address",
          "name": "token",
          "type": "address"
        }
      ],
      "name": "SafeERC20FailedOperation",
      "type": "error"
    },
    {
      "inputs": [],
      "name": "ZeroAddress",
      "type": "error"
    },
    {
      "inputs": [],
      "name": "ZeroAmount",
      "type": "error"
    },
    {
      "anonymous": false,
      "inputs": [
        {
          "indexed": true,
          "internalType": "address",
          "name": "lp",
          "type": "address"
        },
        {
          "indexed": false,
          "internalType": "uint256",
          "name": "amount",
          "type": "uint256"
        },
        {
          "indexed": false,
          "internalType": "uint256",
          "name": "shares",
          "type": "uint256"
        }
      ],
      "name": "Deposit",
      "type": "event"
    },
    {
      "anonymous": false,
      "inputs": [
        {
          "indexed": true,
          "internalType": "address",
          "name": "lp",
          "type": "address"
        },
        {
          "indexed": false,
          "internalType": "uint256",
          "name": "shares",
          "type": "uint256"
        },
        {
          "indexed": false,
          "internalType": "uint256",
          "name": "amount",
          "type": "uint256"
        }
      ],
      "name": "FinalizeWithdraw",
      "type": "event"
    },
    {
      "anonymous": false,
      "inputs": [
        {
          "indexed": false,
          "internalType": "uint64",
          "name": "destinationChainSelector",
          "type": "uint64"
        },
        {
          "indexed": false,
          "internalType": "uint256",
          "name": "gasLimit",
          "type": "uint256"
        }
      ],
      "name": "GasLimitSet",
      "type": "event"
    },
    {
      "anonymous": false,
      "inputs": [
        {
          "indexed": true,
          "internalType": "address",
          "name": "previousOwner",
          "type": "address"
        },
        {
          "indexed": true,
          "internalType": "address",
          "name": "newOwner",
          "type": "address"
        }
      ],
      "name": "OwnershipTransferred",
      "type": "event"
    },
    {
      "anonymous": false,
      "inputs": [
        {
          "indexed": false,
          "internalType": "uint64",
          "name": "destinationChainSelector",
          "type": "uint64"
        },
        {
          "indexed": false,
          "internalType": "address",
          "name": "receiver",
          "type": "address"
        }
      ],
      "name": "ReceiverSet",
      "type": "event"
    },
    {
      "anonymous": false,
      "inputs": [
        {
          "indexed": true,
          "internalType": "address",
          "name": "lp",
          "type": "address"
        },
        {
          "indexed": false,
          "internalType": "uint256",
          "name": "shares",
          "type": "uint256"
        },
        {
          "indexed": false,
          "internalType": "uint256",
          "name": "unlockTime",
          "type": "uint256"
        }
      ],
      "name": "RequestWithdraw",
      "type": "event"
    },
    {
      "anonymous": false,
      "inputs": [
        {
          "indexed": true,
          "internalType": "address",
          "name": "lp",
          "type": "address"
        },
        {
          "indexed": false,
          "internalType": "uint256",
          "name": "shares",
          "type": "uint256"
        },
        {
          "indexed": false,
          "internalType": "uint256",
          "name": "lockedUntil",
          "type": "uint256"
        }
      ],
      "name": "SyncToHedera",
      "type": "event"
    },
    {
      "inputs": [],
      "name": "COOLDOWN",
      "outputs": [
        {
          "internalType": "uint256",
          "name": "",
          "type": "uint256"
        }
      ],
      "stateMutability": "view",
      "type": "function"
    },
    {
      "inputs": [],
      "name": "PYUSD",
      "outputs": [
        {
          "internalType": "contract IERC20",
          "name": "",
          "type": "address"
        }
      ],
      "stateMutability": "view",
      "type": "function"
    },
    {
      "inputs": [
        {
          "internalType": "uint256",
          "name": "amount",
          "type": "uint256"
        }
      ],
      "name": "deposit",
      "outputs": [],
      "stateMutability": "nonpayable",
      "type": "function"
    },
    {
      "inputs": [],
      "name": "finalizeWithdraw",
      "outputs": [],
      "stateMutability": "nonpayable",
      "type": "function"
    },
    {
      "inputs": [
        {
          "internalType": "uint64",
          "name": "",
          "type": "uint64"
        }
      ],
      "name": "gasLimits",
      "outputs": [
        {
          "internalType": "uint256",
          "name": "",
          "type": "uint256"
        }
      ],
      "stateMutability": "view",
      "type": "function"
    },
    {
      "inputs": [],
      "name": "owner",
      "outputs": [
        {
          "internalType": "address",
          "name": "",
          "type": "address"
        }
      ],
      "stateMutability": "view",
      "type": "function"
    },
    {
      "inputs": [
        {
          "internalType": "uint64",
          "name": "",
          "type": "uint64"
        }
      ],
      "name": "receivers",
      "outputs": [
        {
          "internalType": "address",
          "name": "",
          "type": "address"
        }
      ],
      "stateMutability": "view",
      "type": "function"
    },
    {
      "inputs": [],
      "name": "renounceOwnership",
      "outputs": [],
      "stateMutability": "nonpayable",
      "type": "function"
    },
    {
      "inputs": [
        {
          "internalType": "uint256",
          "name": "shares",
          "type": "uint256"
        }
      ],
      "name": "requestWithdraw",
      "outputs": [],
      "stateMutability": "nonpayable",
      "type": "function"
    },
    {
      "inputs": [],
      "name": "router",
      "outputs": [
        {
          "internalType": "contract IRouterClient",
          "name": "",
          "type": "address"
        }
      ],
      "stateMutability": "view",
      "type": "function"
    },
    {
      "inputs": [
        {
          "internalType": "uint64",
          "name": "destinationChainSelector",
          "type": "uint64"
        },
        {
          "internalType": "uint256",
          "name": "gasLimit",
          "type": "uint256"
        }
      ],
      "name": "setGasLimit",
      "outputs": [],
      "stateMutability": "nonpayable",
      "type": "function"
    },
    {
      "inputs": [
        {
          "internalType": "uint64",
          "name": "destinationChainSelector",
          "type": "uint64"
        },
        {
          "internalType": "address",
          "name": "receiver",
          "type": "address"
        }
      ],
      "name": "setReceiver",
      "outputs": [],
      "stateMutability": "nonpayable",
      "type": "function"
    },
    {
      "inputs": [
        {
          "internalType": "address",
          "name": "",
          "type": "address"
        }
      ],
      "name": "stakes",
      "outputs": [
        {
          "internalType": "uint256",
          "name": "shares",
          "type": "uint256"
        },
        {
          "internalType": "uint256",
          "name": "lockedUntil",
          "type": "uint256"
        }
      ],
      "stateMutability": "view",
      "type": "function"
    },
    {
      "inputs": [],
      "name": "totalShares",
      "outputs": [
        {
          "internalType": "uint256",
          "name": "",
          "type": "uint256"
        }
      ],
      "stateMutability": "view",
      "type": "function"
    },
    {
      "inputs": [
        {
          "internalType": "address",
          "name": "newOwner",
          "type": "address"
        }
      ],
      "name": "transferOwnership",
      "outputs": [],
      "stateMutability": "nonpayable",
      "type": "function"
    },
    {
      "inputs": [
        {
          "internalType": "address",
          "name": "",
          "type": "address"
        }
      ],
      "name": "withdrawQueue",
      "outputs": [
        {
          "internalType": "uint256",
          "name": "shares",
          "type": "uint256"
        },
        {
          "internalType": "uint256",
          "name": "unlockTimestamp",
          "type": "uint256"
        }
      ],
      "stateMutability": "view",
      "type": "function"
    },
    {
      "stateMutability": "payable",
      "type": "receive"
    }
  ],
  "bytecode": "0x60c06040523480156200001157600080fd5b50604051620013b3380380620013b3833981016040819052620000349162000172565b806001600160a01b0381166200006457604051631e4fbdf760e01b81526000600482015260240160405180910390fd5b6200006f8162000105565b50600180556001600160a01b0383166200009c5760405163d92e233d60e01b815260040160405180910390fd5b6001600160a01b038216620000c45760405163d92e233d60e01b815260040160405180910390fd5b6001600160a01b038116620000ec5760405163d92e233d60e01b815260040160405180910390fd5b506001600160a01b039182166080521660a052620001bc565b600080546001600160a01b038381166001600160a01b0319831681178455604051919092169283917f8be0079c531659141344cd1fd0a4f28419497f9722a3daafe3b4186f6b6457e09190a35050565b80516001600160a01b03811681146200016d57600080fd5b919050565b6000806000606084860312156200018857600080fd5b620001938462000155565b9250620001a36020850162000155565b9150620001b36040850162000155565b90509250925092565b60805160a0516111a76200020c6000396000818161033101528181610be20152610c9d01526000818161023901528181610419015281816104ee0152818161069d01526106ed01526111a76000f3fe6080604052600436106100f75760003560e01c8063a2724a4d1161008a578063f0b9b6c411610059578063f0b9b6c4146102d2578063f2fde38b146102ff578063f887ea401461031f578063fbaa1fa41461035357600080fd5b8063a2724a4d1461025b578063b6b55f2514610272578063dc250dbb14610292578063efac2a7c146102b257600080fd5b8063745400c9116100c6578063745400c9146101a15780638da5cb5b146101c157806390ab8d1f146101f35780639e19789d1461022757600080fd5b806316934fc41461010357806330fcc737146101515780633a98ef3914610168578063715018a61461018c57600080fd5b366100fe57005b600080fd5b34801561010f57600080fd5b5061013761011e366004610eef565b6002602052600090815260409020805460019091015482565b604080519283526020830191909152015b60405180910390f35b34801561015d57600080fd5b50610166610389565b005b34801561017457600080fd5b5061017e60035481565b604051908152602001610148565b34801561019857600080fd5b5061016661057b565b3480156101ad57600080fd5b506101666101bc366004610f11565b61058d565b3480156101cd57600080fd5b506000546001600160a01b03165b6040516001600160a01b039091168152602001610148565b3480156101ff57600080fd5b5061013761020e366004610eef565b6004602052600090815260409020805460019091015482565b34801561023357600080fd5b506101db7f000000000000000000000000000000000000000000000000000000000000000081565b34801561026757600080fd5b5061017e6201518081565b34801561027e57600080fd5b5061016661028d366004610f11565b610667565b34801561029e57600080fd5b506101666102ad366004610f42565b610828565b3480156102be57600080fd5b506101666102cd366004610f6c565b6108e7565b3480156102de57600080fd5b5061017e6102ed366004610f9f565b60066020526000908152604090205481565b34801561030b57600080fd5b5061016661031a366004610eef565b6109ab565b34801561032b57600080fd5b506101db7f000000000000000000000000000000000000000000000000000000000000000081565b34801561035f57600080fd5b506101db61036e366004610f9f565b6005602052600090815260409020546001600160a01b031681565b6103916109e6565b33600090815260046020526040902060018101544210156103c45760405162ea2d0d60e51b815260040160405180910390fd5b80546000036103e657604051637b7e3ed560e11b815260040160405180910390fd5b3360009081526002602052604080822060035491516370a0823160e01b8152306004820152909291906001600160a01b037f000000000000000000000000000000000000000000000000000000000000000016906370a0823190602401602060405180830381865afa158015610460573d6000803e3d6000fd5b505050506040513d601f19601f820116820180604052508101906104849190610fba565b84546104909190610fe9565b61049a9190611006565b905082600001548260000160008282546104b49190611028565b90915550508254600380546000906104cd908490611028565b90915550503360008181526004602052604081208181556001015561051d907f00000000000000000000000000000000000000000000000000000000000000006001600160a01b03169083610a10565b8254604080519182526020820183905233917fa26fc3de36929e1514341455433d2c48709aaafaac9d8f89c0ccbccc09d756cd910160405180910390a261056d3383600001548460010154610a74565b50505061057960018055565b565b610583610d69565b6105796000610d96565b6105956109e6565b3360009081526002602052604090208115806105b15750805482115b156105cf57604051636edcc52360e01b815260040160405180910390fd5b604051806040016040528083815260200162015180426105ef919061103b565b9052336000818152600460209081526040909120835181559201516001909201919091557febeaa8785285a4f7c37a305351997dceebabc3c357dab98023dc37514a1b6ed683610642620151804261103b565b6040805192835260208301919091520160405180910390a25061066460018055565b50565b61066f6109e6565b8060000361069057604051631f2a200560e01b815260040160405180910390fd5b6106c56001600160a01b037f000000000000000000000000000000000000000000000000000000000000000016333084610de6565b60006003546000036106d857508061077a565b6040516370a0823160e01b81523060048201527f00000000000000000000000000000000000000000000000000000000000000006001600160a01b0316906370a0823190602401602060405180830381865afa15801561073c573d6000803e3d6000fd5b505050506040513d601f19601f820116820180604052508101906107609190610fba565b60035461076d9084610fe9565b6107779190611006565b90505b33600090815260026020526040812080549091839183919061079d90849061103b565b909155506107b09050620151804261103b565b816001018190555081600360008282546107ca919061103b565b9091555050604080518481526020810184905233917f90890809c654f11d6e72a28fa60149770a0d11ec6c92319d6ceb2bb0a4ea1a15910160405180910390a261081d3382600001548360010154610a74565b505061066460018055565b610830610d69565b8167ffffffffffffffff1660000361085b5760405163b86ac1ef60e01b815260040160405180910390fd5b8060000361088d5760405163b638ee9f60e01b815267ffffffffffffffff831660048201526024015b60405180910390fd5b67ffffffffffffffff8216600081815260066020908152604091829020849055815192835282018390527f92cf3fbb447f2729b357d4e0ab3781c426b83f3a2e5329a4b394ea5718ae0bc491015b60405180910390a15050565b6108ef610d69565b8167ffffffffffffffff1660000361091a5760405163b86ac1ef60e01b815260040160405180910390fd5b6001600160a01b0381166109415760405163502ffa3f60e11b815260040160405180910390fd5b67ffffffffffffffff821660008181526005602090815260409182902080546001600160a01b0319166001600160a01b0386169081179091558251938452908301527f291689eb8100e4e7dd36e2ea308963360cdb6d3451d662194ac9d3f52f518d9791016108db565b6109b3610d69565b6001600160a01b0381166109dd57604051631e4fbdf760e01b815260006004820152602401610884565b61066481610d96565b600260015403610a0957604051633ee5aeb560e01b815260040160405180910390fd5b6002600155565b6040516001600160a01b03838116602483015260448201839052610a6f91859182169063a9059cbb906064015b604051602081830303815290604052915060e01b6020820180516001600160e01b038381831617835250505050610e25565b505050565b6001600081905260056020527f1471eb6eb2c5e789fc3de43f8ce62938c7d1836ec861730447e2ada8fd81017b546001600160a01b031680610ab7575050505050565b67ffffffffffffffff821660009081526006602052604081205490819003610ae157505050505050565b604080516001600160a01b03881660208201529081018690526060810185905260009060800160408051808303601f1901815260a083019091526001600160a01b03851660c083015291506000908060e0810160408051808303601f190181529181529082526020808301869052815160008082529181018352929091019190610b8d565b6040805180820190915260008082526020820152815260200190600190039081610b665790505b50815260200160006001600160a01b03168152602001610bc3604051806040016040528087815260200160011515815250610e96565b90526040516320487ded60e01b81529091506000906001600160a01b037f000000000000000000000000000000000000000000000000000000000000000016906320487ded90610c199089908690600401611094565b602060405180830381865afa158015610c36573d6000803e3d6000fd5b505050506040513d601f19601f82011682018060405250810190610c5a9190610fba565b905080471015610c8657604051634787a10360e11b815247600482015260248101829052604401610884565b6040516396f4e9f960e01b81526001600160a01b037f000000000000000000000000000000000000000000000000000000000000000016906396f4e9f9908390610cd6908a908790600401611094565b60206040518083038185885af1158015610cf4573d6000803e3d6000fd5b50505050506040513d601f19601f82011682018060405250810190610d199190610fba565b5060408051898152602081018990526001600160a01b038b16917f2de811bdaef09c5a8d60ae7a874697116dc46d6ec072aed09e6cec7548c320c9910160405180910390a2505050505050505050565b6000546001600160a01b031633146105795760405163118cdaa760e01b8152336004820152602401610884565b600080546001600160a01b038381166001600160a01b0319831681178455604051919092169283917f8be0079c531659141344cd1fd0a4f28419497f9722a3daafe3b4186f6b6457e09190a35050565b6040516001600160a01b038481166024830152838116604483015260648201839052610e1f9186918216906323b872dd90608401610a3d565b50505050565b600080602060008451602086016000885af180610e48576040513d6000823e3d81fd5b50506000513d91508115610e60578060011415610e6d565b6001600160a01b0384163b155b15610e1f57604051635274afe760e01b81526001600160a01b0385166004820152602401610884565b606081604051602001610ebd91908151815260209182015115159181019190915260400190565b6040516020818303038152906040529050919050565b80356001600160a01b0381168114610eea57600080fd5b919050565b600060208284031215610f0157600080fd5b610f0a82610ed3565b9392505050565b600060208284031215610f2357600080fd5b5035919050565b803567ffffffffffffffff81168114610eea57600080fd5b60008060408385031215610f5557600080fd5b610f5e83610f2a565b946020939093013593505050565b60008060408385031215610f7f57600080fd5b610f8883610f2a565b9150610f9660208401610ed3565b90509250929050565b600060208284031215610fb157600080fd5b610f0a82610f2a565b600060208284031215610fcc57600080fd5b5051919050565b634e487b7160e01b600052601160045260246000fd5b808202811582820484141761100057611000610fd3565b92915050565b60008261102357634e487b7160e01b600052601260045260246000fd5b500490565b8181038181111561100057611000610fd3565b8082018082111561100057611000610fd3565b6000815180845260005b8181101561107457602081850181015186830182015201611058565b506000602082860101526020601f19601f83011685010191505092915050565b6000604067ffffffffffffffff851683526020604081850152845160a060408601526110c360e086018261104e565b905081860151603f19808784030160608801526110e0838361104e565b6040890151888203830160808a01528051808352908601945060009350908501905b8084101561113457845180516001600160a01b0316835286015186830152938501936001939093019290860190611102565b5060608901516001600160a01b031660a08901526080890151888203830160c08a01529550611163818761104e565b9a995050505050505050505056fea2646970667358221220c65db979dee214b12d4a35dc36f8644b5ae038e15dcd55d8790e4159393221d964736f6c63430008180033",
  "linkReferences": {},
  "deployedLinkReferences": {}
}