{
  "_format": "hh3-artifact-1",
  "contractName": "MockCCIPRouter",
  "sourceName": "contracts/mocks/MockCCIPRouter.sol",
  "abi": [
    {
      "anonymous": false,
      "inputs": [
        {
          "indexed": true,
          "internalType": "bytes32",
          "name": "messageId",
          "type": "bytes32"
        },
        {
          "indexed": false,
          "internalType": "uint64",
          "name": "destinationChainSelector",
          "type": "uint64"
        },
        {
          "indexed": false,
          "internalType": "bytes",
          "name": "receiver",
          "type": "bytes"
        },
        {
          "indexed": false,
          "internalType": "bytes",
          "name": "data",
          "type": "bytes"
        }
      ],
      "name": "MessageSent",
      "type": "event"
    },
    {
      "inputs": [
        {
          "internalType": "uint64",
          "name": "destinationChainSelector",
          "type": "uint64"
        },
        {
          "components": [
            {
              "internalType": "bytes",
              "name": "receiver",
              "type": "bytes"
            },
            {
              "internalType": "bytes",
              "name": "data",
              "type": "bytes"
            },
            {
              "components": [
                {
                  "internalType": "address",
                  "name": "token",
                  "type": "address"
                },
                {
                  "internalType": "uint256",
                  "name": "amount",
                  "type": "uint256"
                }
              ],
              "internalType": "struct Client.EVMTokenAmount[]",
              "name": "tokenAmounts",
              "type": "tuple[]"
            },
            {
              "internalType": "address",
              "name": "feeToken",
              "type": "address"
            },
            {
              "internalType": "bytes",
              "name": "extraArgs",
              "type": "bytes"
            }
          ],
          "internalType": "struct Client.EVM2AnyMessage",
          "name": "message",
          "type": "tuple"
        }
      ],
      "name": "ccipSend",
      "outputs": [
        {
          "internalType": "bytes32",
          "name": "",
          "type": "bytes32"
        }
      ],
      "stateMutability": "payable",
      "type": "function"
    },
    {
      "inputs": [
        {
          "internalType": "address",
          "name": "receiver",
          "type": "address"
        },
        {
          "components": [
            {
              "internalType": "bytes32",
              "name": "messageId",
              "type": "bytes32"
            },
            {
              "internalType": "uint64",
              "name": "sourceChainSelector",
              "type": "uint64"
            },
            {
              "internalType": "bytes",
              "name": "sender",
              "type": "bytes"
            },
            {
              "internalType": "bytes",
              "name": "data",
              "type": "bytes"
            },
            {
              "components": [
                {
                  "internalType": "address",
                  "name": "token",
                  "type": "address"
                },
                {
                  "internalType": "uint256",
                  "name": "amount",
                  "type": "uint256"
                }
              ],
              "internalType": "struct Client.EVMTokenAmount[]",
              "name": "destTokenAmounts",
              "type": "tuple[]"
            }
          ],
          "internalType": "struct Client.Any2EVMMessage",
          "name": "message",
          "type": "tuple"
        }
      ],
      "name": "deliverMessage",
      "outputs": [],
      "stateMutability": "nonpayable",
      "type": "function"
    },
    {
      "inputs": [],
      "name": "fee",
      "outputs": [
        {
          "internalType": "uint256",
          "name": "",
          "type": "uint256"
        }
      ],
      "stateMutability": "view",
      "type": "function"
    },
    {
      "inputs": [
        {
          "internalType": "uint64",
          "name": "destinationChainSelector",
          "type": "uint64"
        },
        {
          "components": [
            {
              "internalType": "bytes",
              "name": "receiver",
              "type": "bytes"
            },
            {
              "internalType": "bytes",
              "name": "data",
              "type": "bytes"
            },
            {
              "components": [
                {
                  "internalType": "address",
                  "name": "token",
                  "type": "address"
                },
                {
                  "internalType": "uint256",
                  "name": "amount",
                  "type": "uint256"
                }
              ],
              "internalType": "struct Client.EVMTokenAmount[]",
              "name": "tokenAmounts",
              "type": "tuple[]"
            },
            {
              "internalType": "address",
              "name": "feeToken",
              "type": "address"
            },
            {
              "internalType": "bytes",
              "name": "extraArgs",
              "type": "bytes"
            }
          ],
          "internalType": "struct Client.EVM2AnyMessage",
          "name": "message",
          "type": "tuple"
        }
      ],
      "name": "getFee",
      "outputs": [
        {
          "internalType": "uint256",
          "name": "",
          "type": "uint256"
        }
      ],
      "stateMutability": "view",
      "type": "function"
    },
    {
      "inputs": [
        {
          "internalType": "bytes32",
          "name": "",
          "type": "bytes32"
        }
      ],
      "name": "processedMessages",
      "outputs": [
        {
          "internalType": "bool",
          "name": "",
          "type": "bool"
        }
      ],
      "stateMutability": "view",
      "type": "function"
    }
  ],
  "bytecode": "0x6080604052662386f26fc1000060015534801561001a575f80fd5b50610d3c806100285f395ff3fe608060405260043610610049575f3560e01c806320487ded1461004d5780636521c1e01461008957806388ba16ab146100b157806396f4e9f9146100ed578063ddca3f431461011d575b5f80fd5b348015610058575f80fd5b50610073600480360381019061006e9190610438565b610147565b60405161008091906104aa565b60405180910390f35b348015610094575f80fd5b506100af60048036038101906100aa919061053b565b610153565b005b3480156100bc575f80fd5b506100d760048036038101906100d291906105c8565b61028d565b6040516100e4919061060d565b60405180910390f35b61010760048036038101906101029190610438565b6102a9565b6040516101149190610635565b60405180910390f35b348015610128575f80fd5b506101316103cb565b60405161013e91906104aa565b60405180910390f35b5f600154905092915050565b5f8273ffffffffffffffffffffffffffffffffffffffff168260405160240161017c91906109c3565b6040516020818303038152906040527f85572ffb000000000000000000000000000000000000000000000000000000007bffffffffffffffffffffffffffffffffffffffffffffffffffffffff19166020820180517bffffffffffffffffffffffffffffffffffffffffffffffffffffffff83818316178352505050506040516102069190610a4f565b5f604051808303815f865af19150503d805f811461023f576040519150601f19603f3d011682016040523d82523d5f602084013e610244565b606091505b5050905080610288576040517f08c379a000000000000000000000000000000000000000000000000000000000815260040161027f90610abf565b60405180910390fd5b505050565b5f602052805f5260405f205f915054906101000a900460ff1681565b5f6001543410156102ef576040517f08c379a00000000000000000000000000000000000000000000000000000000081526004016102e690610b27565b60405180910390fd5b5f8383805f01906103009190610b51565b8580602001906103109190610b51565b4260405160200161032696959493929190610c2b565b60405160208183030381529060405280519060200120905060015f808381526020019081526020015f205f6101000a81548160ff021916908315150217905550807fdc1a8fd80399fd11ac209f2989b373b9b70d8757d959d9da86be1742698636898585805f01906103989190610b51565b8780602001906103a89190610b51565b6040516103b9959493929190610cbf565b60405180910390a28091505092915050565b60015481565b5f80fd5b5f80fd5b5f67ffffffffffffffff82169050919050565b6103f5816103d9565b81146103ff575f80fd5b50565b5f81359050610410816103ec565b92915050565b5f80fd5b5f60a0828403121561042f5761042e610416565b5b81905092915050565b5f806040838503121561044e5761044d6103d1565b5b5f61045b85828601610402565b925050602083013567ffffffffffffffff81111561047c5761047b6103d5565b5b6104888582860161041a565b9150509250929050565b5f819050919050565b6104a481610492565b82525050565b5f6020820190506104bd5f83018461049b565b92915050565b5f73ffffffffffffffffffffffffffffffffffffffff82169050919050565b5f6104ec826104c3565b9050919050565b6104fc816104e2565b8114610506575f80fd5b50565b5f81359050610517816104f3565b92915050565b5f60a0828403121561053257610531610416565b5b81905092915050565b5f8060408385031215610551576105506103d1565b5b5f61055e85828601610509565b925050602083013567ffffffffffffffff81111561057f5761057e6103d5565b5b61058b8582860161051d565b9150509250929050565b5f819050919050565b6105a781610595565b81146105b1575f80fd5b50565b5f813590506105c28161059e565b92915050565b5f602082840312156105dd576105dc6103d1565b5b5f6105ea848285016105b4565b91505092915050565b5f8115159050919050565b610607816105f3565b82525050565b5f6020820190506106205f8301846105fe565b92915050565b61062f81610595565b82525050565b5f6020820190506106485f830184610626565b92915050565b5f61065c60208401846105b4565b905092915050565b61066d81610595565b82525050565b5f6106816020840184610402565b905092915050565b610692816103d9565b82525050565b5f80fd5b5f80fd5b5f80fd5b5f80833560016020038436030381126106c0576106bf6106a0565b5b83810192508235915060208301925067ffffffffffffffff8211156106e8576106e7610698565b5b6001820236038313156106fe576106fd61069c565b5b509250929050565b5f82825260208201905092915050565b828183375f83830152505050565b5f601f19601f8301169050919050565b5f61073f8385610706565b935061074c838584610716565b61075583610724565b840190509392505050565b5f808335600160200384360303811261077c5761077b6106a0565b5b83810192508235915060208301925067ffffffffffffffff8211156107a4576107a3610698565b5b6040820236038313156107ba576107b961069c565b5b509250929050565b5f82825260208201905092915050565b5f819050919050565b5f6107e96020840184610509565b905092915050565b6107fa816104e2565b82525050565b61080981610492565b8114610813575f80fd5b50565b5f8135905061082481610800565b92915050565b5f6108386020840184610816565b905092915050565b61084981610492565b82525050565b6040820161085f5f8301836107db565b61086b5f8501826107f1565b50610879602083018361082a565b6108866020850182610840565b50505050565b5f610897838361084f565b60408301905092915050565b5f82905092915050565b5f604082019050919050565b5f6108c483856107c2565b93506108cf826107d2565b805f5b85811015610907576108e482846108a3565b6108ee888261088c565b97506108f9836108ad565b9250506001810190506108d2565b5085925050509392505050565b5f60a083016109255f84018461064e565b6109315f860182610664565b5061093f6020840184610673565b61094c6020860182610689565b5061095a60408401846106a4565b858303604087015261096d838284610734565b9250505061097e60608401846106a4565b8583036060870152610991838284610734565b925050506109a26080840184610760565b85830360808701526109b58382846108b9565b925050508091505092915050565b5f6020820190508181035f8301526109db8184610914565b905092915050565b5f81519050919050565b5f81905092915050565b5f5b83811015610a145780820151818401526020810190506109f9565b5f8484015250505050565b5f610a29826109e3565b610a3381856109ed565b9350610a438185602086016109f7565b80840191505092915050565b5f610a5a8284610a1f565b915081905092915050565b5f82825260208201905092915050565b7f434349502064656c6976657279206661696c65640000000000000000000000005f82015250565b5f610aa9601483610a65565b9150610ab482610a75565b602082019050919050565b5f6020820190508181035f830152610ad681610a9d565b9050919050565b7f496e73756666696369656e7420666565000000000000000000000000000000005f82015250565b5f610b11601083610a65565b9150610b1c82610add565b602082019050919050565b5f6020820190508181035f830152610b3e81610b05565b9050919050565b5f80fd5b5f80fd5b5f80fd5b5f8083356001602003843603038112610b6d57610b6c610b45565b5b80840192508235915067ffffffffffffffff821115610b8f57610b8e610b49565b5b602083019250600182023603831315610bab57610baa610b4d565b5b509250929050565b5f8160c01b9050919050565b5f610bc982610bb3565b9050919050565b610be1610bdc826103d9565b610bbf565b82525050565b5f610bf283856109ed565b9350610bff838584610716565b82840190509392505050565b5f819050919050565b610c25610c2082610492565b610c0b565b82525050565b5f610c368289610bd0565b600882019150610c47828789610be7565b9150610c54828587610be7565b9150610c608284610c14565b602082019150819050979650505050505050565b610c7d816103d9565b82525050565b5f82825260208201905092915050565b5f610c9e8385610c83565b9350610cab838584610716565b610cb483610724565b840190509392505050565b5f606082019050610cd25f830188610c74565b8181036020830152610ce5818688610c93565b90508181036040830152610cfa818486610c93565b9050969550505050505056fea26469706673582212200eac8e4bc1c0d0c6660d0f8200406e41d84bd292ddfbf87103738ef8c2d7173264736f6c63430008180033",
  "linkReferences": {},
  "deployedLinkReferences": {},
  "immutableReferences": {},
  "inputSourceName": "project/contracts/mocks/MockCCIPRouter.sol",
  "buildInfoId": "solc-0_8_24-39504a4a25f856d89ece298a3bc10b3a6d134baf"
}