{
  "_format": "hh-sol-artifact-1",
  "contractName": "ClaimManager",
  "sourceName": "contracts/ClaimManager.sol",
  "abi": [
    {
      "inputs": [
        {
          "internalType": "address",
          "name": "_router",
          "type": "address"
        },
        {
          "internalType": "address",
          "name": "_votingMirror",
          "type": "address"
        },
        {
          "internalType": "address",
          "name": "_policyManager",
          "type": "address"
        },
        {
          "internalType": "address",
          "name": "_owner",
          "type": "address"
        }
      ],
      "stateMutability": "nonpayable",
      "type": "constructor"
    },
    {
      "inputs": [],
      "name": "AlreadyFinalized",
      "type": "error"
    },
    {
      "inputs": [],
      "name": "AlreadyVoted",
      "type": "error"
    },
    {
      "inputs": [],
      "name": "BadParams",
      "type": "error"
    },
    {
      "inputs": [
        {
          "internalType": "uint64",
          "name": "sel",
          "type": "uint64"
        }
      ],
      "name": "NoGasLimitForChain",
      "type": "error"
    },
    {
      "inputs": [
        {
          "internalType": "uint64",
          "name": "sel",
          "type": "uint64"
        }
      ],
      "name": "NotAllowlistedDest",
      "type": "error"
    },
    {
      "inputs": [
        {
          "internalType": "bytes",
          "name": "r",
          "type": "bytes"
        }
      ],
      "name": "NotAllowlistedReceiver",
      "type": "error"
    },
    {
      "inputs": [
        {
          "internalType": "uint256",
          "name": "have",
          "type": "uint256"
        },
        {
          "internalType": "uint256",
          "name": "need",
          "type": "uint256"
        }
      ],
      "name": "NotEnoughNative",
      "type": "error"
    },
    {
      "inputs": [],
      "name": "NotPolicyHolder",
      "type": "error"
    },
    {
      "inputs": [
        {
          "internalType": "address",
          "name": "owner",
          "type": "address"
        }
      ],
      "name": "OwnableInvalidOwner",
      "type": "error"
    },
    {
      "inputs": [
        {
          "internalType": "address",
          "name": "account",
          "type": "address"
        }
      ],
      "name": "OwnableUnauthorizedAccount",
      "type": "error"
    },
    {
      "inputs": [],
      "name": "ReentrancyGuardReentrantCall",
      "type": "error"
    },
    {
      "inputs": [],
      "name": "VoteWindowClosed",
      "type": "error"
    },
    {
      "anonymous": false,
      "inputs": [
        {
          "indexed": true,
          "internalType": "uint256",
          "name": "claimId",
          "type": "uint256"
        },
        {
          "indexed": false,
          "internalType": "bool",
          "name": "approved",
          "type": "bool"
        }
      ],
      "name": "ClaimFinalized",
      "type": "event"
    },
    {
      "anonymous": false,
      "inputs": [
        {
          "indexed": true,
          "internalType": "uint256",
          "name": "claimId",
          "type": "uint256"
        },
        {
          "indexed": true,
          "internalType": "bytes32",
          "name": "policyId",
          "type": "bytes32"
        },
        {
          "indexed": true,
          "internalType": "address",
          "name": "claimant",
          "type": "address"
        },
        {
          "indexed": false,
          "internalType": "uint256",
          "name": "amount",
          "type": "uint256"
        }
      ],
      "name": "ClaimOpened",
      "type": "event"
    },
    {
      "anonymous": false,
      "inputs": [
        {
          "indexed": false,
          "internalType": "uint64",
          "name": "selector",
          "type": "uint64"
        },
        {
          "indexed": false,
          "internalType": "bool",
          "name": "allowed",
          "type": "bool"
        }
      ],
      "name": "DestAllowlisted",
      "type": "event"
    },
    {
      "anonymous": false,
      "inputs": [
        {
          "indexed": false,
          "internalType": "uint64",
          "name": "selector",
          "type": "uint64"
        },
        {
          "indexed": false,
          "internalType": "uint256",
          "name": "gasLimit",
          "type": "uint256"
        }
      ],
      "name": "GasLimitSet",
      "type": "event"
    },
    {
      "anonymous": false,
      "inputs": [
        {
          "indexed": true,
          "internalType": "address",
          "name": "previousOwner",
          "type": "address"
        },
        {
          "indexed": true,
          "internalType": "address",
          "name": "newOwner",
          "type": "address"
        }
      ],
      "name": "OwnershipTransferred",
      "type": "event"
    },
    {
      "anonymous": false,
      "inputs": [
        {
          "indexed": false,
          "internalType": "uint256",
          "name": "votingPeriodSeconds",
          "type": "uint256"
        },
        {
          "indexed": false,
          "internalType": "uint256",
          "name": "quorumBps",
          "type": "uint256"
        }
      ],
      "name": "ParamsUpdated",
      "type": "event"
    },
    {
      "anonymous": false,
      "inputs": [
        {
          "indexed": true,
          "internalType": "uint256",
          "name": "claimId",
          "type": "uint256"
        },
        {
          "indexed": false,
          "internalType": "bytes32",
          "name": "messageId",
          "type": "bytes32"
        },
        {
          "indexed": false,
          "internalType": "uint256",
          "name": "amount",
          "type": "uint256"
        },
        {
          "indexed": false,
          "internalType": "address",
          "name": "claimant",
          "type": "address"
        }
      ],
      "name": "PayoutSent",
      "type": "event"
    },
    {
      "anonymous": false,
      "inputs": [
        {
          "indexed": false,
          "internalType": "address",
          "name": "policyManager",
          "type": "address"
        }
      ],
      "name": "PolicyManagerUpdated",
      "type": "event"
    },
    {
      "anonymous": false,
      "inputs": [
        {
          "indexed": false,
          "internalType": "bytes",
          "name": "receiver",
          "type": "bytes"
        },
        {
          "indexed": false,
          "internalType": "bool",
          "name": "allowed",
          "type": "bool"
        }
      ],
      "name": "ReceiverAllowlisted",
      "type": "event"
    },
    {
      "anonymous": false,
      "inputs": [
        {
          "indexed": false,
          "internalType": "address",
          "name": "router",
          "type": "address"
        }
      ],
      "name": "RouterUpdated",
      "type": "event"
    },
    {
      "anonymous": false,
      "inputs": [
        {
          "indexed": true,
          "internalType": "uint256",
          "name": "claimId",
          "type": "uint256"
        },
        {
          "indexed": true,
          "internalType": "address",
          "name": "voter",
          "type": "address"
        },
        {
          "indexed": false,
          "internalType": "bool",
          "name": "support",
          "type": "bool"
        },
        {
          "indexed": false,
          "internalType": "uint256",
          "name": "weight",
          "type": "uint256"
        }
      ],
      "name": "Voted",
      "type": "event"
    },
    {
      "anonymous": false,
      "inputs": [
        {
          "indexed": false,
          "internalType": "address",
          "name": "mirror",
          "type": "address"
        }
      ],
      "name": "VotingMirrorUpdated",
      "type": "event"
    },
    {
      "inputs": [
        {
          "internalType": "uint64",
          "name": "sel",
          "type": "uint64"
        },
        {
          "internalType": "bool",
          "name": "allowed",
          "type": "bool"
        }
      ],
      "name": "allowlistDestChain",
      "outputs": [],
      "stateMutability": "nonpayable",
      "type": "function"
    },
    {
      "inputs": [
        {
          "internalType": "bytes",
          "name": "r",
          "type": "bytes"
        },
        {
          "internalType": "bool",
          "name": "allowed",
          "type": "bool"
        }
      ],
      "name": "allowlistReceiver",
      "outputs": [],
      "stateMutability": "nonpayable",
      "type": "function"
    },
    {
      "inputs": [
        {
          "internalType": "uint64",
          "name": "",
          "type": "uint64"
        }
      ],
      "name": "allowlistedDestChains",
      "outputs": [
        {
          "internalType": "bool",
          "name": "",
          "type": "bool"
        }
      ],
      "stateMutability": "view",
      "type": "function"
    },
    {
      "inputs": [
        {
          "internalType": "bytes",
          "name": "",
          "type": "bytes"
        }
      ],
      "name": "allowlistedReceivers",
      "outputs": [
        {
          "internalType": "bool",
          "name": "",
          "type": "bool"
        }
      ],
      "stateMutability": "view",
      "type": "function"
    },
    {
      "inputs": [
        {
          "internalType": "uint256",
          "name": "",
          "type": "uint256"
        }
      ],
      "name": "claims",
      "outputs": [
        {
          "internalType": "bytes32",
          "name": "policyId",
          "type": "bytes32"
        },
        {
          "internalType": "address",
          "name": "claimant",
          "type": "address"
        },
        {
          "internalType": "uint256",
          "name": "amount",
          "type": "uint256"
        },
        {
          "internalType": "uint64",
          "name": "startTs",
          "type": "uint64"
        },
        {
          "internalType": "uint64",
          "name": "endTs",
          "type": "uint64"
        },
        {
          "internalType": "uint64",
          "name": "dstChainSelector",
          "type": "uint64"
        },
        {
          "internalType": "bytes",
          "name": "dstPayoutVault",
          "type": "bytes"
        },
        {
          "internalType": "bool",
          "name": "finalized",
          "type": "bool"
        },
        {
          "internalType": "bool",
          "name": "approved",
          "type": "bool"
        },
        {
          "internalType": "uint256",
          "name": "yes",
          "type": "uint256"
        },
        {
          "internalType": "uint256",
          "name": "no",
          "type": "uint256"
        }
      ],
      "stateMutability": "view",
      "type": "function"
    },
    {
      "inputs": [
        {
          "internalType": "uint256",
          "name": "claimId",
          "type": "uint256"
        }
      ],
      "name": "finalizeClaim",
      "outputs": [],
      "stateMutability": "payable",
      "type": "function"
    },
    {
      "inputs": [
        {
          "internalType": "uint64",
          "name": "",
          "type": "uint64"
        }
      ],
      "name": "gasLimitByChain",
      "outputs": [
        {
          "internalType": "uint256",
          "name": "",
          "type": "uint256"
        }
      ],
      "stateMutability": "view",
      "type": "function"
    },
    {
      "inputs": [
        {
          "internalType": "uint256",
          "name": "",
          "type": "uint256"
        },
        {
          "internalType": "address",
          "name": "",
          "type": "address"
        }
      ],
      "name": "hasVoted",
      "outputs": [
        {
          "internalType": "bool",
          "name": "",
          "type": "bool"
        }
      ],
      "stateMutability": "view",
      "type": "function"
    },
    {
      "inputs": [],
      "name": "nextClaimId",
      "outputs": [
        {
          "internalType": "uint256",
          "name": "",
          "type": "uint256"
        }
      ],
      "stateMutability": "view",
      "type": "function"
    },
    {
      "inputs": [
        {
          "internalType": "bytes32",
          "name": "policyId",
          "type": "bytes32"
        },
        {
          "internalType": "address",
          "name": "claimantOnArbitrum",
          "type": "address"
        },
        {
          "internalType": "uint256",
          "name": "amountPYUSD",
          "type": "uint256"
        },
        {
          "internalType": "uint64",
          "name": "dstChainSelector",
          "type": "uint64"
        },
        {
          "internalType": "bytes",
          "name": "dstPayoutVault",
          "type": "bytes"
        }
      ],
      "name": "openClaim",
      "outputs": [
        {
          "internalType": "uint256",
          "name": "claimId",
          "type": "uint256"
        }
      ],
      "stateMutability": "nonpayable",
      "type": "function"
    },
    {
      "inputs": [],
      "name": "owner",
      "outputs": [
        {
          "internalType": "address",
          "name": "",
          "type": "address"
        }
      ],
      "stateMutability": "view",
      "type": "function"
    },
    {
      "inputs": [],
      "name": "policyManager",
      "outputs": [
        {
          "internalType": "contract IPolicyManagerView",
          "name": "",
          "type": "address"
        }
      ],
      "stateMutability": "view",
      "type": "function"
    },
    {
      "inputs": [],
      "name": "quorumBps",
      "outputs": [
        {
          "internalType": "uint256",
          "name": "",
          "type": "uint256"
        }
      ],
      "stateMutability": "view",
      "type": "function"
    },
    {
      "inputs": [],
      "name": "renounceOwnership",
      "outputs": [],
      "stateMutability": "nonpayable",
      "type": "function"
    },
    {
      "inputs": [],
      "name": "router",
      "outputs": [
        {
          "internalType": "contract IRouterClient",
          "name": "",
          "type": "address"
        }
      ],
      "stateMutability": "view",
      "type": "function"
    },
    {
      "inputs": [
        {
          "internalType": "uint64",
          "name": "sel",
          "type": "uint64"
        },
        {
          "internalType": "uint256",
          "name": "gasLimit",
          "type": "uint256"
        }
      ],
      "name": "setGasLimit",
      "outputs": [],
      "stateMutability": "nonpayable",
      "type": "function"
    },
    {
      "inputs": [
        {
          "internalType": "uint256",
          "name": "_votingPeriodSeconds",
          "type": "uint256"
        },
        {
          "internalType": "uint256",
          "name": "_quorumBps",
          "type": "uint256"
        }
      ],
      "name": "setParams",
      "outputs": [],
      "stateMutability": "nonpayable",
      "type": "function"
    },
    {
      "inputs": [
        {
          "internalType": "address",
          "name": "p",
          "type": "address"
        }
      ],
      "name": "setPolicyManager",
      "outputs": [],
      "stateMutability": "nonpayable",
      "type": "function"
    },
    {
      "inputs": [
        {
          "internalType": "address",
          "name": "_router",
          "type": "address"
        }
      ],
      "name": "setRouter",
      "outputs": [],
      "stateMutability": "nonpayable",
      "type": "function"
    },
    {
      "inputs": [
        {
          "internalType": "address",
          "name": "m",
          "type": "address"
        }
      ],
      "name": "setVotingMirror",
      "outputs": [],
      "stateMutability": "nonpayable",
      "type": "function"
    },
    {
      "inputs": [
        {
          "internalType": "address",
          "name": "newOwner",
          "type": "address"
        }
      ],
      "name": "transferOwnership",
      "outputs": [],
      "stateMutability": "nonpayable",
      "type": "function"
    },
    {
      "inputs": [
        {
          "internalType": "uint256",
          "name": "claimId",
          "type": "uint256"
        }
      ],
      "name": "voteNo",
      "outputs": [],
      "stateMutability": "nonpayable",
      "type": "function"
    },
    {
      "inputs": [
        {
          "internalType": "uint256",
          "name": "claimId",
          "type": "uint256"
        }
      ],
      "name": "voteYes",
      "outputs": [],
      "stateMutability": "nonpayable",
      "type": "function"
    },
    {
      "inputs": [],
      "name": "votingMirror",
      "outputs": [
        {
          "internalType": "contract IVotingMirror",
          "name": "",
          "type": "address"
        }
      ],
      "stateMutability": "view",
      "type": "function"
    },
    {
      "inputs": [],
      "name": "votingPeriodSeconds",
      "outputs": [
        {
          "internalType": "uint256",
          "name": "",
          "type": "uint256"
        }
      ],
      "stateMutability": "view",
      "type": "function"
    },
    {
      "stateMutability": "payable",
      "type": "receive"
    }
  ],
  "bytecode": "0x608060405261012c6008556107d06009553480156200001d57600080fd5b506040516200206338038062002063833981016040819052620000409162000131565b806001600160a01b0381166200007057604051631e4fbdf760e01b81526000600482015260240160405180910390fd5b6200007b81620000c4565b505060018055600480546001600160a01b039485166001600160a01b0319918216179091556002805493851693821693909317909255600380549190931691161790556200018e565b600080546001600160a01b038381166001600160a01b0319831681178455604051919092169283917f8be0079c531659141344cd1fd0a4f28419497f9722a3daafe3b4186f6b6457e09190a35050565b80516001600160a01b03811681146200012c57600080fd5b919050565b600080600080608085870312156200014857600080fd5b620001538562000114565b9350620001636020860162000114565b9250620001736040860162000114565b9150620001836060860162000114565b905092959194509250565b611ec5806200019e6000396000f3fe60806040526004361061016a5760003560e01c8063ab3dbf3b116100d1578063cd2ddd0c1161008a578063e99c684511610064578063e99c684514610485578063ed0da4c8146104a5578063f2fde38b146104c5578063f887ea40146104e557600080fd5b8063cd2ddd0c14610422578063d7811f9014610438578063dc250dbb1461046557600080fd5b8063ab3dbf3b1461036c578063adde41e11461038c578063bdd4bb14146103ac578063c0324c77146103cc578063c0d78655146103ec578063cb85fe351461040c57600080fd5b80636a1cf721116101235780636a1cf721146102ab578063715018a6146102cb5780637a971114146102e05780638da5cb5b146102f3578063a0021cf114610311578063a888c2cd1461033557600080fd5b806314b2312a146101765780631a6f7be514610198578063420963b5146101b857806343859632146101f557806343e279d7146102405780635848e3f41461027057600080fd5b3661017157005b600080fd5b34801561018257600080fd5b50610196610191366004611659565b610505565b005b3480156101a457600080fd5b506101966101b33660046116af565b61057f565b3480156101c457600080fd5b506002546101d8906001600160a01b031681565b6040516001600160a01b0390911681526020015b60405180910390f35b34801561020157600080fd5b506102306102103660046116dd565b600c60209081526000928352604080842090915290825290205460ff1681565b60405190151581526020016101ec565b34801561024c57600080fd5b5061023061025b366004611722565b60056020526000908152604090205460ff1681565b34801561027c57600080fd5b5061023061028b36600461175c565b805160208183018101805160068252928201919093012091525460ff1681565b3480156102b757600080fd5b506101966102c63660046116af565b61058d565b3480156102d757600080fd5b50610196610598565b6101966102ee3660046116af565b6105ac565b3480156102ff57600080fd5b506000546001600160a01b03166101d8565b34801561031d57600080fd5b50610327600b5481565b6040519081526020016101ec565b34801561034157600080fd5b506103556103503660046116af565b610c21565b6040516101ec9b9a99989796959493929190611852565b34801561037857600080fd5b506003546101d8906001600160a01b031681565b34801561039857600080fd5b506101966103a73660046118d1565b610d23565b3480156103b857600080fd5b506103276103c73660046118ee565b610d80565b3480156103d857600080fd5b506101966103e7366004611969565b61116a565b3480156103f857600080fd5b506101966104073660046118d1565b6111e6565b34801561041857600080fd5b5061032760085481565b34801561042e57600080fd5b5061032760095481565b34801561044457600080fd5b50610327610453366004611722565b60076020526000908152604090205481565b34801561047157600080fd5b5061019661048036600461198b565b61123c565b34801561049157600080fd5b506101966104a03660046118d1565b611295565b3480156104b157600080fd5b506101966104c03660046119b7565b6112eb565b3480156104d157600080fd5b506101966104e03660046118d1565b61134f565b3480156104f157600080fd5b506004546101d8906001600160a01b031681565b61050d61138a565b80600684846040516105209291906119e5565b908152604051908190036020018120805492151560ff19909316929092179091557f59243006a04915d95353ffd5d2d6409c55045a73f6554544eb910d6aff810a0e90610572908590859085906119f5565b60405180910390a1505050565b61058a8160006113b7565b50565b61058a8160016113b7565b6105a061138a565b6105aa600061154c565b565b6105b461159c565b6000818152600a60205260409020600581015460ff16156105e85760405163475a253560e01b815260040160405180910390fd5b6003810154600160401b90046001600160401b0316421161061c57604051635dcebe1f60e11b815260040160405180910390fd5b600254604080516336ceb48b60e21b815290516000926001600160a01b03169163db3ad22c9160048083019260209291908290030181865afa158015610666573d6000803e3d6000fd5b505050506040513d601f19601f8201168201806040525081019061068a9190611a2d565b90506000826007015483600601546106a29190611a5c565b90506000600954836000146106b757836106ba565b60015b6106c661271085611a75565b6106d09190611a8c565b1015905060008180156106ea575084600701548560060154115b6005860180548215156101000261ffff1990911617600117905560405190915086907f4ec185ef82918138a60652a65bffe37ac6ee19bafe696a17d469cf7ec7c919679061073d90841515815260200190565b60405180910390a280610754575050505050610c18565b6003850154600160801b90046001600160401b031660009081526005602052604090205460ff166107b4576003850154604051637ee11f7b60e11b8152600160801b9091046001600160401b031660048201526024015b60405180910390fd5b6006856004016040516107c79190611ae8565b9081526040519081900360200190205460ff166107fc5784600401604051634ac550cf60e01b81526004016107ab9190611b5e565b6003850154600160801b90046001600160401b0316600090815260076020526040812054908190036108585760038601546040516303226bdf60e61b8152600160801b9091046001600160401b031660048201526024016107ab565b60018601546002870154604080517f666c3113858487b78bb6914ae63a0fabed24d07b9790cf150b71f549a75dc069602082018190528183018c90526001600160a01b03909416606082015260808082019390935281518082039093018352610140810190915260048901805460009260a0019182916108d790611aae565b80601f016020809104026020016040519081016040528092919081815260200182805461090390611aae565b80156109505780601f1061092557610100808354040283529160200191610950565b820191906000526020600020905b81548152906001019060200180831161093357829003601f168201915b5050509183525050602080820185905260408051600080825292810182529201919061099e565b60408051808201909152600080825260208201528152602001906001900390816109775790505b50815260200160006001600160a01b031681526020016109d46040518060400160405280888152602001600115158152506115c6565b90526004805460038c01546040516320487ded60e01b81529394506000936001600160a01b03909216926320487ded92610a2192600160801b90046001600160401b031691879101611bee565b602060405180830381865afa158015610a3e573d6000803e3d6000fd5b505050506040513d601f19601f82011682018060405250810190610a629190611a2d565b905080341015610a8e5760405163ce001ca760e01b8152346004820152602481018290526044016107ab565b6004805460038c01546040516396f4e9f960e01b81526000936001600160a01b03909316926396f4e9f9928692610ad992600160801b9092046001600160401b031691899101611bee565b60206040518083038185885af1158015610af7573d6000803e3d6000fd5b50505050506040513d601f19601f82011682018060405250810190610b1c9190611a2d565b905081341115610bb557600033610b338434611cca565b604051600081818185875af1925050503d8060008114610b6f576040519150601f19603f3d011682016040523d82523d6000602084013e610b74565b606091505b5050905080610bb35760405162461bcd60e51b815260206004820152600b60248201526a1c99599d5b990819985a5b60aa1b60448201526064016107ab565b505b60028b015460018c01546040805184815260208101939093526001600160a01b03909116908201528c907f3e579e906ea4ab3d168a7166f6765805f3b912bbb0156c61e97d28c6d3d11b9a9060600160405180910390a250505050505050505050505b61058a60018055565b600a602052600090815260409020805460018201546002830154600384015460048501805494956001600160a01b039094169492936001600160401b0380841694600160401b8504821694600160801b90049091169290610c8190611aae565b80601f0160208091040260200160405190810160405280929190818152602001828054610cad90611aae565b8015610cfa5780601f10610ccf57610100808354040283529160200191610cfa565b820191906000526020600020905b815481529060010190602001808311610cdd57829003601f168201915b50505060058401546006850154600790950154939460ff8083169561010090930416935091508b565b610d2b61138a565b600380546001600160a01b0319166001600160a01b0383169081179091556040519081527f5106d9fe21e5ccaebfff5e5b6191d80ca628c317ef02f88ec6abbc39e505f6c3906020015b60405180910390a150565b60035460405163ddbfd8ef60e01b815260048101889052600091829182918291829182916001600160a01b039091169063ddbfd8ef9060240161010060405180830381865afa158015610dd7573d6000803e3d6000fd5b505050506040513d601f19601f82011682018060405250810190610dfb9190611cdd565b97505050955095509550955050846001600160a01b0316336001600160a01b031614158015610e3557506000546001600160a01b03163314155b15610e5357604051630cb069c960e41b815260040160405180910390fd5b80610e925760405162461bcd60e51b815260206004820152600f60248201526e706f6c69637920696e61637469766560881b60448201526064016107ab565b826001600160401b03164210158015610eb45750816001600160401b03164211155b610f005760405162461bcd60e51b815260206004820152601760248201527f6f75747369646520636f7665726167652077696e646f7700000000000000000060448201526064016107ab565b60008a118015610f105750838a11155b610f495760405162461bcd60e51b815260206004820152600a60248201526918985908185b5bdd5b9d60b21b60448201526064016107ab565b600b60008154610f5890611d66565b91905081905595506040518061016001604052808d81526020018c6001600160a01b031681526020018b8152602001426001600160401b0316815260200160085442610fa49190611a5c565b6001600160401b031681526020018a6001600160401b0316815260200189898080601f016020809104026020016040519081016040528093929190818152602001838380828437600092018290525093855250505060208083018290526040808401839052606080850184905260809485018490528b8452600a83529281902085518155918501516001830180546001600160a01b039092166001600160a01b03199092169190911790558401516002820155908301516003820180549385015160a08601516001600160401b03908116600160801b0267ffffffffffffffff60801b19928216600160401b026fffffffffffffffffffffffffffffffff19909716919094161794909417939093161790915560c082015160048201906110cb9082611dd0565b5060e08201516005820180546101008086015115150261ff00199315159390931661ffff19909116179190911790556101208201516006820155610140909101516007909101556040516001600160a01b038c16908d9088907f21a593b6ddba76889d5191fb406567c36ec5ed208e3213fe45b0e3b57471564090611153908f815260200190565b60405180910390a450505050509695505050505050565b61117261138a565b612710811180611180575081155b1561119e5760405163019af63760e01b815260040160405180910390fd5b6008829055600981905560408051838152602081018390527fd1fdb534a9ff53ea58c62004a9a02a5ebc4e8b22ebee9a02db482c3678d3a34491015b60405180910390a15050565b6111ee61138a565b600480546001600160a01b0319166001600160a01b0383169081179091556040519081527f7aed1d3e8155a07ccf395e44ea3109a0e2d6c9b29bbbe9f142d9790596f4dc8090602001610d75565b61124461138a565b6001600160401b038216600081815260076020908152604091829020849055815192835282018390527f92cf3fbb447f2729b357d4e0ab3781c426b83f3a2e5329a4b394ea5718ae0bc491016111da565b61129d61138a565b600280546001600160a01b0319166001600160a01b0383169081179091556040519081527f09f291a23c886fb48ca8d081d66e2243baf1a3313a6d37d26d6b58b4d39991ed90602001610d75565b6112f361138a565b6001600160401b038216600081815260056020908152604091829020805460ff19168515159081179091558251938452908301527ff12c0a66abd8c8313bf15d0ae94a16da037c76f8c71d9be5d78ee88453c53fb291016111da565b61135761138a565b6001600160a01b03811661138157604051631e4fbdf760e01b8152600060048201526024016107ab565b61058a8161154c565b6000546001600160a01b031633146105aa5760405163118cdaa760e01b81523360048201526024016107ab565b6000828152600a602052604090206003810154600160401b90046001600160401b03164211156113fa57604051635dcebe1f60e11b815260040160405180910390fd5b6000838152600c6020908152604080832033845290915290205460ff161561143557604051637c9a1cf960e01b815260040160405180910390fd5b600254604051631dbe96ff60e31b81523360048201526000916001600160a01b03169063edf4b7f890602401602060405180830381865afa15801561147e573d6000803e3d6000fd5b505050506040513d601f19601f820116820180604052508101906114a29190611a2d565b6000858152600c602090815260408083203384529091529020805460ff19166001179055905082156114ed57808260060160008282546114e29190611a5c565b909155506115079050565b808260070160008282546115019190611a5c565b90915550505b60408051841515815260208101839052339186917f7c2de587c00d75474a0c6c6fa96fd3b45dc974cd4e8a75f712bb84c950dce1b5910160405180910390a350505050565b600080546001600160a01b038381166001600160a01b0319831681178455604051919092169283917f8be0079c531659141344cd1fd0a4f28419497f9722a3daafe3b4186f6b6457e09190a35050565b6002600154036115bf57604051633ee5aeb560e01b815260040160405180910390fd5b6002600155565b6060816040516020016115ed91908151815260209182015115159181019190915260400190565b6040516020818303038152906040529050919050565b60008083601f84011261161557600080fd5b5081356001600160401b0381111561162c57600080fd5b60208301915083602082850101111561164457600080fd5b9250929050565b801515811461058a57600080fd5b60008060006040848603121561166e57600080fd5b83356001600160401b0381111561168457600080fd5b61169086828701611603565b90945092505060208401356116a48161164b565b809150509250925092565b6000602082840312156116c157600080fd5b5035919050565b6001600160a01b038116811461058a57600080fd5b600080604083850312156116f057600080fd5b823591506020830135611702816116c8565b809150509250929050565b6001600160401b038116811461058a57600080fd5b60006020828403121561173457600080fd5b813561173f8161170d565b9392505050565b634e487b7160e01b600052604160045260246000fd5b60006020828403121561176e57600080fd5b81356001600160401b038082111561178557600080fd5b818401915084601f83011261179957600080fd5b8135818111156117ab576117ab611746565b604051601f8201601f19908116603f011681019083821181831017156117d3576117d3611746565b816040528281528760208487010111156117ec57600080fd5b826020860160208301376000928101602001929092525095945050505050565b6000815180845260005b8181101561183257602081850181015186830182015201611816565b506000602082860101526020601f19601f83011685010191505092915050565b8b81526001600160a01b038b166020820152604081018a90526001600160401b0389811660608301528881166080830152871660a082015261016060c082018190526000906118a38382018961180c565b96151560e0840152505092151561010084015261012083019190915261014090910152979650505050505050565b6000602082840312156118e357600080fd5b813561173f816116c8565b60008060008060008060a0878903121561190757600080fd5b863595506020870135611919816116c8565b94506040870135935060608701356119308161170d565b925060808701356001600160401b0381111561194b57600080fd5b61195789828a01611603565b979a9699509497509295939492505050565b6000806040838503121561197c57600080fd5b50508035926020909101359150565b6000806040838503121561199e57600080fd5b82356119a98161170d565b946020939093013593505050565b600080604083850312156119ca57600080fd5b82356119d58161170d565b915060208301356117028161164b565b8183823760009101908152919050565b6040815282604082015282846060830137600060608483018101919091529115156020820152601f909201601f191690910101919050565b600060208284031215611a3f57600080fd5b5051919050565b634e487b7160e01b600052601160045260246000fd5b80820180821115611a6f57611a6f611a46565b92915050565b8082028115828204841417611a6f57611a6f611a46565b600082611aa957634e487b7160e01b600052601260045260246000fd5b500490565b600181811c90821680611ac257607f821691505b602082108103611ae257634e487b7160e01b600052602260045260246000fd5b50919050565b6000808354611af681611aae565b60018281168015611b0e5760018114611b2357611b52565b60ff1984168752821515830287019450611b52565b8760005260208060002060005b85811015611b495781548a820152908401908201611b30565b50505082870194505b50929695505050505050565b6000602080835260008454611b7281611aae565b8060208701526040600180841660008114611b945760018114611bb057611be0565b60ff19851660408a0152604084151560051b8a01019550611be0565b89600052602060002060005b85811015611bd75781548b8201860152908301908801611bbc565b8a016040019650505b509398975050505050505050565b600060406001600160401b03851683526020604081850152845160a06040860152611c1c60e086018261180c565b905081860151603f1980878403016060880152611c39838361180c565b6040890151888203830160808a01528051808352908601945060009350908501905b80841015611c8d57845180516001600160a01b0316835286015186830152938501936001939093019290860190611c5b565b5060608901516001600160a01b031660a08901526080890151888203830160c08a01529550611cbc818761180c565b9a9950505050505050505050565b81810381811115611a6f57611a6f611a46565b600080600080600080600080610100898b031215611cfa57600080fd5b885197506020890151611d0c816116c8565b60408a015160608b01519198509650611d248161170d565b60808a0151909550611d358161170d565b8094505060a0890151925060c0890151915060e0890151611d558161164b565b809150509295985092959890939650565b600060018201611d7857611d78611a46565b5060010190565b601f821115611dcb576000816000526020600020601f850160051c81016020861015611da85750805b601f850160051c820191505b81811015611dc757828155600101611db4565b5050505b505050565b81516001600160401b03811115611de957611de9611746565b611dfd81611df78454611aae565b84611d7f565b602080601f831160018114611e325760008415611e1a5750858301515b600019600386901b1c1916600185901b178555611dc7565b600085815260208120601f198616915b82811015611e6157888601518255948401946001909101908401611e42565b5085821015611e7f5787850151600019600388901b60f8161c191681555b5050505050600190811b0190555056fea2646970667358221220c5cccc4bb705b18339a27508a0ae9261c409f0c4fcc22d56d415bcd388f85d7064736f6c63430008180033",
  "linkReferences": {},
  "deployedLinkReferences": {}
}