{
  "_format": "hh-sol-artifact-1",
  "contractName": "PremiumVault",
  "sourceName": "contracts/PremiumVault.sol",
  "abi": [
    {
      "inputs": [
        {
          "internalType": "address",
          "name": "_router",
          "type": "address"
        },
        {
          "internalType": "address",
          "name": "_pyusd",
          "type": "address"
        },
        {
          "internalType": "address",
          "name": "_lpVault",
          "type": "address"
        },
        {
          "internalType": "address",
          "name": "_payoutVault",
          "type": "address"
        },
        {
          "internalType": "address",
          "name": "_owner",
          "type": "address"
        }
      ],
      "stateMutability": "nonpayable",
      "type": "constructor"
    },
    {
      "inputs": [],
      "name": "BadAllocationSum",
      "type": "error"
    },
    {
      "inputs": [
        {
          "internalType": "uint64",
          "name": "selector",
          "type": "uint64"
        }
      ],
      "name": "DestNotAllowlisted",
      "type": "error"
    },
    {
      "inputs": [],
      "name": "InvalidAddress",
      "type": "error"
    },
    {
      "inputs": [],
      "name": "InvalidAmount",
      "type": "error"
    },
    {
      "inputs": [
        {
          "internalType": "uint64",
          "name": "selector",
          "type": "uint64"
        }
      ],
      "name": "NoGasLimitForChain",
      "type": "error"
    },
    {
      "inputs": [
        {
          "internalType": "uint256",
          "name": "have",
          "type": "uint256"
        },
        {
          "internalType": "uint256",
          "name": "need",
          "type": "uint256"
        }
      ],
      "name": "NotEnoughNative",
      "type": "error"
    },
    {
      "inputs": [
        {
          "internalType": "address",
          "name": "owner",
          "type": "address"
        }
      ],
      "name": "OwnableInvalidOwner",
      "type": "error"
    },
    {
      "inputs": [
        {
          "internalType": "address",
          "name": "account",
          "type": "address"
        }
      ],
      "name": "OwnableUnauthorizedAccount",
      "type": "error"
    },
    {
      "inputs": [
        {
          "internalType": "bytes",
          "name": "receiver",
          "type": "bytes"
        }
      ],
      "name": "ReceiverNotAllowlisted",
      "type": "error"
    },
    {
      "inputs": [],
      "name": "ReentrancyGuardReentrantCall",
      "type": "error"
    },
    {
      "inputs": [
        {
          "internalType": "address",
          "name": "token",
          "type": "address"
        }
      ],
      "name": "SafeERC20FailedOperation",
      "type": "error"
    },
    {
      "inputs": [],
      "name": "ZeroAllocation",
      "type": "error"
    },
    {
      "anonymous": false,
      "inputs": [
        {
          "indexed": true,
          "internalType": "bytes32",
          "name": "messageId",
          "type": "bytes32"
        },
        {
          "indexed": true,
          "internalType": "uint64",
          "name": "dstSelector",
          "type": "uint64"
        },
        {
          "indexed": true,
          "internalType": "bytes",
          "name": "receiver",
          "type": "bytes"
        },
        {
          "indexed": false,
          "internalType": "uint256",
          "name": "feePaidNative",
          "type": "uint256"
        }
      ],
      "name": "CCIPSent",
      "type": "event"
    },
    {
      "anonymous": false,
      "inputs": [
        {
          "indexed": false,
          "internalType": "uint64",
          "name": "selector",
          "type": "uint64"
        },
        {
          "indexed": false,
          "internalType": "bool",
          "name": "allowed",
          "type": "bool"
        }
      ],
      "name": "DestChainAllowlisted",
      "type": "event"
    },
    {
      "anonymous": false,
      "inputs": [
        {
          "indexed": false,
          "internalType": "uint64",
          "name": "selector",
          "type": "uint64"
        },
        {
          "indexed": false,
          "internalType": "uint256",
          "name": "gasLimit",
          "type": "uint256"
        }
      ],
      "name": "GasLimitSet",
      "type": "event"
    },
    {
      "anonymous": false,
      "inputs": [
        {
          "indexed": true,
          "internalType": "address",
          "name": "previousOwner",
          "type": "address"
        },
        {
          "indexed": true,
          "internalType": "address",
          "name": "newOwner",
          "type": "address"
        }
      ],
      "name": "OwnershipTransferred",
      "type": "event"
    },
    {
      "anonymous": false,
      "inputs": [
        {
          "indexed": true,
          "internalType": "address",
          "name": "user",
          "type": "address"
        },
        {
          "indexed": false,
          "internalType": "uint256",
          "name": "premiumPYUSD",
          "type": "uint256"
        },
        {
          "indexed": false,
          "internalType": "uint256",
          "name": "toLP",
          "type": "uint256"
        },
        {
          "indexed": false,
          "internalType": "uint256",
          "name": "toReserve",
          "type": "uint256"
        },
        {
          "indexed": false,
          "internalType": "bytes32",
          "name": "ccipMessageId",
          "type": "bytes32"
        }
      ],
      "name": "PremiumPaid",
      "type": "event"
    },
    {
      "anonymous": false,
      "inputs": [
        {
          "indexed": false,
          "internalType": "bytes",
          "name": "receiver",
          "type": "bytes"
        },
        {
          "indexed": false,
          "internalType": "bool",
          "name": "allowed",
          "type": "bool"
        }
      ],
      "name": "ReceiverAllowlisted",
      "type": "event"
    },
    {
      "anonymous": false,
      "inputs": [
        {
          "indexed": false,
          "internalType": "address",
          "name": "router",
          "type": "address"
        }
      ],
      "name": "RouterUpdated",
      "type": "event"
    },
    {
      "anonymous": false,
      "inputs": [
        {
          "indexed": false,
          "internalType": "uint256",
          "name": "bpsToLP",
          "type": "uint256"
        },
        {
          "indexed": false,
          "internalType": "uint256",
          "name": "bpsToReserve",
          "type": "uint256"
        }
      ],
      "name": "SplitUpdated",
      "type": "event"
    },
    {
      "anonymous": false,
      "inputs": [
        {
          "indexed": false,
          "internalType": "address",
          "name": "lpVault",
          "type": "address"
        },
        {
          "indexed": false,
          "internalType": "address",
          "name": "payoutVault",
          "type": "address"
        }
      ],
      "name": "VaultsUpdated",
      "type": "event"
    },
    {
      "inputs": [],
      "name": "PYUSD",
      "outputs": [
        {
          "internalType": "contract IERC20",
          "name": "",
          "type": "address"
        }
      ],
      "stateMutability": "view",
      "type": "function"
    },
    {
      "inputs": [
        {
          "internalType": "uint64",
          "name": "selector",
          "type": "uint64"
        },
        {
          "internalType": "bool",
          "name": "allowed",
          "type": "bool"
        }
      ],
      "name": "allowlistDestChain",
      "outputs": [],
      "stateMutability": "nonpayable",
      "type": "function"
    },
    {
      "inputs": [
        {
          "internalType": "bytes",
          "name": "receiver",
          "type": "bytes"
        },
        {
          "internalType": "bool",
          "name": "allowed",
          "type": "bool"
        }
      ],
      "name": "allowlistReceiver",
      "outputs": [],
      "stateMutability": "nonpayable",
      "type": "function"
    },
    {
      "inputs": [
        {
          "internalType": "uint64",
          "name": "",
          "type": "uint64"
        }
      ],
      "name": "allowlistedDestChains",
      "outputs": [
        {
          "internalType": "bool",
          "name": "",
          "type": "bool"
        }
      ],
      "stateMutability": "view",
      "type": "function"
    },
    {
      "inputs": [
        {
          "internalType": "bytes",
          "name": "",
          "type": "bytes"
        }
      ],
      "name": "allowlistedReceivers",
      "outputs": [
        {
          "internalType": "bool",
          "name": "",
          "type": "bool"
        }
      ],
      "stateMutability": "view",
      "type": "function"
    },
    {
      "inputs": [
        {
          "internalType": "uint64",
          "name": "dstChainSelector",
          "type": "uint64"
        },
        {
          "internalType": "bytes",
          "name": "hederaReceiver",
          "type": "bytes"
        },
        {
          "components": [
            {
              "internalType": "bytes32",
              "name": "poolId",
              "type": "bytes32"
            },
            {
              "internalType": "address",
              "name": "buyer",
              "type": "address"
            },
            {
              "internalType": "uint256",
              "name": "coverageAmount",
              "type": "uint256"
            },
            {
              "internalType": "uint64",
              "name": "startTs",
              "type": "uint64"
            },
            {
              "internalType": "uint64",
              "name": "endTs",
              "type": "uint64"
            },
            {
              "internalType": "bytes32",
              "name": "policyRef",
              "type": "bytes32"
            }
          ],
          "internalType": "struct PremiumVault.PolicyTerms",
          "name": "terms",
          "type": "tuple"
        },
        {
          "internalType": "uint256",
          "name": "premiumPYUSD",
          "type": "uint256"
        }
      ],
      "name": "buyCoverage",
      "outputs": [
        {
          "internalType": "bytes32",
          "name": "messageId",
          "type": "bytes32"
        }
      ],
      "stateMutability": "payable",
      "type": "function"
    },
    {
      "inputs": [
        {
          "internalType": "uint64",
          "name": "",
          "type": "uint64"
        }
      ],
      "name": "gasLimitByChain",
      "outputs": [
        {
          "internalType": "uint256",
          "name": "",
          "type": "uint256"
        }
      ],
      "stateMutability": "view",
      "type": "function"
    },
    {
      "inputs": [],
      "name": "lpVault",
      "outputs": [
        {
          "internalType": "address",
          "name": "",
          "type": "address"
        }
      ],
      "stateMutability": "view",
      "type": "function"
    },
    {
      "inputs": [],
      "name": "owner",
      "outputs": [
        {
          "internalType": "address",
          "name": "",
          "type": "address"
        }
      ],
      "stateMutability": "view",
      "type": "function"
    },
    {
      "inputs": [],
      "name": "payoutVault",
      "outputs": [
        {
          "internalType": "address",
          "name": "",
          "type": "address"
        }
      ],
      "stateMutability": "view",
      "type": "function"
    },
    {
      "inputs": [],
      "name": "premiumBpsToLP",
      "outputs": [
        {
          "internalType": "uint256",
          "name": "",
          "type": "uint256"
        }
      ],
      "stateMutability": "view",
      "type": "function"
    },
    {
      "inputs": [],
      "name": "premiumBpsToReserve",
      "outputs": [
        {
          "internalType": "uint256",
          "name": "",
          "type": "uint256"
        }
      ],
      "stateMutability": "view",
      "type": "function"
    },
    {
      "inputs": [
        {
          "internalType": "uint256",
          "name": "premiumPYUSD",
          "type": "uint256"
        }
      ],
      "name": "previewAllocation",
      "outputs": [
        {
          "internalType": "uint256",
          "name": "toLP",
          "type": "uint256"
        },
        {
          "internalType": "uint256",
          "name": "toReserve",
          "type": "uint256"
        }
      ],
      "stateMutability": "view",
      "type": "function"
    },
    {
      "inputs": [
        {
          "internalType": "uint64",
          "name": "dstChainSelector",
          "type": "uint64"
        },
        {
          "internalType": "bytes",
          "name": "hederaReceiver",
          "type": "bytes"
        },
        {
          "components": [
            {
              "internalType": "bytes32",
              "name": "poolId",
              "type": "bytes32"
            },
            {
              "internalType": "address",
              "name": "buyer",
              "type": "address"
            },
            {
              "internalType": "uint256",
              "name": "coverageAmount",
              "type": "uint256"
            },
            {
              "internalType": "uint64",
              "name": "startTs",
              "type": "uint64"
            },
            {
              "internalType": "uint64",
              "name": "endTs",
              "type": "uint64"
            },
            {
              "internalType": "bytes32",
              "name": "policyRef",
              "type": "bytes32"
            }
          ],
          "internalType": "struct PremiumVault.PolicyTerms",
          "name": "terms",
          "type": "tuple"
        }
      ],
      "name": "quoteCCIPFee",
      "outputs": [
        {
          "internalType": "uint256",
          "name": "",
          "type": "uint256"
        }
      ],
      "stateMutability": "view",
      "type": "function"
    },
    {
      "inputs": [],
      "name": "renounceOwnership",
      "outputs": [],
      "stateMutability": "nonpayable",
      "type": "function"
    },
    {
      "inputs": [
        {
          "internalType": "address",
          "name": "token",
          "type": "address"
        },
        {
          "internalType": "address",
          "name": "to",
          "type": "address"
        },
        {
          "internalType": "uint256",
          "name": "amt",
          "type": "uint256"
        }
      ],
      "name": "rescueToken",
      "outputs": [],
      "stateMutability": "nonpayable",
      "type": "function"
    },
    {
      "inputs": [],
      "name": "router",
      "outputs": [
        {
          "internalType": "contract IRouterClient",
          "name": "",
          "type": "address"
        }
      ],
      "stateMutability": "view",
      "type": "function"
    },
    {
      "inputs": [
        {
          "internalType": "uint64",
          "name": "selector",
          "type": "uint64"
        },
        {
          "internalType": "uint256",
          "name": "gasLimit",
          "type": "uint256"
        }
      ],
      "name": "setGasLimit",
      "outputs": [],
      "stateMutability": "nonpayable",
      "type": "function"
    },
    {
      "inputs": [
        {
          "internalType": "address",
          "name": "_router",
          "type": "address"
        }
      ],
      "name": "setRouter",
      "outputs": [],
      "stateMutability": "nonpayable",
      "type": "function"
    },
    {
      "inputs": [
        {
          "internalType": "uint256",
          "name": "bpsToLP_",
          "type": "uint256"
        },
        {
          "internalType": "uint256",
          "name": "bpsToReserve_",
          "type": "uint256"
        }
      ],
      "name": "setSplit",
      "outputs": [],
      "stateMutability": "nonpayable",
      "type": "function"
    },
    {
      "inputs": [
        {
          "internalType": "address",
          "name": "_lpVault",
          "type": "address"
        },
        {
          "internalType": "address",
          "name": "_payoutVault",
          "type": "address"
        }
      ],
      "name": "setVaults",
      "outputs": [],
      "stateMutability": "nonpayable",
      "type": "function"
    },
    {
      "inputs": [
        {
          "internalType": "address",
          "name": "newOwner",
          "type": "address"
        }
      ],
      "name": "transferOwnership",
      "outputs": [],
      "stateMutability": "nonpayable",
      "type": "function"
    },
    {
      "stateMutability": "payable",
      "type": "receive"
    }
  ],
  "bytecode": "0x60a0604052611b58600855610bb86009553480156200001d57600080fd5b5060405162001a8938038062001a8983398101604081905262000040916200019a565b806001600160a01b0381166200007057604051631e4fbdf760e01b81526000600482015260240160405180910390fd5b6200007b816200012d565b50600180556001600160a01b03851615806200009e57506001600160a01b038416155b80620000b157506001600160a01b038316155b80620000c457506001600160a01b038216155b15620000e35760405163e6c4247b60e01b815260040160405180910390fd5b50600480546001600160a01b039586166001600160a01b0319918216179091559284166080526002805492851692841692909217909155600380549190931691161790556200020a565b600080546001600160a01b038381166001600160a01b0319831681178455604051919092169283917f8be0079c531659141344cd1fd0a4f28419497f9722a3daafe3b4186f6b6457e09190a35050565b80516001600160a01b03811681146200019557600080fd5b919050565b600080600080600060a08688031215620001b357600080fd5b620001be866200017d565b9450620001ce602087016200017d565b9350620001de604087016200017d565b9250620001ee606087016200017d565b9150620001fe608087016200017d565b90509295509295909350565b60805161184e6200023b6000396000818161033301528181610a5f01528181610aaf0152610aef015261184e6000f3fe6080604052600436106101395760003560e01c80638da5cb5b116100ab578063dc250dbb1161006f578063dc250dbb146103c2578063e5711e8b146103e2578063e8afa55214610402578063ed0da4c814610415578063f2fde38b14610435578063f887ea401461045557600080fd5b80638da5cb5b146103035780639e19789d14610321578063c0d7865514610355578063c95f782c14610375578063d7811f901461039557600080fd5b80634f649a29116100fd5780634f649a29146102325780635848e3f4146102525780635b7df2b91461028d578063715018a6146102a357806373e18978146102b85780637cffd22f146102ce57600080fd5b806313ce8c611461014557806314b2312a146101785780632f8673671461019a57806343e279d7146101d25780634c451a6a1461021257600080fd5b3661014057005b600080fd5b34801561015157600080fd5b5061016561016036600461122a565b610475565b6040519081526020015b60405180910390f35b34801561018457600080fd5b506101986101933660046112a0565b6106b1565b005b3480156101a657600080fd5b506002546101ba906001600160a01b031681565b6040516001600160a01b03909116815260200161016f565b3480156101de57600080fd5b506102026101ed3660046112f3565b60056020526000908152604090205460ff1681565b604051901515815260200161016f565b34801561021e57600080fd5b5061019861022d36600461132c565b61072b565b34801561023e57600080fd5b506003546101ba906001600160a01b031681565b34801561025e57600080fd5b5061020261026d366004611375565b805160208183018101805160068252928201919093012091525460ff1681565b34801561029957600080fd5b5061016560085481565b3480156102af57600080fd5b506101986107dd565b3480156102c457600080fd5b5061016560095481565b3480156102da57600080fd5b506102ee6102e9366004611425565b6107f1565b6040805192835260208301919091520161016f565b34801561030f57600080fd5b506000546001600160a01b03166101ba565b34801561032d57600080fd5b506101ba7f000000000000000000000000000000000000000000000000000000000000000081565b34801561036157600080fd5b5061019861037036600461143e565b610806565b34801561038157600080fd5b50610198610390366004611459565b610889565b3480156103a157600080fd5b506101656103b03660046112f3565b60076020526000908152604090205481565b3480156103ce57600080fd5b506101986103dd36600461147b565b6108fc565b3480156103ee57600080fd5b506101986103fd3660046114a5565b610955565b6101656104103660046114e1565b61099d565b34801561042157600080fd5b50610198610430366004611550565b610eca565b34801561044157600080fd5b5061019861045036600461143e565b610f2e565b34801561046157600080fd5b506004546101ba906001600160a01b031681565b6001600160401b03841660009081526005602052604081205460ff166104be5760405163e448071360e01b81526001600160401b03861660048201526024015b60405180910390fd5b600684846040516104d092919061157a565b9081526040519081900360200190205460ff16610504578383604051638b1ef2bf60e01b81526004016104b59291906115b3565b6001600160401b03851660009081526007602052604081205490819003610549576040516303226bdf60e61b81526001600160401b03871660048201526024016104b5565b6040805160c06020601f8801819004028201810190925260a08101868152600092829190899089908190850183828082843760009201919091525050509082525060405160209182019161059f918891016115cf565b60408051601f19818403018152919052815260200160006040519080825280602002602001820160405280156105fb57816020015b60408051808201909152600080825260208201528152602001906001900390816105d45790505b50815260200160006001600160a01b03168152602001610631604051806040016040528086815260200160011515815250610f6c565b9052600480546040516320487ded60e01b81529293506001600160a01b0316916320487ded91610665918b91869101611682565b602060405180830381865afa158015610682573d6000803e3d6000fd5b505050506040513d601f19601f820116820180604052508101906106a6919061175e565b979650505050505050565b6106b9610fb6565b80600684846040516106cc92919061157a565b908152604051908190036020018120805492151560ff19909316929092179091557f59243006a04915d95353ffd5d2d6409c55045a73f6554544eb910d6aff810a0e9061071e90859085908590611777565b60405180910390a1505050565b610733610fb6565b6001600160a01b038216158061075057506001600160a01b038116155b1561076e5760405163e6c4247b60e01b815260040160405180910390fd5b600280546001600160a01b038481166001600160a01b03199283168117909355600380549185169190921681179091556040805192835260208301919091527f9db2b04d4c5e7773073a7ec38f769372d46d082a41b67979e17d4313cf92795f91015b60405180910390a15050565b6107e5610fb6565b6107ef6000610fe3565b565b6000806107fd83611033565b91509150915091565b61080e610fb6565b6001600160a01b0381166108355760405163e6c4247b60e01b815260040160405180910390fd5b600480546001600160a01b0319166001600160a01b0383169081179091556040519081527f7aed1d3e8155a07ccf395e44ea3109a0e2d6c9b29bbbe9f142d9790596f4dc809060200160405180910390a150565b610891610fb6565b61271061089e82846117b3565b146108bc576040516312dd67db60e31b815260040160405180910390fd5b6008829055600981905560408051838152602081018390527f9cd6d44702149b08383af5f5a93a687f0f6500579bbaf916aa508713a110277d91016107d1565b610904610fb6565b6001600160401b038216600081815260076020908152604091829020849055815192835282018390527f92cf3fbb447f2729b357d4e0ab3781c426b83f3a2e5329a4b394ea5718ae0bc491016107d1565b61095d610fb6565b6001600160a01b0382166109845760405163e6c4247b60e01b815260040160405180910390fd5b6109986001600160a01b0384168383611075565b505050565b60006109a76110d4565b6001600160401b03861660009081526005602052604090205460ff166109eb5760405163e448071360e01b81526001600160401b03871660048201526024016104b5565b600685856040516109fd92919061157a565b9081526040519081900360200190205460ff16610a31578484604051638b1ef2bf60e01b81526004016104b59291906115b3565b81600003610a525760405163162908e360e11b815260040160405180910390fd5b610a876001600160a01b037f0000000000000000000000000000000000000000000000000000000000000000163330856110fe565b600080610a9384611033565b90925090508115610ad857600254610ad8906001600160a01b037f00000000000000000000000000000000000000000000000000000000000000008116911684611075565b8015610b1857600354610b18906001600160a01b037f00000000000000000000000000000000000000000000000000000000000000008116911683611075565b6001600160401b03881660009081526007602052604081205490819003610b5d576040516303226bdf60e61b81526001600160401b038a1660048201526024016104b5565b6040805160c06020601f8b01819004028201810190925260a081018981526000928291908c908c9081908501838280828437600092019190915250505090825250604051602091820191610bb3918b91016115cf565b60408051601f1981840301815291905281526020016000604051908082528060200260200182016040528015610c0f57816020015b6040805180820190915260008082526020820152815260200190600190039081610be85790505b50815260200160006001600160a01b03168152602001610c45604051806040016040528086815260200160011515815250610f6c565b9052600480546040516320487ded60e01b81529293506000926001600160a01b03909116916320487ded91610c7e918f91879101611682565b602060405180830381865afa158015610c9b573d6000803e3d6000fd5b505050506040513d601f19601f82011682018060405250810190610cbf919061175e565b905080341015610ceb5760405163ce001ca760e01b8152346004820152602481018290526044016104b5565b600460009054906101000a90046001600160a01b03166001600160a01b03166396f4e9f9828d856040518463ffffffff1660e01b8152600401610d2f929190611682565b60206040518083038185885af1158015610d4d573d6000803e3d6000fd5b50505050506040513d601f19601f82011682018060405250810190610d72919061175e565b955080341115610e0d57600033610d8983346117cc565b604051600081818185875af1925050503d8060008114610dc5576040519150601f19603f3d011682016040523d82523d6000602084013e610dca565b606091505b5050905080610e0b5760405162461bcd60e51b815260206004820152600d60248201526c1499599d5b990819985a5b1959609a1b60448201526064016104b5565b505b8989604051610e1d92919061157a565b60405180910390208b6001600160401b0316877f9f8ab712f30e1279ab4bbcd9a22ef9ef1e7038acc56ca6193491dbd716f45d7c84604051610e6191815260200190565b60405180910390a460408051888152602081018790529081018590526060810187905233907f245c6b91720beb663d1a62bf86b17014140584ea630ea8d51d0f245734acd1959060800160405180910390a25050505050610ec160018055565b95945050505050565b610ed2610fb6565b6001600160401b038216600081815260056020908152604091829020805460ff19168515159081179091558251938452908301527f64d3fe1e93104e5f5fa8ae03588285e68ebddfd0665238cc412659083ab6725191016107d1565b610f36610fb6565b6001600160a01b038116610f6057604051631e4fbdf760e01b8152600060048201526024016104b5565b610f6981610fe3565b50565b6040805182516024820152602092830151151560448083019190915282518083039091018152606490910190915290810180516001600160e01b0316630181dcf160e41b17905290565b6000546001600160a01b031633146107ef5760405163118cdaa760e01b81523360048201526024016104b5565b600080546001600160a01b038381166001600160a01b0319831681178455604051919092169283917f8be0079c531659141344cd1fd0a4f28419497f9722a3daafe3b4186f6b6457e09190a35050565b6000806127106008548461104791906117df565b61105191906117f6565b91506127106009548461106491906117df565b61106e91906117f6565b9050915091565b6040516001600160a01b0383811660248301526044820183905261099891859182169063a9059cbb906064015b604051602081830303815290604052915060e01b6020820180516001600160e01b03838183161783525050505061113d565b6002600154036110f757604051633ee5aeb560e01b815260040160405180910390fd5b6002600155565b6040516001600160a01b0384811660248301528381166044830152606482018390526111379186918216906323b872dd906084016110a2565b50505050565b600080602060008451602086016000885af180611160576040513d6000823e3d81fd5b50506000513d91508115611178578060011415611185565b6001600160a01b0384163b155b1561113757604051635274afe760e01b81526001600160a01b03851660048201526024016104b5565b80356001600160401b03811681146111c557600080fd5b919050565b60008083601f8401126111dc57600080fd5b5081356001600160401b038111156111f357600080fd5b60208301915083602082850101111561120b57600080fd5b9250929050565b600060c0828403121561122457600080fd5b50919050565b600080600080610100858703121561124157600080fd5b61124a856111ae565b935060208501356001600160401b0381111561126557600080fd5b611271878288016111ca565b909450925061128590508660408701611212565b905092959194509250565b803580151581146111c557600080fd5b6000806000604084860312156112b557600080fd5b83356001600160401b038111156112cb57600080fd5b6112d7868287016111ca565b90945092506112ea905060208501611290565b90509250925092565b60006020828403121561130557600080fd5b61130e826111ae565b9392505050565b80356001600160a01b03811681146111c557600080fd5b6000806040838503121561133f57600080fd5b61134883611315565b915061135660208401611315565b90509250929050565b634e487b7160e01b600052604160045260246000fd5b60006020828403121561138757600080fd5b81356001600160401b038082111561139e57600080fd5b818401915084601f8301126113b257600080fd5b8135818111156113c4576113c461135f565b604051601f8201601f19908116603f011681019083821181831017156113ec576113ec61135f565b8160405282815287602084870101111561140557600080fd5b826020860160208301376000928101602001929092525095945050505050565b60006020828403121561143757600080fd5b5035919050565b60006020828403121561145057600080fd5b61130e82611315565b6000806040838503121561146c57600080fd5b50508035926020909101359150565b6000806040838503121561148e57600080fd5b611497836111ae565b946020939093013593505050565b6000806000606084860312156114ba57600080fd5b6114c384611315565b92506114d160208501611315565b9150604084013590509250925092565b600080600080600061012086880312156114fa57600080fd5b611503866111ae565b945060208601356001600160401b0381111561151e57600080fd5b61152a888289016111ca565b909550935061153e90508760408801611212565b94979396509194610100013592915050565b6000806040838503121561156357600080fd5b61156c836111ae565b915061135660208401611290565b8183823760009101908152919050565b81835281816020850137506000828201602090810191909152601f909101601f19169091010190565b6020815260006115c760208301848661158a565b949350505050565b8135815260c081016001600160a01b036115eb60208501611315565b16602083015260408301356040830152611607606084016111ae565b6001600160401b03808216606085015280611624608087016111ae565b166080850152505060a083013560a083015292915050565b6000815180845260005b8181101561166257602081850181015186830182015201611646565b506000602082860101526020601f19601f83011685010191505092915050565b600060406001600160401b03851683526020604081850152845160a060408601526116b060e086018261163c565b905081860151603f19808784030160608801526116cd838361163c565b6040890151888203830160808a01528051808352908601945060009350908501905b8084101561172157845180516001600160a01b03168352860151868301529385019360019390930192908601906116ef565b5060608901516001600160a01b031660a08901526080890151888203830160c08a01529550611750818761163c565b9a9950505050505050505050565b60006020828403121561177057600080fd5b5051919050565b60408152600061178b60408301858761158a565b90508215156020830152949350505050565b634e487b7160e01b600052601160045260246000fd5b808201808211156117c6576117c661179d565b92915050565b818103818111156117c6576117c661179d565b80820281158282048414176117c6576117c661179d565b60008261181357634e487b7160e01b600052601260045260246000fd5b50049056fea2646970667358221220674c3bb626a7903dfad218889af23d41e1b519aca8029f117fecbe95a52955fc64736f6c63430008180033",
  "linkReferences": {},
  "deployedLinkReferences": {}
}