{
  "_format": "hh-sol-artifact-1",
  "contractName": "PremiumVault",
  "sourceName": "contracts/PremiumVault.sol",
  "abi": [
    {
      "inputs": [
        {
          "internalType": "address",
          "name": "_router",
          "type": "address"
        },
        {
          "internalType": "address",
          "name": "_pyusd",
          "type": "address"
        },
        {
          "internalType": "address",
          "name": "_lpVault",
          "type": "address"
        },
        {
          "internalType": "address",
          "name": "_payoutVault",
          "type": "address"
        },
        {
          "internalType": "address",
          "name": "_owner",
          "type": "address"
        }
      ],
      "stateMutability": "nonpayable",
      "type": "constructor"
    },
    {
      "inputs": [],
      "name": "BadAllocationSum",
      "type": "error"
    },
    {
      "inputs": [
        {
          "internalType": "uint64",
          "name": "selector",
          "type": "uint64"
        }
      ],
      "name": "DestNotAllowlisted",
      "type": "error"
    },
    {
      "inputs": [],
      "name": "InvalidAddress",
      "type": "error"
    },
    {
      "inputs": [],
      "name": "InvalidAmount",
      "type": "error"
    },
    {
      "inputs": [
        {
          "internalType": "uint64",
          "name": "selector",
          "type": "uint64"
        }
      ],
      "name": "NoGasLimitForChain",
      "type": "error"
    },
    {
      "inputs": [
        {
          "internalType": "uint256",
          "name": "have",
          "type": "uint256"
        },
        {
          "internalType": "uint256",
          "name": "need",
          "type": "uint256"
        }
      ],
      "name": "NotEnoughNative",
      "type": "error"
    },
    {
      "inputs": [
        {
          "internalType": "address",
          "name": "owner",
          "type": "address"
        }
      ],
      "name": "OwnableInvalidOwner",
      "type": "error"
    },
    {
      "inputs": [
        {
          "internalType": "address",
          "name": "account",
          "type": "address"
        }
      ],
      "name": "OwnableUnauthorizedAccount",
      "type": "error"
    },
    {
      "inputs": [
        {
          "internalType": "bytes",
          "name": "receiver",
          "type": "bytes"
        }
      ],
      "name": "ReceiverNotAllowlisted",
      "type": "error"
    },
    {
      "inputs": [],
      "name": "ReentrancyGuardReentrantCall",
      "type": "error"
    },
    {
      "inputs": [
        {
          "internalType": "address",
          "name": "token",
          "type": "address"
        }
      ],
      "name": "SafeERC20FailedOperation",
      "type": "error"
    },
    {
      "inputs": [],
      "name": "ZeroAllocation",
      "type": "error"
    },
    {
      "anonymous": false,
      "inputs": [
        {
          "indexed": true,
          "internalType": "bytes32",
          "name": "messageId",
          "type": "bytes32"
        },
        {
          "indexed": true,
          "internalType": "uint64",
          "name": "dstSelector",
          "type": "uint64"
        },
        {
          "indexed": true,
          "internalType": "bytes",
          "name": "receiver",
          "type": "bytes"
        },
        {
          "indexed": false,
          "internalType": "uint256",
          "name": "feePaidNative",
          "type": "uint256"
        }
      ],
      "name": "CCIPSent",
      "type": "event"
    },
    {
      "anonymous": false,
      "inputs": [
        {
          "indexed": false,
          "internalType": "uint64",
          "name": "selector",
          "type": "uint64"
        },
        {
          "indexed": false,
          "internalType": "bool",
          "name": "allowed",
          "type": "bool"
        }
      ],
      "name": "DestChainAllowlisted",
      "type": "event"
    },
    {
      "anonymous": false,
      "inputs": [
        {
          "indexed": false,
          "internalType": "uint64",
          "name": "selector",
          "type": "uint64"
        },
        {
          "indexed": false,
          "internalType": "uint256",
          "name": "gasLimit",
          "type": "uint256"
        }
      ],
      "name": "GasLimitSet",
      "type": "event"
    },
    {
      "anonymous": false,
      "inputs": [
        {
          "indexed": true,
          "internalType": "address",
          "name": "previousOwner",
          "type": "address"
        },
        {
          "indexed": true,
          "internalType": "address",
          "name": "newOwner",
          "type": "address"
        }
      ],
      "name": "OwnershipTransferred",
      "type": "event"
    },
    {
      "anonymous": false,
      "inputs": [
        {
          "indexed": true,
          "internalType": "address",
          "name": "user",
          "type": "address"
        },
        {
          "indexed": false,
          "internalType": "uint256",
          "name": "premiumPYUSD",
          "type": "uint256"
        },
        {
          "indexed": false,
          "internalType": "uint256",
          "name": "toLP",
          "type": "uint256"
        },
        {
          "indexed": false,
          "internalType": "uint256",
          "name": "toReserve",
          "type": "uint256"
        },
        {
          "indexed": false,
          "internalType": "bytes32",
          "name": "ccipMessageId",
          "type": "bytes32"
        }
      ],
      "name": "PremiumPaid",
      "type": "event"
    },
    {
      "anonymous": false,
      "inputs": [
        {
          "indexed": false,
          "internalType": "bytes",
          "name": "receiver",
          "type": "bytes"
        },
        {
          "indexed": false,
          "internalType": "bool",
          "name": "allowed",
          "type": "bool"
        }
      ],
      "name": "ReceiverAllowlisted",
      "type": "event"
    },
    {
      "anonymous": false,
      "inputs": [
        {
          "indexed": false,
          "internalType": "address",
          "name": "router",
          "type": "address"
        }
      ],
      "name": "RouterUpdated",
      "type": "event"
    },
    {
      "anonymous": false,
      "inputs": [
        {
          "indexed": false,
          "internalType": "uint256",
          "name": "bpsToLP",
          "type": "uint256"
        },
        {
          "indexed": false,
          "internalType": "uint256",
          "name": "bpsToReserve",
          "type": "uint256"
        }
      ],
      "name": "SplitUpdated",
      "type": "event"
    },
    {
      "anonymous": false,
      "inputs": [
        {
          "indexed": false,
          "internalType": "address",
          "name": "lpVault",
          "type": "address"
        },
        {
          "indexed": false,
          "internalType": "address",
          "name": "payoutVault",
          "type": "address"
        }
      ],
      "name": "VaultsUpdated",
      "type": "event"
    },
    {
      "inputs": [],
      "name": "PYUSD",
      "outputs": [
        {
          "internalType": "contract IERC20",
          "name": "",
          "type": "address"
        }
      ],
      "stateMutability": "view",
      "type": "function"
    },
    {
      "inputs": [
        {
          "internalType": "uint64",
          "name": "selector",
          "type": "uint64"
        },
        {
          "internalType": "bool",
          "name": "allowed",
          "type": "bool"
        }
      ],
      "name": "allowlistDestChain",
      "outputs": [],
      "stateMutability": "nonpayable",
      "type": "function"
    },
    {
      "inputs": [
        {
          "internalType": "bytes",
          "name": "receiver",
          "type": "bytes"
        },
        {
          "internalType": "bool",
          "name": "allowed",
          "type": "bool"
        }
      ],
      "name": "allowlistReceiver",
      "outputs": [],
      "stateMutability": "nonpayable",
      "type": "function"
    },
    {
      "inputs": [
        {
          "internalType": "uint64",
          "name": "",
          "type": "uint64"
        }
      ],
      "name": "allowlistedDestChains",
      "outputs": [
        {
          "internalType": "bool",
          "name": "",
          "type": "bool"
        }
      ],
      "stateMutability": "view",
      "type": "function"
    },
    {
      "inputs": [
        {
          "internalType": "bytes",
          "name": "",
          "type": "bytes"
        }
      ],
      "name": "allowlistedReceivers",
      "outputs": [
        {
          "internalType": "bool",
          "name": "",
          "type": "bool"
        }
      ],
      "stateMutability": "view",
      "type": "function"
    },
    {
      "inputs": [
        {
          "internalType": "uint64",
          "name": "dstChainSelector",
          "type": "uint64"
        },
        {
          "internalType": "bytes",
          "name": "hederaReceiver",
          "type": "bytes"
        },
        {
          "components": [
            {
              "internalType": "bytes32",
              "name": "poolId",
              "type": "bytes32"
            },
            {
              "internalType": "address",
              "name": "buyer",
              "type": "address"
            },
            {
              "internalType": "uint256",
              "name": "coverageAmount",
              "type": "uint256"
            },
            {
              "internalType": "uint64",
              "name": "startTs",
              "type": "uint64"
            },
            {
              "internalType": "uint64",
              "name": "endTs",
              "type": "uint64"
            },
            {
              "internalType": "bytes32",
              "name": "policyRef",
              "type": "bytes32"
            }
          ],
          "internalType": "struct PremiumVault.PolicyTerms",
          "name": "terms",
          "type": "tuple"
        },
        {
          "internalType": "uint256",
          "name": "premiumPYUSD",
          "type": "uint256"
        }
      ],
      "name": "buyCoverage",
      "outputs": [
        {
          "internalType": "bytes32",
          "name": "messageId",
          "type": "bytes32"
        }
      ],
      "stateMutability": "payable",
      "type": "function"
    },
    {
      "inputs": [
        {
          "internalType": "uint64",
          "name": "",
          "type": "uint64"
        }
      ],
      "name": "gasLimitByChain",
      "outputs": [
        {
          "internalType": "uint256",
          "name": "",
          "type": "uint256"
        }
      ],
      "stateMutability": "view",
      "type": "function"
    },
    {
      "inputs": [],
      "name": "lpVault",
      "outputs": [
        {
          "internalType": "address",
          "name": "",
          "type": "address"
        }
      ],
      "stateMutability": "view",
      "type": "function"
    },
    {
      "inputs": [],
      "name": "owner",
      "outputs": [
        {
          "internalType": "address",
          "name": "",
          "type": "address"
        }
      ],
      "stateMutability": "view",
      "type": "function"
    },
    {
      "inputs": [],
      "name": "payoutVault",
      "outputs": [
        {
          "internalType": "address",
          "name": "",
          "type": "address"
        }
      ],
      "stateMutability": "view",
      "type": "function"
    },
    {
      "inputs": [],
      "name": "premiumBpsToLP",
      "outputs": [
        {
          "internalType": "uint256",
          "name": "",
          "type": "uint256"
        }
      ],
      "stateMutability": "view",
      "type": "function"
    },
    {
      "inputs": [],
      "name": "premiumBpsToReserve",
      "outputs": [
        {
          "internalType": "uint256",
          "name": "",
          "type": "uint256"
        }
      ],
      "stateMutability": "view",
      "type": "function"
    },
    {
      "inputs": [
        {
          "internalType": "uint256",
          "name": "premiumPYUSD",
          "type": "uint256"
        }
      ],
      "name": "previewAllocation",
      "outputs": [
        {
          "internalType": "uint256",
          "name": "toLP",
          "type": "uint256"
        },
        {
          "internalType": "uint256",
          "name": "toReserve",
          "type": "uint256"
        }
      ],
      "stateMutability": "view",
      "type": "function"
    },
    {
      "inputs": [
        {
          "internalType": "uint64",
          "name": "dstChainSelector",
          "type": "uint64"
        },
        {
          "internalType": "bytes",
          "name": "hederaReceiver",
          "type": "bytes"
        },
        {
          "components": [
            {
              "internalType": "bytes32",
              "name": "poolId",
              "type": "bytes32"
            },
            {
              "internalType": "address",
              "name": "buyer",
              "type": "address"
            },
            {
              "internalType": "uint256",
              "name": "coverageAmount",
              "type": "uint256"
            },
            {
              "internalType": "uint64",
              "name": "startTs",
              "type": "uint64"
            },
            {
              "internalType": "uint64",
              "name": "endTs",
              "type": "uint64"
            },
            {
              "internalType": "bytes32",
              "name": "policyRef",
              "type": "bytes32"
            }
          ],
          "internalType": "struct PremiumVault.PolicyTerms",
          "name": "terms",
          "type": "tuple"
        }
      ],
      "name": "quoteCCIPFee",
      "outputs": [
        {
          "internalType": "uint256",
          "name": "",
          "type": "uint256"
        }
      ],
      "stateMutability": "view",
      "type": "function"
    },
    {
      "inputs": [],
      "name": "renounceOwnership",
      "outputs": [],
      "stateMutability": "nonpayable",
      "type": "function"
    },
    {
      "inputs": [
        {
          "internalType": "address",
          "name": "token",
          "type": "address"
        },
        {
          "internalType": "address",
          "name": "to",
          "type": "address"
        },
        {
          "internalType": "uint256",
          "name": "amt",
          "type": "uint256"
        }
      ],
      "name": "rescueToken",
      "outputs": [],
      "stateMutability": "nonpayable",
      "type": "function"
    },
    {
      "inputs": [],
      "name": "router",
      "outputs": [
        {
          "internalType": "contract IRouterClient",
          "name": "",
          "type": "address"
        }
      ],
      "stateMutability": "view",
      "type": "function"
    },
    {
      "inputs": [
        {
          "internalType": "uint64",
          "name": "selector",
          "type": "uint64"
        },
        {
          "internalType": "uint256",
          "name": "gasLimit",
          "type": "uint256"
        }
      ],
      "name": "setGasLimit",
      "outputs": [],
      "stateMutability": "nonpayable",
      "type": "function"
    },
    {
      "inputs": [
        {
          "internalType": "uint256",
          "name": "bpsToLP",
          "type": "uint256"
        },
        {
          "internalType": "uint256",
          "name": "bpsToReserve",
          "type": "uint256"
        }
      ],
      "name": "setPremiumSplits",
      "outputs": [],
      "stateMutability": "nonpayable",
      "type": "function"
    },
    {
      "inputs": [
        {
          "internalType": "address",
          "name": "_router",
          "type": "address"
        }
      ],
      "name": "setRouter",
      "outputs": [],
      "stateMutability": "nonpayable",
      "type": "function"
    },
    {
      "inputs": [
        {
          "internalType": "address",
          "name": "_lpVault",
          "type": "address"
        },
        {
          "internalType": "address",
          "name": "_payoutVault",
          "type": "address"
        }
      ],
      "name": "setVaults",
      "outputs": [],
      "stateMutability": "nonpayable",
      "type": "function"
    },
    {
      "inputs": [
        {
          "internalType": "address",
          "name": "newOwner",
          "type": "address"
        }
      ],
      "name": "transferOwnership",
      "outputs": [],
      "stateMutability": "nonpayable",
      "type": "function"
    },
    {
      "stateMutability": "payable",
      "type": "receive"
    }
  ],
  "bytecode": "0x60a0604052611b58600855610bb86009553480156200001d57600080fd5b5060405162001aa738038062001aa783398101604081905262000040916200019a565b806001600160a01b0381166200007057604051631e4fbdf760e01b81526000600482015260240160405180910390fd5b6200007b816200012d565b50600180556001600160a01b03851615806200009e57506001600160a01b038416155b80620000b157506001600160a01b038316155b80620000c457506001600160a01b038216155b15620000e35760405163e6c4247b60e01b815260040160405180910390fd5b50600480546001600160a01b039586166001600160a01b0319918216179091559284166080526002805492851692841692909217909155600380549190931691161790556200020a565b600080546001600160a01b038381166001600160a01b0319831681178455604051919092169283917f8be0079c531659141344cd1fd0a4f28419497f9722a3daafe3b4186f6b6457e09190a35050565b80516001600160a01b03811681146200019557600080fd5b919050565b600080600080600060a08688031215620001b357600080fd5b620001be866200017d565b9450620001ce602087016200017d565b9350620001de604087016200017d565b9250620001ee606087016200017d565b9150620001fe608087016200017d565b90509295509295909350565b60805161186c6200023b6000396000818161035301528181610a8a01528181610ada0152610b1a015261186c6000f3fe6080604052600436106101395760003560e01c80637cffd22f116100ab578063dc250dbb1161006f578063dc250dbb146103c2578063e5711e8b146103e2578063e8afa55214610402578063ed0da4c814610415578063f2fde38b14610435578063f887ea401461045557600080fd5b80637cffd22f146102ee5780638da5cb5b146103235780639e19789d14610341578063c0d7865514610375578063d7811f901461039557600080fd5b80634c451a6a116100fd5780634c451a6a146102325780634f649a29146102525780635848e3f4146102725780635b7df2b9146102ad578063715018a6146102c357806373e18978146102d857600080fd5b806313ce8c611461014557806314b2312a1461017857806328d9cea81461019a5780632f867367146101ba57806343e279d7146101f257600080fd5b3661014057005b600080fd5b34801561015157600080fd5b50610165610160366004611248565b610475565b6040519081526020015b60405180910390f35b34801561018457600080fd5b506101986101933660046112be565b6106b1565b005b3480156101a657600080fd5b506101986101b5366004611311565b61072b565b3480156101c657600080fd5b506002546101da906001600160a01b031681565b6040516001600160a01b03909116815260200161016f565b3480156101fe57600080fd5b5061022261020d366004611333565b60056020526000908152604090205460ff1681565b604051901515815260200161016f565b34801561023e57600080fd5b5061019861024d36600461136c565b6107d1565b34801561025e57600080fd5b506003546101da906001600160a01b031681565b34801561027e57600080fd5b5061022261028d3660046113b5565b805160208183018101805160068252928201919093012091525460ff1681565b3480156102b957600080fd5b5061016560085481565b3480156102cf57600080fd5b5061019861087b565b3480156102e457600080fd5b5061016560095481565b3480156102fa57600080fd5b5061030e610309366004611465565b61088f565b6040805192835260208301919091520161016f565b34801561032f57600080fd5b506000546001600160a01b03166101da565b34801561034d57600080fd5b506101da7f000000000000000000000000000000000000000000000000000000000000000081565b34801561038157600080fd5b5061019861039036600461147e565b6108a4565b3480156103a157600080fd5b506101656103b0366004611333565b60076020526000908152604090205481565b3480156103ce57600080fd5b506101986103dd366004611499565b610927565b3480156103ee57600080fd5b506101986103fd3660046114c3565b610980565b6101656104103660046114ff565b6109c8565b34801561042157600080fd5b5061019861043036600461156e565b610ef5565b34801561044157600080fd5b5061019861045036600461147e565b610f59565b34801561046157600080fd5b506004546101da906001600160a01b031681565b6001600160401b03841660009081526005602052604081205460ff166104be5760405163e448071360e01b81526001600160401b03861660048201526024015b60405180910390fd5b600684846040516104d0929190611598565b9081526040519081900360200190205460ff16610504578383604051638b1ef2bf60e01b81526004016104b59291906115d1565b6001600160401b03851660009081526007602052604081205490819003610549576040516303226bdf60e61b81526001600160401b03871660048201526024016104b5565b6040805160c06020601f8801819004028201810190925260a08101868152600092829190899089908190850183828082843760009201919091525050509082525060405160209182019161059f918891016115ed565b60408051601f19818403018152919052815260200160006040519080825280602002602001820160405280156105fb57816020015b60408051808201909152600080825260208201528152602001906001900390816105d45790505b50815260200160006001600160a01b03168152602001610631604051806040016040528086815260200160011515815250610f97565b9052600480546040516320487ded60e01b81529293506001600160a01b0316916320487ded91610665918b918691016116a0565b602060405180830381865afa158015610682573d6000803e3d6000fd5b505050506040513d601f19601f820116820180604052508101906106a6919061177c565b979650505050505050565b6106b9610fd4565b80600684846040516106cc929190611598565b908152604051908190036020018120805492151560ff19909316929092179091557f59243006a04915d95353ffd5d2d6409c55045a73f6554544eb910d6aff810a0e9061071e90859085908590611795565b60405180910390a1505050565b610733610fd4565b8115801561073f575080155b1561075d5760405163ba0d87b560e01b815260040160405180910390fd5b61271061076a82846117d1565b1115610789576040516312dd67db60e31b815260040160405180910390fd5b6008829055600981905560408051838152602081018390527f9cd6d44702149b08383af5f5a93a687f0f6500579bbaf916aa508713a110277d91015b60405180910390a15050565b6107d9610fd4565b6001600160a01b03821615806107f657506001600160a01b038116155b156108145760405163e6c4247b60e01b815260040160405180910390fd5b600280546001600160a01b038481166001600160a01b03199283168117909355600380549185169190921681179091556040805192835260208301919091527f9db2b04d4c5e7773073a7ec38f769372d46d082a41b67979e17d4313cf92795f91016107c5565b610883610fd4565b61088d6000611001565b565b60008061089b83611051565b91509150915091565b6108ac610fd4565b6001600160a01b0381166108d35760405163e6c4247b60e01b815260040160405180910390fd5b600480546001600160a01b0319166001600160a01b0383169081179091556040519081527f7aed1d3e8155a07ccf395e44ea3109a0e2d6c9b29bbbe9f142d9790596f4dc809060200160405180910390a150565b61092f610fd4565b6001600160401b038216600081815260076020908152604091829020849055815192835282018390527f92cf3fbb447f2729b357d4e0ab3781c426b83f3a2e5329a4b394ea5718ae0bc491016107c5565b610988610fd4565b6001600160a01b0382166109af5760405163e6c4247b60e01b815260040160405180910390fd5b6109c36001600160a01b0384168383611093565b505050565b60006109d26110f2565b6001600160401b03861660009081526005602052604090205460ff16610a165760405163e448071360e01b81526001600160401b03871660048201526024016104b5565b60068585604051610a28929190611598565b9081526040519081900360200190205460ff16610a5c578484604051638b1ef2bf60e01b81526004016104b59291906115d1565b81600003610a7d5760405163162908e360e11b815260040160405180910390fd5b610ab26001600160a01b037f00000000000000000000000000000000000000000000000000000000000000001633308561111c565b600080610abe84611051565b90925090508115610b0357600254610b03906001600160a01b037f00000000000000000000000000000000000000000000000000000000000000008116911684611093565b8015610b4357600354610b43906001600160a01b037f00000000000000000000000000000000000000000000000000000000000000008116911683611093565b6001600160401b03881660009081526007602052604081205490819003610b88576040516303226bdf60e61b81526001600160401b038a1660048201526024016104b5565b6040805160c06020601f8b01819004028201810190925260a081018981526000928291908c908c9081908501838280828437600092019190915250505090825250604051602091820191610bde918b91016115ed565b60408051601f1981840301815291905281526020016000604051908082528060200260200182016040528015610c3a57816020015b6040805180820190915260008082526020820152815260200190600190039081610c135790505b50815260200160006001600160a01b03168152602001610c70604051806040016040528086815260200160011515815250610f97565b9052600480546040516320487ded60e01b81529293506000926001600160a01b03909116916320487ded91610ca9918f918791016116a0565b602060405180830381865afa158015610cc6573d6000803e3d6000fd5b505050506040513d601f19601f82011682018060405250810190610cea919061177c565b905080341015610d165760405163ce001ca760e01b8152346004820152602481018290526044016104b5565b600460009054906101000a90046001600160a01b03166001600160a01b03166396f4e9f9828d856040518463ffffffff1660e01b8152600401610d5a9291906116a0565b60206040518083038185885af1158015610d78573d6000803e3d6000fd5b50505050506040513d601f19601f82011682018060405250810190610d9d919061177c565b955080341115610e3857600033610db483346117ea565b604051600081818185875af1925050503d8060008114610df0576040519150601f19603f3d011682016040523d82523d6000602084013e610df5565b606091505b5050905080610e365760405162461bcd60e51b815260206004820152600d60248201526c1499599d5b990819985a5b1959609a1b60448201526064016104b5565b505b8989604051610e48929190611598565b60405180910390208b6001600160401b0316877f9f8ab712f30e1279ab4bbcd9a22ef9ef1e7038acc56ca6193491dbd716f45d7c84604051610e8c91815260200190565b60405180910390a460408051888152602081018790529081018590526060810187905233907f245c6b91720beb663d1a62bf86b17014140584ea630ea8d51d0f245734acd1959060800160405180910390a25050505050610eec60018055565b95945050505050565b610efd610fd4565b6001600160401b038216600081815260056020908152604091829020805460ff19168515159081179091558251938452908301527f64d3fe1e93104e5f5fa8ae03588285e68ebddfd0665238cc412659083ab6725191016107c5565b610f61610fd4565b6001600160a01b038116610f8b57604051631e4fbdf760e01b8152600060048201526024016104b5565b610f9481611001565b50565b606081604051602001610fbe91908151815260209182015115159181019190915260400190565b6040516020818303038152906040529050919050565b6000546001600160a01b0316331461088d5760405163118cdaa760e01b81523360048201526024016104b5565b600080546001600160a01b038381166001600160a01b0319831681178455604051919092169283917f8be0079c531659141344cd1fd0a4f28419497f9722a3daafe3b4186f6b6457e09190a35050565b6000806127106008548461106591906117fd565b61106f9190611814565b91506127106009548461108291906117fd565b61108c9190611814565b9050915091565b6040516001600160a01b038381166024830152604482018390526109c391859182169063a9059cbb906064015b604051602081830303815290604052915060e01b6020820180516001600160e01b03838183161783525050505061115b565b60026001540361111557604051633ee5aeb560e01b815260040160405180910390fd5b6002600155565b6040516001600160a01b0384811660248301528381166044830152606482018390526111559186918216906323b872dd906084016110c0565b50505050565b600080602060008451602086016000885af18061117e576040513d6000823e3d81fd5b50506000513d915081156111965780600114156111a3565b6001600160a01b0384163b155b1561115557604051635274afe760e01b81526001600160a01b03851660048201526024016104b5565b80356001600160401b03811681146111e357600080fd5b919050565b60008083601f8401126111fa57600080fd5b5081356001600160401b0381111561121157600080fd5b60208301915083602082850101111561122957600080fd5b9250929050565b600060c0828403121561124257600080fd5b50919050565b600080600080610100858703121561125f57600080fd5b611268856111cc565b935060208501356001600160401b0381111561128357600080fd5b61128f878288016111e8565b90945092506112a390508660408701611230565b905092959194509250565b803580151581146111e357600080fd5b6000806000604084860312156112d357600080fd5b83356001600160401b038111156112e957600080fd5b6112f5868287016111e8565b90945092506113089050602085016112ae565b90509250925092565b6000806040838503121561132457600080fd5b50508035926020909101359150565b60006020828403121561134557600080fd5b61134e826111cc565b9392505050565b80356001600160a01b03811681146111e357600080fd5b6000806040838503121561137f57600080fd5b61138883611355565b915061139660208401611355565b90509250929050565b634e487b7160e01b600052604160045260246000fd5b6000602082840312156113c757600080fd5b81356001600160401b03808211156113de57600080fd5b818401915084601f8301126113f257600080fd5b8135818111156114045761140461139f565b604051601f8201601f19908116603f0116810190838211818310171561142c5761142c61139f565b8160405282815287602084870101111561144557600080fd5b826020860160208301376000928101602001929092525095945050505050565b60006020828403121561147757600080fd5b5035919050565b60006020828403121561149057600080fd5b61134e82611355565b600080604083850312156114ac57600080fd5b6114b5836111cc565b946020939093013593505050565b6000806000606084860312156114d857600080fd5b6114e184611355565b92506114ef60208501611355565b9150604084013590509250925092565b6000806000806000610120868803121561151857600080fd5b611521866111cc565b945060208601356001600160401b0381111561153c57600080fd5b611548888289016111e8565b909550935061155c90508760408801611230565b94979396509194610100013592915050565b6000806040838503121561158157600080fd5b61158a836111cc565b9150611396602084016112ae565b8183823760009101908152919050565b81835281816020850137506000828201602090810191909152601f909101601f19169091010190565b6020815260006115e56020830184866115a8565b949350505050565b8135815260c081016001600160a01b0361160960208501611355565b16602083015260408301356040830152611625606084016111cc565b6001600160401b03808216606085015280611642608087016111cc565b166080850152505060a083013560a083015292915050565b6000815180845260005b8181101561168057602081850181015186830182015201611664565b506000602082860101526020601f19601f83011685010191505092915050565b600060406001600160401b03851683526020604081850152845160a060408601526116ce60e086018261165a565b905081860151603f19808784030160608801526116eb838361165a565b6040890151888203830160808a01528051808352908601945060009350908501905b8084101561173f57845180516001600160a01b031683528601518683015293850193600193909301929086019061170d565b5060608901516001600160a01b031660a08901526080890151888203830160c08a0152955061176e818761165a565b9a9950505050505050505050565b60006020828403121561178e57600080fd5b5051919050565b6040815260006117a96040830185876115a8565b90508215156020830152949350505050565b634e487b7160e01b600052601160045260246000fd5b808201808211156117e4576117e46117bb565b92915050565b818103818111156117e4576117e46117bb565b80820281158282048414176117e4576117e46117bb565b60008261183157634e487b7160e01b600052601260045260246000fd5b50049056fea26469706673582212209e5d7dd80b624cb046a4341f1ba30637004c8b896117458bd03abf316051aae264736f6c63430008180033",
  "linkReferences": {},
  "deployedLinkReferences": {}
}