{
  "_format": "hh3-artifact-1",
  "contractName": "PolicyManager",
  "sourceName": "contracts/PolicyManager.sol",
  "abi": [
    {
      "inputs": [
        {
          "internalType": "address",
          "name": "_router",
          "type": "address"
        },
        {
          "internalType": "address",
          "name": "_owner",
          "type": "address"
        }
      ],
      "stateMutability": "nonpayable",
      "type": "constructor"
    },
    {
      "inputs": [
        {
          "internalType": "address",
          "name": "sender",
          "type": "address"
        },
        {
          "internalType": "uint256",
          "name": "tokenId",
          "type": "uint256"
        },
        {
          "internalType": "address",
          "name": "owner",
          "type": "address"
        }
      ],
      "name": "ERC721IncorrectOwner",
      "type": "error"
    },
    {
      "inputs": [
        {
          "internalType": "address",
          "name": "operator",
          "type": "address"
        },
        {
          "internalType": "uint256",
          "name": "tokenId",
          "type": "uint256"
        }
      ],
      "name": "ERC721InsufficientApproval",
      "type": "error"
    },
    {
      "inputs": [
        {
          "internalType": "address",
          "name": "approver",
          "type": "address"
        }
      ],
      "name": "ERC721InvalidApprover",
      "type": "error"
    },
    {
      "inputs": [
        {
          "internalType": "address",
          "name": "operator",
          "type": "address"
        }
      ],
      "name": "ERC721InvalidOperator",
      "type": "error"
    },
    {
      "inputs": [
        {
          "internalType": "address",
          "name": "owner",
          "type": "address"
        }
      ],
      "name": "ERC721InvalidOwner",
      "type": "error"
    },
    {
      "inputs": [
        {
          "internalType": "address",
          "name": "receiver",
          "type": "address"
        }
      ],
      "name": "ERC721InvalidReceiver",
      "type": "error"
    },
    {
      "inputs": [
        {
          "internalType": "address",
          "name": "sender",
          "type": "address"
        }
      ],
      "name": "ERC721InvalidSender",
      "type": "error"
    },
    {
      "inputs": [
        {
          "internalType": "uint256",
          "name": "tokenId",
          "type": "uint256"
        }
      ],
      "name": "ERC721NonexistentToken",
      "type": "error"
    },
    {
      "inputs": [
        {
          "internalType": "bytes32",
          "name": "messageId",
          "type": "bytes32"
        }
      ],
      "name": "MessageAlreadyProcessed",
      "type": "error"
    },
    {
      "inputs": [
        {
          "internalType": "uint64",
          "name": "sel",
          "type": "uint64"
        }
      ],
      "name": "NotAllowlistedChain",
      "type": "error"
    },
    {
      "inputs": [
        {
          "internalType": "bytes",
          "name": "sender",
          "type": "bytes"
        }
      ],
      "name": "NotAllowlistedSender",
      "type": "error"
    },
    {
      "inputs": [
        {
          "internalType": "address",
          "name": "owner",
          "type": "address"
        }
      ],
      "name": "OwnableInvalidOwner",
      "type": "error"
    },
    {
      "inputs": [
        {
          "internalType": "address",
          "name": "account",
          "type": "address"
        }
      ],
      "name": "OwnableUnauthorizedAccount",
      "type": "error"
    },
    {
      "inputs": [],
      "name": "ReentrancyGuardReentrantCall",
      "type": "error"
    },
    {
      "inputs": [],
      "name": "ZeroAddress",
      "type": "error"
    },
    {
      "anonymous": false,
      "inputs": [
        {
          "indexed": true,
          "internalType": "address",
          "name": "owner",
          "type": "address"
        },
        {
          "indexed": true,
          "internalType": "address",
          "name": "approved",
          "type": "address"
        },
        {
          "indexed": true,
          "internalType": "uint256",
          "name": "tokenId",
          "type": "uint256"
        }
      ],
      "name": "Approval",
      "type": "event"
    },
    {
      "anonymous": false,
      "inputs": [
        {
          "indexed": true,
          "internalType": "address",
          "name": "owner",
          "type": "address"
        },
        {
          "indexed": true,
          "internalType": "address",
          "name": "operator",
          "type": "address"
        },
        {
          "indexed": false,
          "internalType": "bool",
          "name": "approved",
          "type": "bool"
        }
      ],
      "name": "ApprovalForAll",
      "type": "event"
    },
    {
      "anonymous": false,
      "inputs": [
        {
          "indexed": true,
          "internalType": "address",
          "name": "previousOwner",
          "type": "address"
        },
        {
          "indexed": true,
          "internalType": "address",
          "name": "newOwner",
          "type": "address"
        }
      ],
      "name": "OwnershipTransferred",
      "type": "event"
    },
    {
      "anonymous": false,
      "inputs": [
        {
          "indexed": true,
          "internalType": "bytes32",
          "name": "policyId",
          "type": "bytes32"
        },
        {
          "indexed": true,
          "internalType": "address",
          "name": "buyer",
          "type": "address"
        },
        {
          "indexed": false,
          "internalType": "uint256",
          "name": "tokenId",
          "type": "uint256"
        }
      ],
      "name": "PolicyRegistered",
      "type": "event"
    },
    {
      "anonymous": false,
      "inputs": [
        {
          "indexed": false,
          "internalType": "bytes",
          "name": "sender",
          "type": "bytes"
        },
        {
          "indexed": false,
          "internalType": "bool",
          "name": "allowed",
          "type": "bool"
        }
      ],
      "name": "SenderAllowlisted",
      "type": "event"
    },
    {
      "anonymous": false,
      "inputs": [
        {
          "indexed": false,
          "internalType": "uint64",
          "name": "selector",
          "type": "uint64"
        },
        {
          "indexed": false,
          "internalType": "bool",
          "name": "allowed",
          "type": "bool"
        }
      ],
      "name": "SourceChainAllowlisted",
      "type": "event"
    },
    {
      "anonymous": false,
      "inputs": [
        {
          "indexed": true,
          "internalType": "address",
          "name": "from",
          "type": "address"
        },
        {
          "indexed": true,
          "internalType": "address",
          "name": "to",
          "type": "address"
        },
        {
          "indexed": true,
          "internalType": "uint256",
          "name": "tokenId",
          "type": "uint256"
        }
      ],
      "name": "Transfer",
      "type": "event"
    },
    {
      "inputs": [
        {
          "internalType": "bytes",
          "name": "sender",
          "type": "bytes"
        },
        {
          "internalType": "bool",
          "name": "allowed",
          "type": "bool"
        }
      ],
      "name": "allowlistSender",
      "outputs": [],
      "stateMutability": "nonpayable",
      "type": "function"
    },
    {
      "inputs": [
        {
          "internalType": "uint64",
          "name": "selector",
          "type": "uint64"
        },
        {
          "internalType": "bool",
          "name": "allowed",
          "type": "bool"
        }
      ],
      "name": "allowlistSourceChain",
      "outputs": [],
      "stateMutability": "nonpayable",
      "type": "function"
    },
    {
      "inputs": [
        {
          "internalType": "bytes",
          "name": "",
          "type": "bytes"
        }
      ],
      "name": "allowlistedSenders",
      "outputs": [
        {
          "internalType": "bool",
          "name": "",
          "type": "bool"
        }
      ],
      "stateMutability": "view",
      "type": "function"
    },
    {
      "inputs": [
        {
          "internalType": "uint64",
          "name": "",
          "type": "uint64"
        }
      ],
      "name": "allowlistedSourceChains",
      "outputs": [
        {
          "internalType": "bool",
          "name": "",
          "type": "bool"
        }
      ],
      "stateMutability": "view",
      "type": "function"
    },
    {
      "inputs": [
        {
          "internalType": "address",
          "name": "to",
          "type": "address"
        },
        {
          "internalType": "uint256",
          "name": "tokenId",
          "type": "uint256"
        }
      ],
      "name": "approve",
      "outputs": [],
      "stateMutability": "nonpayable",
      "type": "function"
    },
    {
      "inputs": [
        {
          "internalType": "address",
          "name": "owner",
          "type": "address"
        }
      ],
      "name": "balanceOf",
      "outputs": [
        {
          "internalType": "uint256",
          "name": "",
          "type": "uint256"
        }
      ],
      "stateMutability": "view",
      "type": "function"
    },
    {
      "inputs": [
        {
          "internalType": "uint256",
          "name": "tokenId",
          "type": "uint256"
        }
      ],
      "name": "getApproved",
      "outputs": [
        {
          "internalType": "address",
          "name": "",
          "type": "address"
        }
      ],
      "stateMutability": "view",
      "type": "function"
    },
    {
      "inputs": [
        {
          "internalType": "bytes32",
          "name": "policyId",
          "type": "bytes32"
        }
      ],
      "name": "getPolicy",
      "outputs": [
        {
          "components": [
            {
              "internalType": "bytes32",
              "name": "poolId",
              "type": "bytes32"
            },
            {
              "internalType": "address",
              "name": "buyer",
              "type": "address"
            },
            {
              "internalType": "uint256",
              "name": "coverageAmount",
              "type": "uint256"
            },
            {
              "internalType": "uint64",
              "name": "startTs",
              "type": "uint64"
            },
            {
              "internalType": "uint64",
              "name": "endTs",
              "type": "uint64"
            },
            {
              "internalType": "bytes32",
              "name": "policyRef",
              "type": "bytes32"
            },
            {
              "internalType": "uint256",
              "name": "tokenId",
              "type": "uint256"
            },
            {
              "internalType": "bool",
              "name": "active",
              "type": "bool"
            }
          ],
          "internalType": "struct PolicyManager.Policy",
          "name": "",
          "type": "tuple"
        }
      ],
      "stateMutability": "view",
      "type": "function"
    },
    {
      "inputs": [
        {
          "internalType": "address",
          "name": "owner",
          "type": "address"
        },
        {
          "internalType": "address",
          "name": "operator",
          "type": "address"
        }
      ],
      "name": "isApprovedForAll",
      "outputs": [
        {
          "internalType": "bool",
          "name": "",
          "type": "bool"
        }
      ],
      "stateMutability": "view",
      "type": "function"
    },
    {
      "inputs": [],
      "name": "name",
      "outputs": [
        {
          "internalType": "string",
          "name": "",
          "type": "string"
        }
      ],
      "stateMutability": "view",
      "type": "function"
    },
    {
      "inputs": [],
      "name": "nextTokenId",
      "outputs": [
        {
          "internalType": "uint256",
          "name": "",
          "type": "uint256"
        }
      ],
      "stateMutability": "view",
      "type": "function"
    },
    {
      "inputs": [],
      "name": "owner",
      "outputs": [
        {
          "internalType": "address",
          "name": "",
          "type": "address"
        }
      ],
      "stateMutability": "view",
      "type": "function"
    },
    {
      "inputs": [
        {
          "internalType": "uint256",
          "name": "tokenId",
          "type": "uint256"
        }
      ],
      "name": "ownerOf",
      "outputs": [
        {
          "internalType": "address",
          "name": "",
          "type": "address"
        }
      ],
      "stateMutability": "view",
      "type": "function"
    },
    {
      "inputs": [
        {
          "internalType": "bytes32",
          "name": "",
          "type": "bytes32"
        }
      ],
      "name": "policies",
      "outputs": [
        {
          "internalType": "bytes32",
          "name": "poolId",
          "type": "bytes32"
        },
        {
          "internalType": "address",
          "name": "buyer",
          "type": "address"
        },
        {
          "internalType": "uint256",
          "name": "coverageAmount",
          "type": "uint256"
        },
        {
          "internalType": "uint64",
          "name": "startTs",
          "type": "uint64"
        },
        {
          "internalType": "uint64",
          "name": "endTs",
          "type": "uint64"
        },
        {
          "internalType": "bytes32",
          "name": "policyRef",
          "type": "bytes32"
        },
        {
          "internalType": "uint256",
          "name": "tokenId",
          "type": "uint256"
        },
        {
          "internalType": "bool",
          "name": "active",
          "type": "bool"
        }
      ],
      "stateMutability": "view",
      "type": "function"
    },
    {
      "inputs": [
        {
          "internalType": "bytes32",
          "name": "",
          "type": "bytes32"
        }
      ],
      "name": "processedMessages",
      "outputs": [
        {
          "internalType": "bool",
          "name": "",
          "type": "bool"
        }
      ],
      "stateMutability": "view",
      "type": "function"
    },
    {
      "inputs": [],
      "name": "renounceOwnership",
      "outputs": [],
      "stateMutability": "nonpayable",
      "type": "function"
    },
    {
      "inputs": [],
      "name": "router",
      "outputs": [
        {
          "internalType": "contract IRouterClient",
          "name": "",
          "type": "address"
        }
      ],
      "stateMutability": "view",
      "type": "function"
    },
    {
      "inputs": [
        {
          "internalType": "address",
          "name": "from",
          "type": "address"
        },
        {
          "internalType": "address",
          "name": "to",
          "type": "address"
        },
        {
          "internalType": "uint256",
          "name": "tokenId",
          "type": "uint256"
        }
      ],
      "name": "safeTransferFrom",
      "outputs": [],
      "stateMutability": "nonpayable",
      "type": "function"
    },
    {
      "inputs": [
        {
          "internalType": "address",
          "name": "from",
          "type": "address"
        },
        {
          "internalType": "address",
          "name": "to",
          "type": "address"
        },
        {
          "internalType": "uint256",
          "name": "tokenId",
          "type": "uint256"
        },
        {
          "internalType": "bytes",
          "name": "data",
          "type": "bytes"
        }
      ],
      "name": "safeTransferFrom",
      "outputs": [],
      "stateMutability": "nonpayable",
      "type": "function"
    },
    {
      "inputs": [
        {
          "internalType": "address",
          "name": "operator",
          "type": "address"
        },
        {
          "internalType": "bool",
          "name": "approved",
          "type": "bool"
        }
      ],
      "name": "setApprovalForAll",
      "outputs": [],
      "stateMutability": "nonpayable",
      "type": "function"
    },
    {
      "inputs": [
        {
          "internalType": "bytes4",
          "name": "interfaceId",
          "type": "bytes4"
        }
      ],
      "name": "supportsInterface",
      "outputs": [
        {
          "internalType": "bool",
          "name": "",
          "type": "bool"
        }
      ],
      "stateMutability": "view",
      "type": "function"
    },
    {
      "inputs": [],
      "name": "symbol",
      "outputs": [
        {
          "internalType": "string",
          "name": "",
          "type": "string"
        }
      ],
      "stateMutability": "view",
      "type": "function"
    },
    {
      "inputs": [
        {
          "internalType": "uint256",
          "name": "tokenId",
          "type": "uint256"
        }
      ],
      "name": "tokenURI",
      "outputs": [
        {
          "internalType": "string",
          "name": "",
          "type": "string"
        }
      ],
      "stateMutability": "view",
      "type": "function"
    },
    {
      "inputs": [
        {
          "internalType": "address",
          "name": "from",
          "type": "address"
        },
        {
          "internalType": "address",
          "name": "to",
          "type": "address"
        },
        {
          "internalType": "uint256",
          "name": "tokenId",
          "type": "uint256"
        }
      ],
      "name": "transferFrom",
      "outputs": [],
      "stateMutability": "nonpayable",
      "type": "function"
    },
    {
      "inputs": [
        {
          "internalType": "address",
          "name": "newOwner",
          "type": "address"
        }
      ],
      "name": "transferOwnership",
      "outputs": [],
      "stateMutability": "nonpayable",
      "type": "function"
    }
  ],
  "bytecode": "0x60a060405234801562000010575f80fd5b5060405162002f6d38038062002f6d8339818101604052810190620000369190620002bb565b806040518060400160405280601481526020017f44654669477561726469616e7320506f6c6963790000000000000000000000008152506040518060400160405280600681526020017f44472d504f4c0000000000000000000000000000000000000000000000000000815250848073ffffffffffffffffffffffffffffffffffffffff1660808173ffffffffffffffffffffffffffffffffffffffff168152505050815f9081620000e9919062000564565b508060019081620000fb919062000564565b5050505f73ffffffffffffffffffffffffffffffffffffffff168173ffffffffffffffffffffffffffffffffffffffff160362000171575f6040517f1e4fbdf700000000000000000000000000000000000000000000000000000000815260040162000168919062000659565b60405180910390fd5b62000182816200019360201b60201c565b506001600781905550505062000674565b5f60065f9054906101000a900473ffffffffffffffffffffffffffffffffffffffff1690508160065f6101000a81548173ffffffffffffffffffffffffffffffffffffffff021916908373ffffffffffffffffffffffffffffffffffffffff1602179055508173ffffffffffffffffffffffffffffffffffffffff168173ffffffffffffffffffffffffffffffffffffffff167f8be0079c531659141344cd1fd0a4f28419497f9722a3daafe3b4186f6b6457e060405160405180910390a35050565b5f80fd5b5f73ffffffffffffffffffffffffffffffffffffffff82169050919050565b5f62000285826200025a565b9050919050565b620002978162000279565b8114620002a2575f80fd5b50565b5f81519050620002b5816200028c565b92915050565b5f8060408385031215620002d457620002d362000256565b5b5f620002e385828601620002a5565b9250506020620002f685828601620002a5565b9150509250929050565b5f81519050919050565b7f4e487b71000000000000000000000000000000000000000000000000000000005f52604160045260245ffd5b7f4e487b71000000000000000000000000000000000000000000000000000000005f52602260045260245ffd5b5f60028204905060018216806200037c57607f821691505b60208210810362000392576200039162000337565b5b50919050565b5f819050815f5260205f209050919050565b5f6020601f8301049050919050565b5f82821b905092915050565b5f60088302620003f67fffffffffffffffffffffffffffffffffffffffffffffffffffffffffffffffff82620003b9565b620004028683620003b9565b95508019841693508086168417925050509392505050565b5f819050919050565b5f819050919050565b5f6200044c6200044662000440846200041a565b62000423565b6200041a565b9050919050565b5f819050919050565b62000467836200042c565b6200047f620004768262000453565b848454620003c5565b825550505050565b5f90565b6200049562000487565b620004a28184846200045c565b505050565b5b81811015620004c957620004bd5f826200048b565b600181019050620004a8565b5050565b601f8211156200051857620004e28162000398565b620004ed84620003aa565b81016020851015620004fd578190505b620005156200050c85620003aa565b830182620004a7565b50505b505050565b5f82821c905092915050565b5f6200053a5f19846008026200051d565b1980831691505092915050565b5f62000554838362000529565b9150826002028217905092915050565b6200056f8262000300565b67ffffffffffffffff8111156200058b576200058a6200030a565b5b62000597825462000364565b620005a4828285620004cd565b5f60209050601f831160018114620005da575f8415620005c5578287015190505b620005d1858262000547565b86555062000640565b601f198416620005ea8662000398565b5f5b828110156200061357848901518255600182019150602085019450602081019050620005ec565b868310156200063357848901516200062f601f89168262000529565b8355505b6001600288020188555050505b505050505050565b620006538162000279565b82525050565b5f6020820190506200066e5f83018462000648565b92915050565b6080516128e06200068d5f395f610e4201526128e05ff3fe608060405234801561000f575f80fd5b5060043610610171575f3560e01c806388ba16ab116100dc578063b88d4fde11610095578063ddbfd8ef1161006f578063ddbfd8ef1461046b578063e985e9c5146104a2578063f2fde38b146104d2578063f887ea40146104ee57610171565b8063b88d4fde14610403578063c87b56dd1461041f578063db04fa491461044f57610171565b806388ba16ab1461031b5780638da5cb5b1461034b57806395d89b4114610369578063a22cb46514610387578063a3f685f9146103a3578063ad5eeb79146103d357610171565b80634030d5211161012e5780634030d5211461024757806342842e0e146102775780636352211e1461029357806370a08231146102c3578063715018a6146102f357806375794a3c146102fd57610171565b806301ffc9a71461017557806306fdde03146101a5578063081812fc146101c3578063095ea7b3146101f357806313963a271461020f57806323b872dd1461022b575b5f80fd5b61018f600480360381019061018a9190611c90565b61050c565b60405161019c9190611cd5565b60405180910390f35b6101ad6105ed565b6040516101ba9190611d78565b60405180910390f35b6101dd60048036038101906101d89190611dcb565b61067c565b6040516101ea9190611e35565b60405180910390f35b61020d60048036038101906102089190611e78565b610697565b005b61022960048036038101906102249190611f41565b6106ad565b005b61024560048036038101906102409190611f9e565b61072c565b005b610261600480360381019061025c919061202b565b61082b565b60405161026e9190611cd5565b60405180910390f35b610291600480360381019061028c9190611f9e565b610848565b005b6102ad60048036038101906102a89190611dcb565b610867565b6040516102ba9190611e35565b60405180910390f35b6102dd60048036038101906102d89190612056565b610878565b6040516102ea9190612090565b60405180910390f35b6102fb61092e565b005b610305610941565b6040516103129190612090565b60405180910390f35b610335600480360381019061033091906120dc565b610947565b6040516103429190611cd5565b60405180910390f35b610353610964565b6040516103609190611e35565b60405180910390f35b61037161098c565b60405161037e9190611d78565b60405180910390f35b6103a1600480360381019061039c9190612107565b610a1c565b005b6103bd60048036038101906103b891906120dc565b610a32565b6040516103ca9190612230565b60405180910390f35b6103ed60048036038101906103e89190612372565b610b57565b6040516103fa9190611cd5565b60405180910390f35b61041d600480360381019061041891906123b9565b610b8c565b005b61043960048036038101906104349190611dcb565b610bb1565b6040516104469190611d78565b60405180910390f35b61046960048036038101906104649190612439565b610c17565b005b610485600480360381019061048091906120dc565b610c98565b604051610499989796959493929190612495565b60405180910390f35b6104bc60048036038101906104b79190612511565b610d2e565b6040516104c99190611cd5565b60405180910390f35b6104ec60048036038101906104e79190612056565b610dbc565b005b6104f6610e40565b60405161050391906125aa565b60405180910390f35b5f7f80ac58cd000000000000000000000000000000000000000000000000000000007bffffffffffffffffffffffffffffffffffffffffffffffffffffffff1916827bffffffffffffffffffffffffffffffffffffffffffffffffffffffff191614806105d657507f5b5e139f000000000000000000000000000000000000000000000000000000007bffffffffffffffffffffffffffffffffffffffffffffffffffffffff1916827bffffffffffffffffffffffffffffffffffffffffffffffffffffffff1916145b806105e657506105e582610e64565b5b9050919050565b60605f80546105fb906125f0565b80601f0160208091040260200160405190810160405280929190818152602001828054610627906125f0565b80156106725780601f1061064957610100808354040283529160200191610672565b820191905f5260205f20905b81548152906001019060200180831161065557829003601f168201915b5050505050905090565b5f61068682610ecd565b5061069082610f53565b9050919050565b6106a982826106a4610f8c565b610f93565b5050565b6106b5610fa5565b80600984846040516106c892919061264e565b90815260200160405180910390205f6101000a81548160ff0219169083151502179055507fbc4b6d2189c6df4aa6f7b94df6bf05d89b064eaff45e5aa07f3ec9ceae13473383838360405161071f939291906126a2565b60405180910390a1505050565b5f73ffffffffffffffffffffffffffffffffffffffff168273ffffffffffffffffffffffffffffffffffffffff160361079c575f6040517f64a0ae920000000000000000000000000000000000000000000000000000000081526004016107939190611e35565b60405180910390fd5b5f6107af83836107aa610f8c565b61102c565b90508373ffffffffffffffffffffffffffffffffffffffff168173ffffffffffffffffffffffffffffffffffffffff1614610825578382826040517f64283d7b00000000000000000000000000000000000000000000000000000000815260040161081c939291906126d2565b60405180910390fd5b50505050565b6008602052805f5260405f205f915054906101000a900460ff1681565b61086283838360405180602001604052805f815250610b8c565b505050565b5f61087182610ecd565b9050919050565b5f8073ffffffffffffffffffffffffffffffffffffffff168273ffffffffffffffffffffffffffffffffffffffff16036108e9575f6040517f89c62b640000000000000000000000000000000000000000000000000000000081526004016108e09190611e35565b60405180910390fd5b60035f8373ffffffffffffffffffffffffffffffffffffffff1673ffffffffffffffffffffffffffffffffffffffff1681526020019081526020015f20549050919050565b610936610fa5565b61093f5f611237565b565b600b5481565b600a602052805f5260405f205f915054906101000a900460ff1681565b5f60065f9054906101000a900473ffffffffffffffffffffffffffffffffffffffff16905090565b60606001805461099b906125f0565b80601f01602080910402602001604051908101604052809291908181526020018280546109c7906125f0565b8015610a125780601f106109e957610100808354040283529160200191610a12565b820191905f5260205f20905b8154815290600101906020018083116109f557829003601f168201915b5050505050905090565b610a2e610a27610f8c565b83836112fa565b5050565b610a3a611bbb565b600c5f8381526020019081526020015f20604051806101000160405290815f8201548152602001600182015f9054906101000a900473ffffffffffffffffffffffffffffffffffffffff1673ffffffffffffffffffffffffffffffffffffffff1673ffffffffffffffffffffffffffffffffffffffff16815260200160028201548152602001600382015f9054906101000a900467ffffffffffffffff1667ffffffffffffffff1667ffffffffffffffff1681526020016003820160089054906101000a900467ffffffffffffffff1667ffffffffffffffff1667ffffffffffffffff1681526020016004820154815260200160058201548152602001600682015f9054906101000a900460ff1615151515815250509050919050565b6009818051602081018201805184825260208301602085012081835280955050505050505f915054906101000a900460ff1681565b610b9784848461072c565b610bab610ba2610f8c565b85858585611463565b50505050565b6060610bbc82610ecd565b505f610bc661160f565b90505f815111610be45760405180602001604052805f815250610c0f565b80610bee84611625565b604051602001610bff929190612741565b6040516020818303038152906040525b915050919050565b610c1f610fa5565b8060085f8467ffffffffffffffff1667ffffffffffffffff1681526020019081526020015f205f6101000a81548160ff0219169083151502179055507f1792cf82ab5a84d3a3694d8eb55ceb2c81f20e473604e72a0a63c83312c318b88282604051610c8c929190612764565b60405180910390a15050565b600c602052805f5260405f205f91509050805f015490806001015f9054906101000a900473ffffffffffffffffffffffffffffffffffffffff1690806002015490806003015f9054906101000a900467ffffffffffffffff16908060030160089054906101000a900467ffffffffffffffff1690806004015490806005015490806006015f9054906101000a900460ff16905088565b5f60055f8473ffffffffffffffffffffffffffffffffffffffff1673ffffffffffffffffffffffffffffffffffffffff1681526020019081526020015f205f8373ffffffffffffffffffffffffffffffffffffffff1673ffffffffffffffffffffffffffffffffffffffff1681526020019081526020015f205f9054906101000a900460ff16905092915050565b610dc4610fa5565b5f73ffffffffffffffffffffffffffffffffffffffff168173ffffffffffffffffffffffffffffffffffffffff1603610e34575f6040517f1e4fbdf7000000000000000000000000000000000000000000000000000000008152600401610e2b9190611e35565b60405180910390fd5b610e3d81611237565b50565b7f000000000000000000000000000000000000000000000000000000000000000081565b5f7f01ffc9a7000000000000000000000000000000000000000000000000000000007bffffffffffffffffffffffffffffffffffffffffffffffffffffffff1916827bffffffffffffffffffffffffffffffffffffffffffffffffffffffff1916149050919050565b5f80610ed8836116ef565b90505f73ffffffffffffffffffffffffffffffffffffffff168173ffffffffffffffffffffffffffffffffffffffff1603610f4a57826040517f7e273289000000000000000000000000000000000000000000000000000000008152600401610f419190612090565b60405180910390fd5b80915050919050565b5f60045f8381526020019081526020015f205f9054906101000a900473ffffffffffffffffffffffffffffffffffffffff169050919050565b5f33905090565b610fa08383836001611728565b505050565b610fad610f8c565b73ffffffffffffffffffffffffffffffffffffffff16610fcb610964565b73ffffffffffffffffffffffffffffffffffffffff161461102a57610fee610f8c565b6040517f118cdaa70000000000000000000000000000000000000000000000000000000081526004016110219190611e35565b60405180910390fd5b565b5f80611037846116ef565b90505f73ffffffffffffffffffffffffffffffffffffffff168373ffffffffffffffffffffffffffffffffffffffff1614611078576110778184866118e7565b5b5f73ffffffffffffffffffffffffffffffffffffffff168173ffffffffffffffffffffffffffffffffffffffff1614611103576110b75f855f80611728565b600160035f8373ffffffffffffffffffffffffffffffffffffffff1673ffffffffffffffffffffffffffffffffffffffff1681526020019081526020015f205f82825403925050819055505b5f73ffffffffffffffffffffffffffffffffffffffff168573ffffffffffffffffffffffffffffffffffffffff161461118257600160035f8773ffffffffffffffffffffffffffffffffffffffff1673ffffffffffffffffffffffffffffffffffffffff1681526020019081526020015f205f82825401925050819055505b8460025f8681526020019081526020015f205f6101000a81548173ffffffffffffffffffffffffffffffffffffffff021916908373ffffffffffffffffffffffffffffffffffffffff160217905550838573ffffffffffffffffffffffffffffffffffffffff168273ffffffffffffffffffffffffffffffffffffffff167fddf252ad1be2c89b69c2b068fc378daa952ba7f163c4a11628f55a4df523b3ef60405160405180910390a4809150509392505050565b5f60065f9054906101000a900473ffffffffffffffffffffffffffffffffffffffff1690508160065f6101000a81548173ffffffffffffffffffffffffffffffffffffffff021916908373ffffffffffffffffffffffffffffffffffffffff1602179055508173ffffffffffffffffffffffffffffffffffffffff168173ffffffffffffffffffffffffffffffffffffffff167f8be0079c531659141344cd1fd0a4f28419497f9722a3daafe3b4186f6b6457e060405160405180910390a35050565b5f73ffffffffffffffffffffffffffffffffffffffff168273ffffffffffffffffffffffffffffffffffffffff160361136a57816040517f5b08ba180000000000000000000000000000000000000000000000000000000081526004016113619190611e35565b60405180910390fd5b8060055f8573ffffffffffffffffffffffffffffffffffffffff1673ffffffffffffffffffffffffffffffffffffffff1681526020019081526020015f205f8473ffffffffffffffffffffffffffffffffffffffff1673ffffffffffffffffffffffffffffffffffffffff1681526020019081526020015f205f6101000a81548160ff0219169083151502179055508173ffffffffffffffffffffffffffffffffffffffff168373ffffffffffffffffffffffffffffffffffffffff167f17307eab39ab6107e8899845ad3d59bd9653f200f220920489ca2b5937696c31836040516114569190611cd5565b60405180910390a3505050565b5f8373ffffffffffffffffffffffffffffffffffffffff163b1115611608578273ffffffffffffffffffffffffffffffffffffffff1663150b7a02868685856040518563ffffffff1660e01b81526004016114c194939291906127cd565b6020604051808303815f875af19250505080156114fc57506040513d601f19601f820116820180604052508101906114f9919061282b565b60015b61157d573d805f811461152a576040519150601f19603f3d011682016040523d82523d5f602084013e61152f565b606091505b505f81510361157557836040517f64a0ae9200000000000000000000000000000000000000000000000000000000815260040161156c9190611e35565b60405180910390fd5b805160208201fd5b63150b7a0260e01b7bffffffffffffffffffffffffffffffffffffffffffffffffffffffff1916817bffffffffffffffffffffffffffffffffffffffffffffffffffffffff19161461160657836040517f64a0ae920000000000000000000000000000000000000000000000000000000081526004016115fd9190611e35565b60405180910390fd5b505b5050505050565b606060405180602001604052805f815250905090565b60605f6001611633846119aa565b0190505f8167ffffffffffffffff8111156116515761165061224e565b5b6040519080825280601f01601f1916602001820160405280156116835781602001600182028036833780820191505090505b5090505f82602083010190505b6001156116e4578080600190039150507f3031323334353637383961626364656600000000000000000000000000000000600a86061a8153600a85816116d9576116d8612856565b5b0494505f8503611690575b819350505050919050565b5f60025f8381526020019081526020015f205f9054906101000a900473ffffffffffffffffffffffffffffffffffffffff169050919050565b808061176057505f73ffffffffffffffffffffffffffffffffffffffff168273ffffffffffffffffffffffffffffffffffffffff1614155b15611892575f61176f84610ecd565b90505f73ffffffffffffffffffffffffffffffffffffffff168373ffffffffffffffffffffffffffffffffffffffff16141580156117d957508273ffffffffffffffffffffffffffffffffffffffff168173ffffffffffffffffffffffffffffffffffffffff1614155b80156117ec57506117ea8184610d2e565b155b1561182e57826040517fa9fbf51f0000000000000000000000000000000000000000000000000000000081526004016118259190611e35565b60405180910390fd5b811561189057838573ffffffffffffffffffffffffffffffffffffffff168273ffffffffffffffffffffffffffffffffffffffff167f8c5be1e5ebec7d5bd14f71427d1e84f3dd0314c0f7b2291e5b200ac8c7c3b92560405160405180910390a45b505b8360045f8581526020019081526020015f205f6101000a81548173ffffffffffffffffffffffffffffffffffffffff021916908373ffffffffffffffffffffffffffffffffffffffff16021790555050505050565b6118f2838383611afb565b6119a5575f73ffffffffffffffffffffffffffffffffffffffff168373ffffffffffffffffffffffffffffffffffffffff160361196657806040517f7e27328900000000000000000000000000000000000000000000000000000000815260040161195d9190612090565b60405180910390fd5b81816040517f177e802f00000000000000000000000000000000000000000000000000000000815260040161199c929190612883565b60405180910390fd5b505050565b5f805f90507a184f03e93ff9f4daa797ed6e38ed64bf6a1f0100000000000000008310611a06577a184f03e93ff9f4daa797ed6e38ed64bf6a1f01000000000000000083816119fc576119fb612856565b5b0492506040810190505b6d04ee2d6d415b85acef81000000008310611a43576d04ee2d6d415b85acef81000000008381611a3957611a38612856565b5b0492506020810190505b662386f26fc100008310611a7257662386f26fc100008381611a6857611a67612856565b5b0492506010810190505b6305f5e1008310611a9b576305f5e1008381611a9157611a90612856565b5b0492506008810190505b6127108310611ac0576127108381611ab657611ab5612856565b5b0492506004810190505b60648310611ae35760648381611ad957611ad8612856565b5b0492506002810190505b600a8310611af2576001810190505b80915050919050565b5f8073ffffffffffffffffffffffffffffffffffffffff168373ffffffffffffffffffffffffffffffffffffffff1614158015611bb257508273ffffffffffffffffffffffffffffffffffffffff168473ffffffffffffffffffffffffffffffffffffffff161480611b735750611b728484610d2e565b5b80611bb157508273ffffffffffffffffffffffffffffffffffffffff16611b9983610f53565b73ffffffffffffffffffffffffffffffffffffffff16145b5b90509392505050565b6040518061010001604052805f80191681526020015f73ffffffffffffffffffffffffffffffffffffffff1681526020015f81526020015f67ffffffffffffffff1681526020015f67ffffffffffffffff1681526020015f80191681526020015f81526020015f151581525090565b5f604051905090565b5f80fd5b5f80fd5b5f7fffffffff0000000000000000000000000000000000000000000000000000000082169050919050565b611c6f81611c3b565b8114611c79575f80fd5b50565b5f81359050611c8a81611c66565b92915050565b5f60208284031215611ca557611ca4611c33565b5b5f611cb284828501611c7c565b91505092915050565b5f8115159050919050565b611ccf81611cbb565b82525050565b5f602082019050611ce85f830184611cc6565b92915050565b5f81519050919050565b5f82825260208201905092915050565b5f5b83811015611d25578082015181840152602081019050611d0a565b5f8484015250505050565b5f601f19601f8301169050919050565b5f611d4a82611cee565b611d548185611cf8565b9350611d64818560208601611d08565b611d6d81611d30565b840191505092915050565b5f6020820190508181035f830152611d908184611d40565b905092915050565b5f819050919050565b611daa81611d98565b8114611db4575f80fd5b50565b5f81359050611dc581611da1565b92915050565b5f60208284031215611de057611ddf611c33565b5b5f611ded84828501611db7565b91505092915050565b5f73ffffffffffffffffffffffffffffffffffffffff82169050919050565b5f611e1f82611df6565b9050919050565b611e2f81611e15565b82525050565b5f602082019050611e485f830184611e26565b92915050565b611e5781611e15565b8114611e61575f80fd5b50565b5f81359050611e7281611e4e565b92915050565b5f8060408385031215611e8e57611e8d611c33565b5b5f611e9b85828601611e64565b9250506020611eac85828601611db7565b9150509250929050565b5f80fd5b5f80fd5b5f80fd5b5f8083601f840112611ed757611ed6611eb6565b5b8235905067ffffffffffffffff811115611ef457611ef3611eba565b5b602083019150836001820283011115611f1057611f0f611ebe565b5b9250929050565b611f2081611cbb565b8114611f2a575f80fd5b50565b5f81359050611f3b81611f17565b92915050565b5f805f60408486031215611f5857611f57611c33565b5b5f84013567ffffffffffffffff811115611f7557611f74611c37565b5b611f8186828701611ec2565b93509350506020611f9486828701611f2d565b9150509250925092565b5f805f60608486031215611fb557611fb4611c33565b5b5f611fc286828701611e64565b9350506020611fd386828701611e64565b9250506040611fe486828701611db7565b9150509250925092565b5f67ffffffffffffffff82169050919050565b61200a81611fee565b8114612014575f80fd5b50565b5f8135905061202581612001565b92915050565b5f602082840312156120405761203f611c33565b5b5f61204d84828501612017565b91505092915050565b5f6020828403121561206b5761206a611c33565b5b5f61207884828501611e64565b91505092915050565b61208a81611d98565b82525050565b5f6020820190506120a35f830184612081565b92915050565b5f819050919050565b6120bb816120a9565b81146120c5575f80fd5b50565b5f813590506120d6816120b2565b92915050565b5f602082840312156120f1576120f0611c33565b5b5f6120fe848285016120c8565b91505092915050565b5f806040838503121561211d5761211c611c33565b5b5f61212a85828601611e64565b925050602061213b85828601611f2d565b9150509250929050565b61214e816120a9565b82525050565b61215d81611e15565b82525050565b61216c81611d98565b82525050565b61217b81611fee565b82525050565b61218a81611cbb565b82525050565b61010082015f8201516121a55f850182612145565b5060208201516121b86020850182612154565b5060408201516121cb6040850182612163565b5060608201516121de6060850182612172565b5060808201516121f16080850182612172565b5060a082015161220460a0850182612145565b5060c082015161221760c0850182612163565b5060e082015161222a60e0850182612181565b50505050565b5f610100820190506122445f830184612190565b92915050565b5f80fd5b7f4e487b71000000000000000000000000000000000000000000000000000000005f52604160045260245ffd5b61228482611d30565b810181811067ffffffffffffffff821117156122a3576122a261224e565b5b80604052505050565b5f6122b5611c2a565b90506122c1828261227b565b919050565b5f67ffffffffffffffff8211156122e0576122df61224e565b5b6122e982611d30565b9050602081019050919050565b828183375f83830152505050565b5f612316612311846122c6565b6122ac565b9050828152602081018484840111156123325761233161224a565b5b61233d8482856122f6565b509392505050565b5f82601f83011261235957612358611eb6565b5b8135612369848260208601612304565b91505092915050565b5f6020828403121561238757612386611c33565b5b5f82013567ffffffffffffffff8111156123a4576123a3611c37565b5b6123b084828501612345565b91505092915050565b5f805f80608085870312156123d1576123d0611c33565b5b5f6123de87828801611e64565b94505060206123ef87828801611e64565b935050604061240087828801611db7565b925050606085013567ffffffffffffffff81111561242157612420611c37565b5b61242d87828801612345565b91505092959194509250565b5f806040838503121561244f5761244e611c33565b5b5f61245c85828601612017565b925050602061246d85828601611f2d565b9150509250929050565b612480816120a9565b82525050565b61248f81611fee565b82525050565b5f610100820190506124a95f83018b612477565b6124b6602083018a611e26565b6124c36040830189612081565b6124d06060830188612486565b6124dd6080830187612486565b6124ea60a0830186612477565b6124f760c0830185612081565b61250460e0830184611cc6565b9998505050505050505050565b5f806040838503121561252757612526611c33565b5b5f61253485828601611e64565b925050602061254585828601611e64565b9150509250929050565b5f819050919050565b5f61257261256d61256884611df6565b61254f565b611df6565b9050919050565b5f61258382612558565b9050919050565b5f61259482612579565b9050919050565b6125a48161258a565b82525050565b5f6020820190506125bd5f83018461259b565b92915050565b7f4e487b71000000000000000000000000000000000000000000000000000000005f52602260045260245ffd5b5f600282049050600182168061260757607f821691505b60208210810361261a576126196125c3565b5b50919050565b5f81905092915050565b5f6126358385612620565b93506126428385846122f6565b82840190509392505050565b5f61265a82848661262a565b91508190509392505050565b5f82825260208201905092915050565b5f6126818385612666565b935061268e8385846122f6565b61269783611d30565b840190509392505050565b5f6040820190508181035f8301526126bb818587612676565b90506126ca6020830184611cc6565b949350505050565b5f6060820190506126e55f830186611e26565b6126f26020830185612081565b6126ff6040830184611e26565b949350505050565b5f81905092915050565b5f61271b82611cee565b6127258185612707565b9350612735818560208601611d08565b80840191505092915050565b5f61274c8285612711565b91506127588284612711565b91508190509392505050565b5f6040820190506127775f830185612486565b6127846020830184611cc6565b9392505050565b5f81519050919050565b5f61279f8261278b565b6127a98185612666565b93506127b9818560208601611d08565b6127c281611d30565b840191505092915050565b5f6080820190506127e05f830187611e26565b6127ed6020830186611e26565b6127fa6040830185612081565b818103606083015261280c8184612795565b905095945050505050565b5f8151905061282581611c66565b92915050565b5f602082840312156128405761283f611c33565b5b5f61284d84828501612817565b91505092915050565b7f4e487b71000000000000000000000000000000000000000000000000000000005f52601260045260245ffd5b5f6040820190506128965f830185611e26565b6128a36020830184612081565b939250505056fea2646970667358221220f5e5c94bacbe0a284672c38cf3fc6f58ebe21796b7e584ae97e66298773ae60b64736f6c63430008180033",
  "linkReferences": {},
  "deployedLinkReferences": {},
  "immutableReferences": {
    "2397": [
      {
        "length": 32,
        "start": 3650
      }
    ]
  },
  "inputSourceName": "project/contracts/PolicyManager.sol",
  "buildInfoId": "solc-0_8_24-39504a4a25f856d89ece298a3bc10b3a6d134baf"
}