{
  "_format": "hh-sol-artifact-1",
  "contractName": "PolicyManager",
  "sourceName": "contracts/PolicyManager.sol",
  "abi": [
    {
      "inputs": [
        {
          "internalType": "address",
          "name": "_router",
          "type": "address"
        },
        {
          "internalType": "address",
          "name": "_owner",
          "type": "address"
        }
      ],
      "stateMutability": "nonpayable",
      "type": "constructor"
    },
    {
      "inputs": [
        {
          "internalType": "address",
          "name": "sender",
          "type": "address"
        },
        {
          "internalType": "uint256",
          "name": "tokenId",
          "type": "uint256"
        },
        {
          "internalType": "address",
          "name": "owner",
          "type": "address"
        }
      ],
      "name": "ERC721IncorrectOwner",
      "type": "error"
    },
    {
      "inputs": [
        {
          "internalType": "address",
          "name": "operator",
          "type": "address"
        },
        {
          "internalType": "uint256",
          "name": "tokenId",
          "type": "uint256"
        }
      ],
      "name": "ERC721InsufficientApproval",
      "type": "error"
    },
    {
      "inputs": [
        {
          "internalType": "address",
          "name": "approver",
          "type": "address"
        }
      ],
      "name": "ERC721InvalidApprover",
      "type": "error"
    },
    {
      "inputs": [
        {
          "internalType": "address",
          "name": "operator",
          "type": "address"
        }
      ],
      "name": "ERC721InvalidOperator",
      "type": "error"
    },
    {
      "inputs": [
        {
          "internalType": "address",
          "name": "owner",
          "type": "address"
        }
      ],
      "name": "ERC721InvalidOwner",
      "type": "error"
    },
    {
      "inputs": [
        {
          "internalType": "address",
          "name": "receiver",
          "type": "address"
        }
      ],
      "name": "ERC721InvalidReceiver",
      "type": "error"
    },
    {
      "inputs": [
        {
          "internalType": "address",
          "name": "sender",
          "type": "address"
        }
      ],
      "name": "ERC721InvalidSender",
      "type": "error"
    },
    {
      "inputs": [
        {
          "internalType": "uint256",
          "name": "tokenId",
          "type": "uint256"
        }
      ],
      "name": "ERC721NonexistentToken",
      "type": "error"
    },
    {
      "inputs": [
        {
          "internalType": "bytes32",
          "name": "messageId",
          "type": "bytes32"
        }
      ],
      "name": "MessageAlreadyProcessed",
      "type": "error"
    },
    {
      "inputs": [
        {
          "internalType": "uint64",
          "name": "sel",
          "type": "uint64"
        }
      ],
      "name": "NotAllowlistedChain",
      "type": "error"
    },
    {
      "inputs": [
        {
          "internalType": "bytes",
          "name": "sender",
          "type": "bytes"
        }
      ],
      "name": "NotAllowlistedSender",
      "type": "error"
    },
    {
      "inputs": [
        {
          "internalType": "address",
          "name": "owner",
          "type": "address"
        }
      ],
      "name": "OwnableInvalidOwner",
      "type": "error"
    },
    {
      "inputs": [
        {
          "internalType": "address",
          "name": "account",
          "type": "address"
        }
      ],
      "name": "OwnableUnauthorizedAccount",
      "type": "error"
    },
    {
      "inputs": [],
      "name": "ReentrancyGuardReentrantCall",
      "type": "error"
    },
    {
      "inputs": [],
      "name": "ZeroAddress",
      "type": "error"
    },
    {
      "anonymous": false,
      "inputs": [
        {
          "indexed": true,
          "internalType": "address",
          "name": "owner",
          "type": "address"
        },
        {
          "indexed": true,
          "internalType": "address",
          "name": "approved",
          "type": "address"
        },
        {
          "indexed": true,
          "internalType": "uint256",
          "name": "tokenId",
          "type": "uint256"
        }
      ],
      "name": "Approval",
      "type": "event"
    },
    {
      "anonymous": false,
      "inputs": [
        {
          "indexed": true,
          "internalType": "address",
          "name": "owner",
          "type": "address"
        },
        {
          "indexed": true,
          "internalType": "address",
          "name": "operator",
          "type": "address"
        },
        {
          "indexed": false,
          "internalType": "bool",
          "name": "approved",
          "type": "bool"
        }
      ],
      "name": "ApprovalForAll",
      "type": "event"
    },
    {
      "anonymous": false,
      "inputs": [
        {
          "indexed": true,
          "internalType": "address",
          "name": "previousOwner",
          "type": "address"
        },
        {
          "indexed": true,
          "internalType": "address",
          "name": "newOwner",
          "type": "address"
        }
      ],
      "name": "OwnershipTransferred",
      "type": "event"
    },
    {
      "anonymous": false,
      "inputs": [
        {
          "indexed": true,
          "internalType": "bytes32",
          "name": "policyId",
          "type": "bytes32"
        },
        {
          "indexed": true,
          "internalType": "address",
          "name": "buyer",
          "type": "address"
        },
        {
          "indexed": false,
          "internalType": "uint256",
          "name": "tokenId",
          "type": "uint256"
        }
      ],
      "name": "PolicyRegistered",
      "type": "event"
    },
    {
      "anonymous": false,
      "inputs": [
        {
          "indexed": false,
          "internalType": "bytes",
          "name": "sender",
          "type": "bytes"
        },
        {
          "indexed": false,
          "internalType": "bool",
          "name": "allowed",
          "type": "bool"
        }
      ],
      "name": "SenderAllowlisted",
      "type": "event"
    },
    {
      "anonymous": false,
      "inputs": [
        {
          "indexed": false,
          "internalType": "uint64",
          "name": "selector",
          "type": "uint64"
        },
        {
          "indexed": false,
          "internalType": "bool",
          "name": "allowed",
          "type": "bool"
        }
      ],
      "name": "SourceChainAllowlisted",
      "type": "event"
    },
    {
      "anonymous": false,
      "inputs": [
        {
          "indexed": true,
          "internalType": "address",
          "name": "from",
          "type": "address"
        },
        {
          "indexed": true,
          "internalType": "address",
          "name": "to",
          "type": "address"
        },
        {
          "indexed": true,
          "internalType": "uint256",
          "name": "tokenId",
          "type": "uint256"
        }
      ],
      "name": "Transfer",
      "type": "event"
    },
    {
      "inputs": [
        {
          "internalType": "bytes",
          "name": "sender",
          "type": "bytes"
        },
        {
          "internalType": "bool",
          "name": "allowed",
          "type": "bool"
        }
      ],
      "name": "allowlistSender",
      "outputs": [],
      "stateMutability": "nonpayable",
      "type": "function"
    },
    {
      "inputs": [
        {
          "internalType": "uint64",
          "name": "selector",
          "type": "uint64"
        },
        {
          "internalType": "bool",
          "name": "allowed",
          "type": "bool"
        }
      ],
      "name": "allowlistSourceChain",
      "outputs": [],
      "stateMutability": "nonpayable",
      "type": "function"
    },
    {
      "inputs": [
        {
          "internalType": "bytes",
          "name": "",
          "type": "bytes"
        }
      ],
      "name": "allowlistedSenders",
      "outputs": [
        {
          "internalType": "bool",
          "name": "",
          "type": "bool"
        }
      ],
      "stateMutability": "view",
      "type": "function"
    },
    {
      "inputs": [
        {
          "internalType": "uint64",
          "name": "",
          "type": "uint64"
        }
      ],
      "name": "allowlistedSourceChains",
      "outputs": [
        {
          "internalType": "bool",
          "name": "",
          "type": "bool"
        }
      ],
      "stateMutability": "view",
      "type": "function"
    },
    {
      "inputs": [
        {
          "internalType": "address",
          "name": "to",
          "type": "address"
        },
        {
          "internalType": "uint256",
          "name": "tokenId",
          "type": "uint256"
        }
      ],
      "name": "approve",
      "outputs": [],
      "stateMutability": "nonpayable",
      "type": "function"
    },
    {
      "inputs": [
        {
          "internalType": "address",
          "name": "owner",
          "type": "address"
        }
      ],
      "name": "balanceOf",
      "outputs": [
        {
          "internalType": "uint256",
          "name": "",
          "type": "uint256"
        }
      ],
      "stateMutability": "view",
      "type": "function"
    },
    {
      "inputs": [
        {
          "internalType": "uint256",
          "name": "tokenId",
          "type": "uint256"
        }
      ],
      "name": "getApproved",
      "outputs": [
        {
          "internalType": "address",
          "name": "",
          "type": "address"
        }
      ],
      "stateMutability": "view",
      "type": "function"
    },
    {
      "inputs": [
        {
          "internalType": "bytes32",
          "name": "policyId",
          "type": "bytes32"
        }
      ],
      "name": "getPolicy",
      "outputs": [
        {
          "components": [
            {
              "internalType": "bytes32",
              "name": "poolId",
              "type": "bytes32"
            },
            {
              "internalType": "address",
              "name": "buyer",
              "type": "address"
            },
            {
              "internalType": "uint256",
              "name": "coverageAmount",
              "type": "uint256"
            },
            {
              "internalType": "uint64",
              "name": "startTs",
              "type": "uint64"
            },
            {
              "internalType": "uint64",
              "name": "endTs",
              "type": "uint64"
            },
            {
              "internalType": "bytes32",
              "name": "policyRef",
              "type": "bytes32"
            },
            {
              "internalType": "uint256",
              "name": "tokenId",
              "type": "uint256"
            },
            {
              "internalType": "bool",
              "name": "active",
              "type": "bool"
            }
          ],
          "internalType": "struct PolicyManager.Policy",
          "name": "",
          "type": "tuple"
        }
      ],
      "stateMutability": "view",
      "type": "function"
    },
    {
      "inputs": [
        {
          "internalType": "address",
          "name": "owner",
          "type": "address"
        },
        {
          "internalType": "address",
          "name": "operator",
          "type": "address"
        }
      ],
      "name": "isApprovedForAll",
      "outputs": [
        {
          "internalType": "bool",
          "name": "",
          "type": "bool"
        }
      ],
      "stateMutability": "view",
      "type": "function"
    },
    {
      "inputs": [],
      "name": "name",
      "outputs": [
        {
          "internalType": "string",
          "name": "",
          "type": "string"
        }
      ],
      "stateMutability": "view",
      "type": "function"
    },
    {
      "inputs": [],
      "name": "nextTokenId",
      "outputs": [
        {
          "internalType": "uint256",
          "name": "",
          "type": "uint256"
        }
      ],
      "stateMutability": "view",
      "type": "function"
    },
    {
      "inputs": [],
      "name": "owner",
      "outputs": [
        {
          "internalType": "address",
          "name": "",
          "type": "address"
        }
      ],
      "stateMutability": "view",
      "type": "function"
    },
    {
      "inputs": [
        {
          "internalType": "uint256",
          "name": "tokenId",
          "type": "uint256"
        }
      ],
      "name": "ownerOf",
      "outputs": [
        {
          "internalType": "address",
          "name": "",
          "type": "address"
        }
      ],
      "stateMutability": "view",
      "type": "function"
    },
    {
      "inputs": [
        {
          "internalType": "bytes32",
          "name": "",
          "type": "bytes32"
        }
      ],
      "name": "policies",
      "outputs": [
        {
          "internalType": "bytes32",
          "name": "poolId",
          "type": "bytes32"
        },
        {
          "internalType": "address",
          "name": "buyer",
          "type": "address"
        },
        {
          "internalType": "uint256",
          "name": "coverageAmount",
          "type": "uint256"
        },
        {
          "internalType": "uint64",
          "name": "startTs",
          "type": "uint64"
        },
        {
          "internalType": "uint64",
          "name": "endTs",
          "type": "uint64"
        },
        {
          "internalType": "bytes32",
          "name": "policyRef",
          "type": "bytes32"
        },
        {
          "internalType": "uint256",
          "name": "tokenId",
          "type": "uint256"
        },
        {
          "internalType": "bool",
          "name": "active",
          "type": "bool"
        }
      ],
      "stateMutability": "view",
      "type": "function"
    },
    {
      "inputs": [
        {
          "internalType": "bytes32",
          "name": "",
          "type": "bytes32"
        }
      ],
      "name": "processedMessages",
      "outputs": [
        {
          "internalType": "bool",
          "name": "",
          "type": "bool"
        }
      ],
      "stateMutability": "view",
      "type": "function"
    },
    {
      "inputs": [],
      "name": "renounceOwnership",
      "outputs": [],
      "stateMutability": "nonpayable",
      "type": "function"
    },
    {
      "inputs": [],
      "name": "router",
      "outputs": [
        {
          "internalType": "contract IRouterClient",
          "name": "",
          "type": "address"
        }
      ],
      "stateMutability": "view",
      "type": "function"
    },
    {
      "inputs": [
        {
          "internalType": "address",
          "name": "from",
          "type": "address"
        },
        {
          "internalType": "address",
          "name": "to",
          "type": "address"
        },
        {
          "internalType": "uint256",
          "name": "tokenId",
          "type": "uint256"
        }
      ],
      "name": "safeTransferFrom",
      "outputs": [],
      "stateMutability": "nonpayable",
      "type": "function"
    },
    {
      "inputs": [
        {
          "internalType": "address",
          "name": "from",
          "type": "address"
        },
        {
          "internalType": "address",
          "name": "to",
          "type": "address"
        },
        {
          "internalType": "uint256",
          "name": "tokenId",
          "type": "uint256"
        },
        {
          "internalType": "bytes",
          "name": "data",
          "type": "bytes"
        }
      ],
      "name": "safeTransferFrom",
      "outputs": [],
      "stateMutability": "nonpayable",
      "type": "function"
    },
    {
      "inputs": [
        {
          "internalType": "address",
          "name": "operator",
          "type": "address"
        },
        {
          "internalType": "bool",
          "name": "approved",
          "type": "bool"
        }
      ],
      "name": "setApprovalForAll",
      "outputs": [],
      "stateMutability": "nonpayable",
      "type": "function"
    },
    {
      "inputs": [
        {
          "internalType": "bytes4",
          "name": "interfaceId",
          "type": "bytes4"
        }
      ],
      "name": "supportsInterface",
      "outputs": [
        {
          "internalType": "bool",
          "name": "",
          "type": "bool"
        }
      ],
      "stateMutability": "view",
      "type": "function"
    },
    {
      "inputs": [],
      "name": "symbol",
      "outputs": [
        {
          "internalType": "string",
          "name": "",
          "type": "string"
        }
      ],
      "stateMutability": "view",
      "type": "function"
    },
    {
      "inputs": [
        {
          "internalType": "uint256",
          "name": "tokenId",
          "type": "uint256"
        }
      ],
      "name": "tokenURI",
      "outputs": [
        {
          "internalType": "string",
          "name": "",
          "type": "string"
        }
      ],
      "stateMutability": "view",
      "type": "function"
    },
    {
      "inputs": [
        {
          "internalType": "address",
          "name": "from",
          "type": "address"
        },
        {
          "internalType": "address",
          "name": "to",
          "type": "address"
        },
        {
          "internalType": "uint256",
          "name": "tokenId",
          "type": "uint256"
        }
      ],
      "name": "transferFrom",
      "outputs": [],
      "stateMutability": "nonpayable",
      "type": "function"
    },
    {
      "inputs": [
        {
          "internalType": "address",
          "name": "newOwner",
          "type": "address"
        }
      ],
      "name": "transferOwnership",
      "outputs": [],
      "stateMutability": "nonpayable",
      "type": "function"
    }
  ],
  "bytecode": "0x60a06040523480156200001157600080fd5b50604051620018d4380380620018d483398101604081905262000034916200016b565b604080518082018252601481527f44654669477561726469616e7320506f6c696379000000000000000000000000602080830191909152825180840190935260068352651111cb5413d360d21b908301526001600160a01b03841660805282916000620000a283826200024a565b506001620000b182826200024a565b5050506001600160a01b038116620000e357604051631e4fbdf760e01b81526000600482015260240160405180910390fd5b620000ee81620000fc565b505060016007555062000316565b600680546001600160a01b038381166001600160a01b0319831681179093556040519116919082907f8be0079c531659141344cd1fd0a4f28419497f9722a3daafe3b4186f6b6457e090600090a35050565b80516001600160a01b03811681146200016657600080fd5b919050565b600080604083850312156200017f57600080fd5b6200018a836200014e565b91506200019a602084016200014e565b90509250929050565b634e487b7160e01b600052604160045260246000fd5b600181811c90821680620001ce57607f821691505b602082108103620001ef57634e487b7160e01b600052602260045260246000fd5b50919050565b601f82111562000245576000816000526020600020601f850160051c81016020861015620002205750805b601f850160051c820191505b8181101562000241578281556001016200022c565b5050505b505050565b81516001600160401b03811115620002665762000266620001a3565b6200027e81620002778454620001b9565b84620001f5565b602080601f831160018114620002b657600084156200029d5750858301515b600019600386901b1c1916600185901b17855562000241565b600085815260208120601f198616915b82811015620002e757888601518255948401946001909101908401620002c6565b5085821015620003065787850151600019600388901b60f8161c191681555b5050505050600190811b01905550565b6080516115a262000332600039600061058701526115a26000f3fe608060405234801561001057600080fd5b50600436106101735760003560e01c806388ba16ab116100de578063b88d4fde11610097578063ddbfd8ef11610071578063ddbfd8ef146104a2578063e985e9c51461055c578063f2fde38b1461056f578063f887ea401461058257600080fd5b8063b88d4fde14610469578063c87b56dd1461047c578063db04fa491461048f57600080fd5b806388ba16ab146102965780638da5cb5b146102b957806395d89b41146102ca578063a22cb465146102d2578063a3f685f9146102e5578063ad5eeb791461043b57600080fd5b80634030d521116101305780634030d5211461021b57806342842e0e1461023e5780636352211e1461025157806370a0823114610264578063715018a61461028557806375794a3c1461028d57600080fd5b806301ffc9a71461017857806306fdde03146101a0578063081812fc146101b5578063095ea7b3146101e057806313963a27146101f557806323b872dd14610208575b600080fd5b61018b6101863660046110ae565b6105a9565b60405190151581526020015b60405180910390f35b6101a86105fb565b604051610197919061111b565b6101c86101c336600461112e565b61068d565b6040516001600160a01b039091168152602001610197565b6101f36101ee366004611163565b6106b6565b005b6101f361020336600461119d565b6106c5565b6101f361021636600461121e565b61073f565b61018b610229366004611272565b60086020526000908152604090205460ff1681565b6101f361024c36600461121e565b6107cf565b6101c861025f36600461112e565b6107ef565b61027761027236600461128d565b6107fa565b604051908152602001610197565b6101f3610842565b610277600b5481565b61018b6102a436600461112e565b600a6020526000908152604090205460ff1681565b6006546001600160a01b03166101c8565b6101a8610856565b6101f36102e03660046112a8565b610865565b6103c06102f336600461112e565b6040805161010081018252600080825260208201819052918101829052606081018290526080810182905260a0810182905260c0810182905260e0810191909152506000908152600c60209081526040918290208251610100810184528154815260018201546001600160a01b031692810192909252600281015492820192909252600382015467ffffffffffffffff8082166060840152600160401b909104166080820152600482015460a0820152600582015460c082015260069091015460ff16151560e082015290565b60405161019791906000610100820190508251825260018060a01b03602084015116602083015260408301516040830152606083015167ffffffffffffffff8082166060850152806080860151166080850152505060a083015160a083015260c083015160c083015260e0830151151560e083015292915050565b61018b61044936600461137e565b805160208183018101805160098252928201919093012091525460ff1681565b6101f36104773660046113b3565b610870565b6101a861048a36600461112e565b610888565b6101f361049d36600461141b565b6108fd565b61050c6104b036600461112e565b600c60205260009081526040902080546001820154600283015460038401546004850154600586015460069096015494956001600160a01b0390941694929367ffffffffffffffff80841694600160401b909404169260ff1688565b604080519889526001600160a01b0390971660208901529587019490945267ffffffffffffffff92831660608701529116608085015260a084015260c0830152151560e082015261010001610197565b61018b61056a366004611437565b610969565b6101f361057d36600461128d565b610997565b6101c87f000000000000000000000000000000000000000000000000000000000000000081565b60006001600160e01b031982166380ac58cd60e01b14806105da57506001600160e01b03198216635b5e139f60e01b145b806105f557506301ffc9a760e01b6001600160e01b03198316145b92915050565b60606000805461060a90611461565b80601f016020809104026020016040519081016040528092919081815260200182805461063690611461565b80156106835780601f1061065857610100808354040283529160200191610683565b820191906000526020600020905b81548152906001019060200180831161066657829003601f168201915b5050505050905090565b6000610698826109d5565b506000828152600460205260409020546001600160a01b03166105f5565b6106c1828233610a0e565b5050565b6106cd610a1b565b80600984846040516106e092919061149b565b908152604051908190036020018120805492151560ff19909316929092179091557fbc4b6d2189c6df4aa6f7b94df6bf05d89b064eaff45e5aa07f3ec9ceae13473390610732908590859085906114ab565b60405180910390a1505050565b6001600160a01b03821661076e57604051633250574960e11b8152600060048201526024015b60405180910390fd5b600061077b838333610a48565b9050836001600160a01b0316816001600160a01b0316146107c9576040516364283d7b60e01b81526001600160a01b0380861660048301526024820184905282166044820152606401610765565b50505050565b6107ea83838360405180602001604052806000815250610870565b505050565b60006105f5826109d5565b60006001600160a01b038216610826576040516322718ad960e21b815260006004820152602401610765565b506001600160a01b031660009081526003602052604090205490565b61084a610a1b565b6108546000610b41565b565b60606001805461060a90611461565b6106c1338383610b93565b61087b84848461073f565b6107c93385858585610c32565b6060610893826109d5565b5060006108ab60408051602081019091526000815290565b905060008151116108cb57604051806020016040528060008152506108f6565b806108d584610d5d565b6040516020016108e69291906114e3565b6040516020818303038152906040525b9392505050565b610905610a1b565b67ffffffffffffffff8216600081815260086020908152604091829020805460ff19168515159081179091558251938452908301527f1792cf82ab5a84d3a3694d8eb55ceb2c81f20e473604e72a0a63c83312c318b8910160405180910390a15050565b6001600160a01b03918216600090815260056020908152604080832093909416825291909152205460ff1690565b61099f610a1b565b6001600160a01b0381166109c957604051631e4fbdf760e01b815260006004820152602401610765565b6109d281610b41565b50565b6000818152600260205260408120546001600160a01b0316806105f557604051637e27328960e01b815260048101849052602401610765565b6107ea8383836001610df0565b6006546001600160a01b031633146108545760405163118cdaa760e01b8152336004820152602401610765565b6000828152600260205260408120546001600160a01b0390811690831615610a7557610a75818486610ef6565b6001600160a01b03811615610ab357610a92600085600080610df0565b6001600160a01b038116600090815260036020526040902080546000190190555b6001600160a01b03851615610ae2576001600160a01b0385166000908152600360205260409020805460010190555b60008481526002602052604080822080546001600160a01b0319166001600160a01b0389811691821790925591518793918516917fddf252ad1be2c89b69c2b068fc378daa952ba7f163c4a11628f55a4df523b3ef91a4949350505050565b600680546001600160a01b038381166001600160a01b0319831681179093556040519116919082907f8be0079c531659141344cd1fd0a4f28419497f9722a3daafe3b4186f6b6457e090600090a35050565b6001600160a01b038216610bc557604051630b61174360e31b81526001600160a01b0383166004820152602401610765565b6001600160a01b03838116600081815260056020908152604080832094871680845294825291829020805460ff191686151590811790915591519182527f17307eab39ab6107e8899845ad3d59bd9653f200f220920489ca2b5937696c31910160405180910390a3505050565b6001600160a01b0383163b15610d5657604051630a85bd0160e11b81526001600160a01b0384169063150b7a0290610c74908890889087908790600401611512565b6020604051808303816000875af1925050508015610caf575060408051601f3d908101601f19168201909252610cac9181019061154f565b60015b610d18573d808015610cdd576040519150601f19603f3d011682016040523d82523d6000602084013e610ce2565b606091505b508051600003610d1057604051633250574960e11b81526001600160a01b0385166004820152602401610765565b805160208201fd5b6001600160e01b03198116630a85bd0160e11b14610d5457604051633250574960e11b81526001600160a01b0385166004820152602401610765565b505b5050505050565b60606000610d6a83610f5a565b600101905060008167ffffffffffffffff811115610d8a57610d8a6112db565b6040519080825280601f01601f191660200182016040528015610db4576020820181803683370190505b5090508181016020015b600019016f181899199a1a9b1b9c1cb0b131b232b360811b600a86061a8153600a8504945084610dbe57509392505050565b8080610e0457506001600160a01b03821615155b15610ec6576000610e14846109d5565b90506001600160a01b03831615801590610e405750826001600160a01b0316816001600160a01b031614155b8015610e535750610e518184610969565b155b15610e7c5760405163a9fbf51f60e01b81526001600160a01b0384166004820152602401610765565b8115610ec45783856001600160a01b0316826001600160a01b03167f8c5be1e5ebec7d5bd14f71427d1e84f3dd0314c0f7b2291e5b200ac8c7c3b92560405160405180910390a45b505b5050600090815260046020526040902080546001600160a01b0319166001600160a01b0392909216919091179055565b610f01838383611032565b6107ea576001600160a01b038316610f2f57604051637e27328960e01b815260048101829052602401610765565b60405163177e802f60e01b81526001600160a01b038316600482015260248101829052604401610765565b60008072184f03e93ff9f4daa797ed6e38ed64bf6a1f0160401b8310610f995772184f03e93ff9f4daa797ed6e38ed64bf6a1f0160401b830492506040015b6d04ee2d6d415b85acef81000000008310610fc5576d04ee2d6d415b85acef8100000000830492506020015b662386f26fc100008310610fe357662386f26fc10000830492506010015b6305f5e1008310610ffb576305f5e100830492506008015b612710831061100f57612710830492506004015b60648310611021576064830492506002015b600a83106105f55760010192915050565b60006001600160a01b038316158015906110905750826001600160a01b0316846001600160a01b0316148061106c575061106c8484610969565b8061109057506000828152600460205260409020546001600160a01b038481169116145b949350505050565b6001600160e01b0319811681146109d257600080fd5b6000602082840312156110c057600080fd5b81356108f681611098565b60005b838110156110e65781810151838201526020016110ce565b50506000910152565b600081518084526111078160208601602086016110cb565b601f01601f19169290920160200192915050565b6020815260006108f660208301846110ef565b60006020828403121561114057600080fd5b5035919050565b80356001600160a01b038116811461115e57600080fd5b919050565b6000806040838503121561117657600080fd5b61117f83611147565b946020939093013593505050565b8035801515811461115e57600080fd5b6000806000604084860312156111b257600080fd5b833567ffffffffffffffff808211156111ca57600080fd5b818601915086601f8301126111de57600080fd5b8135818111156111ed57600080fd5b8760208285010111156111ff57600080fd5b602092830195509350611215918601905061118d565b90509250925092565b60008060006060848603121561123357600080fd5b61123c84611147565b925061124a60208501611147565b9150604084013590509250925092565b803567ffffffffffffffff8116811461115e57600080fd5b60006020828403121561128457600080fd5b6108f68261125a565b60006020828403121561129f57600080fd5b6108f682611147565b600080604083850312156112bb57600080fd5b6112c483611147565b91506112d26020840161118d565b90509250929050565b634e487b7160e01b600052604160045260246000fd5b600082601f83011261130257600080fd5b813567ffffffffffffffff8082111561131d5761131d6112db565b604051601f8301601f19908116603f01168101908282118183101715611345576113456112db565b8160405283815286602085880101111561135e57600080fd5b836020870160208301376000602085830101528094505050505092915050565b60006020828403121561139057600080fd5b813567ffffffffffffffff8111156113a757600080fd5b611090848285016112f1565b600080600080608085870312156113c957600080fd5b6113d285611147565b93506113e060208601611147565b925060408501359150606085013567ffffffffffffffff81111561140357600080fd5b61140f878288016112f1565b91505092959194509250565b6000806040838503121561142e57600080fd5b6112c48361125a565b6000806040838503121561144a57600080fd5b61145383611147565b91506112d260208401611147565b600181811c9082168061147557607f821691505b60208210810361149557634e487b7160e01b600052602260045260246000fd5b50919050565b8183823760009101908152919050565b6040815282604082015282846060830137600060608483018101919091529115156020820152601f909201601f191690910101919050565b600083516114f58184602088016110cb565b8351908301906115098183602088016110cb565b01949350505050565b6001600160a01b0385811682528416602082015260408101839052608060608201819052600090611545908301846110ef565b9695505050505050565b60006020828403121561156157600080fd5b81516108f68161109856fea264697066735822122006cb513cccb4d2608ba5bbf8bd9e4dc785a433ed672597dcd0bbd1d33b90f9b764736f6c63430008180033",
  "linkReferences": {},
  "deployedLinkReferences": {}
}