{
  "_format": "hh-sol-artifact-1",
  "contractName": "Client",
  "sourceName": "@chainlink/contracts-ccip/contracts/libraries/Client.sol",
  "abi": [
    {
      "inputs": [],
      "name": "EVM_EXTRA_ARGS_V1_TAG",
      "outputs": [
        {
          "internalType": "bytes4",
          "name": "",
          "type": "bytes4"
        }
      ],
      "stateMutability": "view",
      "type": "function"
    },
    {
      "inputs": [],
      "name": "GENERIC_EXTRA_ARGS_V2_TAG",
      "outputs": [
        {
          "internalType": "bytes4",
          "name": "",
          "type": "bytes4"
        }
      ],
      "stateMutability": "view",
      "type": "function"
    },
    {
      "inputs": [],
      "name": "SVM_ACCOUNT_BYTE_SIZE",
      "outputs": [
        {
          "internalType": "uint256",
          "name": "",
          "type": "uint256"
        }
      ],
      "stateMutability": "view",
      "type": "function"
    },
    {
      "inputs": [],
      "name": "SVM_EXTRA_ARGS_MAX_ACCOUNTS",
      "outputs": [
        {
          "internalType": "uint256",
          "name": "",
          "type": "uint256"
        }
      ],
      "stateMutability": "view",
      "type": "function"
    },
    {
      "inputs": [],
      "name": "SVM_EXTRA_ARGS_V1_TAG",
      "outputs": [
        {
          "internalType": "bytes4",
          "name": "",
          "type": "bytes4"
        }
      ],
      "stateMutability": "view",
      "type": "function"
    },
    {
      "inputs": [],
      "name": "SVM_MESSAGING_ACCOUNTS_OVERHEAD",
      "outputs": [
        {
          "internalType": "uint256",
          "name": "",
          "type": "uint256"
        }
      ],
      "stateMutability": "view",
      "type": "function"
    },
    {
      "inputs": [],
      "name": "SVM_TOKEN_TRANSFER_DATA_OVERHEAD",
      "outputs": [
        {
          "internalType": "uint256",
          "name": "",
          "type": "uint256"
        }
      ],
      "stateMutability": "view",
      "type": "function"
    }
  ],
  "bytecode": "0x61012861003a600b82828239805160001a60731461002d57634e487b7160e01b600052600060045260246000fd5b30600052607381538281f3fe7300000000000000000000000000000000000000003014608060405260043610607e5760003560e01c806371953f6011605f57806371953f601460c95780637498e3551460d05780639713cbbd1460dd578063a5dd87d81460e557600080fd5b80631ac428f81460835780633ab8c0d014609d5780635dd8ee3e1460c2575b600080fd5b608a604081565b6040519081526020015b60405180910390f35b60aa6397a657c960e01b81565b6040516001600160e01b031990911681526020016094565b608a600281565b608a602081565b60aa630181dcf160e41b81565b608a61012c81565b60aa630f9d9d5d60e11b8156fea2646970667358221220e19b332448ffc405f02dcb7bbb3d25698734f649ca0f6044a1b45f3cebc8715064736f6c63430008180033",
  "linkReferences": {},
  "deployedLinkReferences": {}
}